{
  "_format": "hh-sol-artifact-1",
  "contractName": "AllowedMethodsEnforcer",
  "sourceName": "contracts/caveat-enforcers/AllowedMethods.sol",
  "abi": [
    {
      "inputs": [
        {
          "internalType": "bytes",
          "name": "terms",
          "type": "bytes"
        },
        {
          "components": [
            {
              "internalType": "address",
              "name": "to",
              "type": "address"
            },
            {
              "internalType": "uint256",
              "name": "gasLimit",
              "type": "uint256"
            },
            {
              "internalType": "bytes",
              "name": "data",
              "type": "bytes"
            }
          ],
          "internalType": "struct Transaction",
          "name": "transaction",
          "type": "tuple"
        },
        {
          "internalType": "bytes32",
          "name": "delegationHash",
          "type": "bytes32"
        }
      ],
      "name": "enforceCaveat",
      "outputs": [
        {
          "internalType": "bool",
          "name": "",
          "type": "bool"
        }
      ],
      "stateMutability": "pure",
      "type": "function"
    }
  ],
  "bytecode": "0x608060405234801561001057600080fd5b5061029b806100206000396000f3fe608060405234801561001057600080fd5b506004361061002b5760003560e01c80635068de4c14610030575b600080fd5b61004361003e3660046100f6565b610057565b604051901515815260200160405180910390f35b6000806100676040850185610197565b610076916004916000916101e5565b61007f9161020f565b905060005b858110156100e757600087828861009c82600461023f565b926100a9939291906101e5565b6100b29161020f565b90506001600160e01b0319808416908216036100d457600193505050506100ee565b506100e060048261023f565b9050610084565b5060009150505b949350505050565b6000806000806060858703121561010c57600080fd5b843567ffffffffffffffff8082111561012457600080fd5b818701915087601f83011261013857600080fd5b81358181111561014757600080fd5b88602082850101111561015957600080fd5b60209283019650945090860135908082111561017457600080fd5b5085016060818803121561018757600080fd5b9396929550929360400135925050565b6000808335601e198436030181126101ae57600080fd5b83018035915067ffffffffffffffff8211156101c957600080fd5b6020019150368190038213156101de57600080fd5b9250929050565b600080858511156101f557600080fd5b8386111561020257600080fd5b5050820193919092039150565b6001600160e01b031981358181169160048510156102375780818660040360031b1b83161692505b505092915050565b6000821982111561026057634e487b7160e01b600052601160045260246000fd5b50019056fea2646970667358221220d36bdafa0450bf3a714fbff0c0227e5b05ea64a8f95487aacaea9bbf1b6b8c9b64736f6c634300080d0033",
  "linkReferences": {},
  "deployedLinkReferences": {}
}