{
  "_format": "hh-sol-artifact-1",
  "contractName": "PhisherRegistry",
  "sourceName": "contracts/PhisherRegistry.sol",
  "abi": [
    {
      "inputs": [
        {
          "internalType": "string",
          "name": "name",
          "type": "string"
        }
      ],
      "stateMutability": "nonpayable",
      "type": "constructor"
    },
    {
      "anonymous": false,
      "inputs": [
        {
          "indexed": true,
          "internalType": "address",
          "name": "previousOwner",
          "type": "address"
        },
        {
          "indexed": true,
          "internalType": "address",
          "name": "newOwner",
          "type": "address"
        }
      ],
      "name": "OwnershipTransferred",
      "type": "event"
    },
    {
      "inputs": [
        {
          "components": [
            {
              "internalType": "address",
              "name": "enforcer",
              "type": "address"
            },
            {
              "internalType": "bytes",
              "name": "terms",
              "type": "bytes"
            }
          ],
          "internalType": "struct Caveat[]",
          "name": "_input",
          "type": "tuple[]"
        }
      ],
      "name": "GET_CAVEAT_ARRAY_PACKETHASH",
      "outputs": [
        {
          "internalType": "bytes32",
          "name": "",
          "type": "bytes32"
        }
      ],
      "stateMutability": "pure",
      "type": "function"
    },
    {
      "inputs": [
        {
          "components": [
            {
              "internalType": "address",
              "name": "enforcer",
              "type": "address"
            },
            {
              "internalType": "bytes",
              "name": "terms",
              "type": "bytes"
            }
          ],
          "internalType": "struct Caveat",
          "name": "_input",
          "type": "tuple"
        }
      ],
      "name": "GET_CAVEAT_PACKETHASH",
      "outputs": [
        {
          "internalType": "bytes32",
          "name": "",
          "type": "bytes32"
        }
      ],
      "stateMutability": "pure",
      "type": "function"
    },
    {
      "inputs": [
        {
          "components": [
            {
              "internalType": "address",
              "name": "delegate",
              "type": "address"
            },
            {
              "internalType": "bytes32",
              "name": "authority",
              "type": "bytes32"
            },
            {
              "components": [
                {
                  "internalType": "address",
                  "name": "enforcer",
                  "type": "address"
                },
                {
                  "internalType": "bytes",
                  "name": "terms",
                  "type": "bytes"
                }
              ],
              "internalType": "struct Caveat[]",
              "name": "caveats",
              "type": "tuple[]"
            }
          ],
          "internalType": "struct Delegation",
          "name": "_input",
          "type": "tuple"
        }
      ],
      "name": "GET_DELEGATION_PACKETHASH",
      "outputs": [
        {
          "internalType": "bytes32",
          "name": "",
          "type": "bytes32"
        }
      ],
      "stateMutability": "pure",
      "type": "function"
    },
    {
      "inputs": [
        {
          "components": [
            {
              "internalType": "string",
              "name": "name",
              "type": "string"
            },
            {
              "internalType": "string",
              "name": "version",
              "type": "string"
            },
            {
              "internalType": "uint256",
              "name": "chainId",
              "type": "uint256"
            },
            {
              "internalType": "address",
              "name": "verifyingContract",
              "type": "address"
            }
          ],
          "internalType": "struct EIP712Domain",
          "name": "_input",
          "type": "tuple"
        }
      ],
      "name": "GET_EIP712DOMAIN_PACKETHASH",
      "outputs": [
        {
          "internalType": "bytes32",
          "name": "",
          "type": "bytes32"
        }
      ],
      "stateMutability": "pure",
      "type": "function"
    },
    {
      "inputs": [
        {
          "components": [
            {
              "components": [
                {
                  "components": [
                    {
                      "internalType": "address",
                      "name": "to",
                      "type": "address"
                    },
                    {
                      "internalType": "uint256",
                      "name": "gasLimit",
                      "type": "uint256"
                    },
                    {
                      "internalType": "bytes",
                      "name": "data",
                      "type": "bytes"
                    }
                  ],
                  "internalType": "struct Transaction",
                  "name": "transaction",
                  "type": "tuple"
                },
                {
                  "components": [
                    {
                      "components": [
                        {
                          "internalType": "address",
                          "name": "delegate",
                          "type": "address"
                        },
                        {
                          "internalType": "bytes32",
                          "name": "authority",
                          "type": "bytes32"
                        },
                        {
                          "components": [
                            {
                              "internalType": "address",
                              "name": "enforcer",
                              "type": "address"
                            },
                            {
                              "internalType": "bytes",
                              "name": "terms",
                              "type": "bytes"
                            }
                          ],
                          "internalType": "struct Caveat[]",
                          "name": "caveats",
                          "type": "tuple[]"
                        }
                      ],
                      "internalType": "struct Delegation",
                      "name": "delegation",
                      "type": "tuple"
                    },
                    {
                      "internalType": "bytes",
                      "name": "signature",
                      "type": "bytes"
                    }
                  ],
                  "internalType": "struct SignedDelegation[]",
                  "name": "authority",
                  "type": "tuple[]"
                }
              ],
              "internalType": "struct Invocation[]",
              "name": "batch",
              "type": "tuple[]"
            },
            {
              "components": [
                {
                  "internalType": "uint256",
                  "name": "nonce",
                  "type": "uint256"
                },
                {
                  "internalType": "uint256",
                  "name": "queue",
                  "type": "uint256"
                }
              ],
              "internalType": "struct ReplayProtection",
              "name": "replayProtection",
              "type": "tuple"
            }
          ],
          "internalType": "struct Invocations",
          "name": "_input",
          "type": "tuple"
        }
      ],
      "name": "GET_INVOCATIONS_PACKETHASH",
      "outputs": [
        {
          "internalType": "bytes32",
          "name": "",
          "type": "bytes32"
        }
      ],
      "stateMutability": "pure",
      "type": "function"
    },
    {
      "inputs": [
        {
          "components": [
            {
              "components": [
                {
                  "internalType": "address",
                  "name": "to",
                  "type": "address"
                },
                {
                  "internalType": "uint256",
                  "name": "gasLimit",
                  "type": "uint256"
                },
                {
                  "internalType": "bytes",
                  "name": "data",
                  "type": "bytes"
                }
              ],
              "internalType": "struct Transaction",
              "name": "transaction",
              "type": "tuple"
            },
            {
              "components": [
                {
                  "components": [
                    {
                      "internalType": "address",
                      "name": "delegate",
                      "type": "address"
                    },
                    {
                      "internalType": "bytes32",
                      "name": "authority",
                      "type": "bytes32"
                    },
                    {
                      "components": [
                        {
                          "internalType": "address",
                          "name": "enforcer",
                          "type": "address"
                        },
                        {
                          "internalType": "bytes",
                          "name": "terms",
                          "type": "bytes"
                        }
                      ],
                      "internalType": "struct Caveat[]",
                      "name": "caveats",
                      "type": "tuple[]"
                    }
                  ],
                  "internalType": "struct Delegation",
                  "name": "delegation",
                  "type": "tuple"
                },
                {
                  "internalType": "bytes",
                  "name": "signature",
                  "type": "bytes"
                }
              ],
              "internalType": "struct SignedDelegation[]",
              "name": "authority",
              "type": "tuple[]"
            }
          ],
          "internalType": "struct Invocation[]",
          "name": "_input",
          "type": "tuple[]"
        }
      ],
      "name": "GET_INVOCATION_ARRAY_PACKETHASH",
      "outputs": [
        {
          "internalType": "bytes32",
          "name": "",
          "type": "bytes32"
        }
      ],
      "stateMutability": "pure",
      "type": "function"
    },
    {
      "inputs": [
        {
          "components": [
            {
              "components": [
                {
                  "internalType": "address",
                  "name": "to",
                  "type": "address"
                },
                {
                  "internalType": "uint256",
                  "name": "gasLimit",
                  "type": "uint256"
                },
                {
                  "internalType": "bytes",
                  "name": "data",
                  "type": "bytes"
                }
              ],
              "internalType": "struct Transaction",
              "name": "transaction",
              "type": "tuple"
            },
            {
              "components": [
                {
                  "components": [
                    {
                      "internalType": "address",
                      "name": "delegate",
                      "type": "address"
                    },
                    {
                      "internalType": "bytes32",
                      "name": "authority",
                      "type": "bytes32"
                    },
                    {
                      "components": [
                        {
                          "internalType": "address",
                          "name": "enforcer",
                          "type": "address"
                        },
                        {
                          "internalType": "bytes",
                          "name": "terms",
                          "type": "bytes"
                        }
                      ],
                      "internalType": "struct Caveat[]",
                      "name": "caveats",
                      "type": "tuple[]"
                    }
                  ],
                  "internalType": "struct Delegation",
                  "name": "delegation",
                  "type": "tuple"
                },
                {
                  "internalType": "bytes",
                  "name": "signature",
                  "type": "bytes"
                }
              ],
              "internalType": "struct SignedDelegation[]",
              "name": "authority",
              "type": "tuple[]"
            }
          ],
          "internalType": "struct Invocation",
          "name": "_input",
          "type": "tuple"
        }
      ],
      "name": "GET_INVOCATION_PACKETHASH",
      "outputs": [
        {
          "internalType": "bytes32",
          "name": "",
          "type": "bytes32"
        }
      ],
      "stateMutability": "pure",
      "type": "function"
    },
    {
      "inputs": [
        {
          "components": [
            {
              "internalType": "uint256",
              "name": "nonce",
              "type": "uint256"
            },
            {
              "internalType": "uint256",
              "name": "queue",
              "type": "uint256"
            }
          ],
          "internalType": "struct ReplayProtection",
          "name": "_input",
          "type": "tuple"
        }
      ],
      "name": "GET_REPLAYPROTECTION_PACKETHASH",
      "outputs": [
        {
          "internalType": "bytes32",
          "name": "",
          "type": "bytes32"
        }
      ],
      "stateMutability": "pure",
      "type": "function"
    },
    {
      "inputs": [
        {
          "components": [
            {
              "components": [
                {
                  "internalType": "address",
                  "name": "delegate",
                  "type": "address"
                },
                {
                  "internalType": "bytes32",
                  "name": "authority",
                  "type": "bytes32"
                },
                {
                  "components": [
                    {
                      "internalType": "address",
                      "name": "enforcer",
                      "type": "address"
                    },
                    {
                      "internalType": "bytes",
                      "name": "terms",
                      "type": "bytes"
                    }
                  ],
                  "internalType": "struct Caveat[]",
                  "name": "caveats",
                  "type": "tuple[]"
                }
              ],
              "internalType": "struct Delegation",
              "name": "delegation",
              "type": "tuple"
            },
            {
              "internalType": "bytes",
              "name": "signature",
              "type": "bytes"
            }
          ],
          "internalType": "struct SignedDelegation[]",
          "name": "_input",
          "type": "tuple[]"
        }
      ],
      "name": "GET_SIGNEDDELEGATION_ARRAY_PACKETHASH",
      "outputs": [
        {
          "internalType": "bytes32",
          "name": "",
          "type": "bytes32"
        }
      ],
      "stateMutability": "pure",
      "type": "function"
    },
    {
      "inputs": [
        {
          "components": [
            {
              "components": [
                {
                  "internalType": "address",
                  "name": "delegate",
                  "type": "address"
                },
                {
                  "internalType": "bytes32",
                  "name": "authority",
                  "type": "bytes32"
                },
                {
                  "components": [
                    {
                      "internalType": "address",
                      "name": "enforcer",
                      "type": "address"
                    },
                    {
                      "internalType": "bytes",
                      "name": "terms",
                      "type": "bytes"
                    }
                  ],
                  "internalType": "struct Caveat[]",
                  "name": "caveats",
                  "type": "tuple[]"
                }
              ],
              "internalType": "struct Delegation",
              "name": "delegation",
              "type": "tuple"
            },
            {
              "internalType": "bytes",
              "name": "signature",
              "type": "bytes"
            }
          ],
          "internalType": "struct SignedDelegation",
          "name": "_input",
          "type": "tuple"
        }
      ],
      "name": "GET_SIGNEDDELEGATION_PACKETHASH",
      "outputs": [
        {
          "internalType": "bytes32",
          "name": "",
          "type": "bytes32"
        }
      ],
      "stateMutability": "pure",
      "type": "function"
    },
    {
      "inputs": [
        {
          "components": [
            {
              "components": [
                {
                  "components": [
                    {
                      "components": [
                        {
                          "internalType": "address",
                          "name": "to",
                          "type": "address"
                        },
                        {
                          "internalType": "uint256",
                          "name": "gasLimit",
                          "type": "uint256"
                        },
                        {
                          "internalType": "bytes",
                          "name": "data",
                          "type": "bytes"
                        }
                      ],
                      "internalType": "struct Transaction",
                      "name": "transaction",
                      "type": "tuple"
                    },
                    {
                      "components": [
                        {
                          "components": [
                            {
                              "internalType": "address",
                              "name": "delegate",
                              "type": "address"
                            },
                            {
                              "internalType": "bytes32",
                              "name": "authority",
                              "type": "bytes32"
                            },
                            {
                              "components": [
                                {
                                  "internalType": "address",
                                  "name": "enforcer",
                                  "type": "address"
                                },
                                {
                                  "internalType": "bytes",
                                  "name": "terms",
                                  "type": "bytes"
                                }
                              ],
                              "internalType": "struct Caveat[]",
                              "name": "caveats",
                              "type": "tuple[]"
                            }
                          ],
                          "internalType": "struct Delegation",
                          "name": "delegation",
                          "type": "tuple"
                        },
                        {
                          "internalType": "bytes",
                          "name": "signature",
                          "type": "bytes"
                        }
                      ],
                      "internalType": "struct SignedDelegation[]",
                      "name": "authority",
                      "type": "tuple[]"
                    }
                  ],
                  "internalType": "struct Invocation[]",
                  "name": "batch",
                  "type": "tuple[]"
                },
                {
                  "components": [
                    {
                      "internalType": "uint256",
                      "name": "nonce",
                      "type": "uint256"
                    },
                    {
                      "internalType": "uint256",
                      "name": "queue",
                      "type": "uint256"
                    }
                  ],
                  "internalType": "struct ReplayProtection",
                  "name": "replayProtection",
                  "type": "tuple"
                }
              ],
              "internalType": "struct Invocations",
              "name": "invocations",
              "type": "tuple"
            },
            {
              "internalType": "bytes",
              "name": "signature",
              "type": "bytes"
            }
          ],
          "internalType": "struct SignedInvocation",
          "name": "_input",
          "type": "tuple"
        }
      ],
      "name": "GET_SIGNEDINVOCATION_PACKETHASH",
      "outputs": [
        {
          "internalType": "bytes32",
          "name": "",
          "type": "bytes32"
        }
      ],
      "stateMutability": "pure",
      "type": "function"
    },
    {
      "inputs": [
        {
          "components": [
            {
              "internalType": "address",
              "name": "to",
              "type": "address"
            },
            {
              "internalType": "uint256",
              "name": "gasLimit",
              "type": "uint256"
            },
            {
              "internalType": "bytes",
              "name": "data",
              "type": "bytes"
            }
          ],
          "internalType": "struct Transaction",
          "name": "_input",
          "type": "tuple"
        }
      ],
      "name": "GET_TRANSACTION_PACKETHASH",
      "outputs": [
        {
          "internalType": "bytes32",
          "name": "",
          "type": "bytes32"
        }
      ],
      "stateMutability": "pure",
      "type": "function"
    },
    {
      "inputs": [
        {
          "internalType": "string",
          "name": "identifier",
          "type": "string"
        },
        {
          "internalType": "bool",
          "name": "isAccused",
          "type": "bool"
        }
      ],
      "name": "claimIfPhisher",
      "outputs": [],
      "stateMutability": "nonpayable",
      "type": "function"
    },
    {
      "inputs": [
        {
          "components": [
            {
              "components": [
                {
                  "internalType": "address",
                  "name": "to",
                  "type": "address"
                },
                {
                  "internalType": "uint256",
                  "name": "gasLimit",
                  "type": "uint256"
                },
                {
                  "internalType": "bytes",
                  "name": "data",
                  "type": "bytes"
                }
              ],
              "internalType": "struct Transaction",
              "name": "transaction",
              "type": "tuple"
            },
            {
              "components": [
                {
                  "components": [
                    {
                      "internalType": "address",
                      "name": "delegate",
                      "type": "address"
                    },
                    {
                      "internalType": "bytes32",
                      "name": "authority",
                      "type": "bytes32"
                    },
                    {
                      "components": [
                        {
                          "internalType": "address",
                          "name": "enforcer",
                          "type": "address"
                        },
                        {
                          "internalType": "bytes",
                          "name": "terms",
                          "type": "bytes"
                        }
                      ],
                      "internalType": "struct Caveat[]",
                      "name": "caveats",
                      "type": "tuple[]"
                    }
                  ],
                  "internalType": "struct Delegation",
                  "name": "delegation",
                  "type": "tuple"
                },
                {
                  "internalType": "bytes",
                  "name": "signature",
                  "type": "bytes"
                }
              ],
              "internalType": "struct SignedDelegation[]",
              "name": "authority",
              "type": "tuple[]"
            }
          ],
          "internalType": "struct Invocation[]",
          "name": "batch",
          "type": "tuple[]"
        }
      ],
      "name": "contractInvoke",
      "outputs": [
        {
          "internalType": "bool",
          "name": "",
          "type": "bool"
        }
      ],
      "stateMutability": "nonpayable",
      "type": "function"
    },
    {
      "inputs": [],
      "name": "domainHash",
      "outputs": [
        {
          "internalType": "bytes32",
          "name": "",
          "type": "bytes32"
        }
      ],
      "stateMutability": "view",
      "type": "function"
    },
    {
      "inputs": [
        {
          "internalType": "bytes",
          "name": "terms",
          "type": "bytes"
        },
        {
          "components": [
            {
              "internalType": "address",
              "name": "to",
              "type": "address"
            },
            {
              "internalType": "uint256",
              "name": "gasLimit",
              "type": "uint256"
            },
            {
              "internalType": "bytes",
              "name": "data",
              "type": "bytes"
            }
          ],
          "internalType": "struct Transaction",
          "name": "transaction",
          "type": "tuple"
        },
        {
          "internalType": "bytes32",
          "name": "delegationHash",
          "type": "bytes32"
        }
      ],
      "name": "enforceCaveat",
      "outputs": [
        {
          "internalType": "bool",
          "name": "",
          "type": "bool"
        }
      ],
      "stateMutability": "nonpayable",
      "type": "function"
    },
    {
      "inputs": [
        {
          "components": [
            {
              "internalType": "address",
              "name": "delegate",
              "type": "address"
            },
            {
              "internalType": "bytes32",
              "name": "authority",
              "type": "bytes32"
            },
            {
              "components": [
                {
                  "internalType": "address",
                  "name": "enforcer",
                  "type": "address"
                },
                {
                  "internalType": "bytes",
                  "name": "terms",
                  "type": "bytes"
                }
              ],
              "internalType": "struct Caveat[]",
              "name": "caveats",
              "type": "tuple[]"
            }
          ],
          "internalType": "struct Delegation",
          "name": "delegation",
          "type": "tuple"
        }
      ],
      "name": "getDelegationTypedDataHash",
      "outputs": [
        {
          "internalType": "bytes32",
          "name": "",
          "type": "bytes32"
        }
      ],
      "stateMutability": "view",
      "type": "function"
    },
    {
      "inputs": [
        {
          "internalType": "string",
          "name": "contractName",
          "type": "string"
        },
        {
          "internalType": "string",
          "name": "version",
          "type": "string"
        },
        {
          "internalType": "uint256",
          "name": "chainId",
          "type": "uint256"
        },
        {
          "internalType": "address",
          "name": "verifyingContract",
          "type": "address"
        }
      ],
      "name": "getEIP712DomainHash",
      "outputs": [
        {
          "internalType": "bytes32",
          "name": "",
          "type": "bytes32"
        }
      ],
      "stateMutability": "pure",
      "type": "function"
    },
    {
      "inputs": [
        {
          "components": [
            {
              "components": [
                {
                  "components": [
                    {
                      "internalType": "address",
                      "name": "to",
                      "type": "address"
                    },
                    {
                      "internalType": "uint256",
                      "name": "gasLimit",
                      "type": "uint256"
                    },
                    {
                      "internalType": "bytes",
                      "name": "data",
                      "type": "bytes"
                    }
                  ],
                  "internalType": "struct Transaction",
                  "name": "transaction",
                  "type": "tuple"
                },
                {
                  "components": [
                    {
                      "components": [
                        {
                          "internalType": "address",
                          "name": "delegate",
                          "type": "address"
                        },
                        {
                          "internalType": "bytes32",
                          "name": "authority",
                          "type": "bytes32"
                        },
                        {
                          "components": [
                            {
                              "internalType": "address",
                              "name": "enforcer",
                              "type": "address"
                            },
                            {
                              "internalType": "bytes",
                              "name": "terms",
                              "type": "bytes"
                            }
                          ],
                          "internalType": "struct Caveat[]",
                          "name": "caveats",
                          "type": "tuple[]"
                        }
                      ],
                      "internalType": "struct Delegation",
                      "name": "delegation",
                      "type": "tuple"
                    },
                    {
                      "internalType": "bytes",
                      "name": "signature",
                      "type": "bytes"
                    }
                  ],
                  "internalType": "struct SignedDelegation[]",
                  "name": "authority",
                  "type": "tuple[]"
                }
              ],
              "internalType": "struct Invocation[]",
              "name": "batch",
              "type": "tuple[]"
            },
            {
              "components": [
                {
                  "internalType": "uint256",
                  "name": "nonce",
                  "type": "uint256"
                },
                {
                  "internalType": "uint256",
                  "name": "queue",
                  "type": "uint256"
                }
              ],
              "internalType": "struct ReplayProtection",
              "name": "replayProtection",
              "type": "tuple"
            }
          ],
          "internalType": "struct Invocations",
          "name": "invocations",
          "type": "tuple"
        }
      ],
      "name": "getInvocationsTypedDataHash",
      "outputs": [
        {
          "internalType": "bytes32",
          "name": "",
          "type": "bytes32"
        }
      ],
      "stateMutability": "view",
      "type": "function"
    },
    {
      "inputs": [
        {
          "components": [
            {
              "components": [
                {
                  "components": [
                    {
                      "components": [
                        {
                          "internalType": "address",
                          "name": "to",
                          "type": "address"
                        },
                        {
                          "internalType": "uint256",
                          "name": "gasLimit",
                          "type": "uint256"
                        },
                        {
                          "internalType": "bytes",
                          "name": "data",
                          "type": "bytes"
                        }
                      ],
                      "internalType": "struct Transaction",
                      "name": "transaction",
                      "type": "tuple"
                    },
                    {
                      "components": [
                        {
                          "components": [
                            {
                              "internalType": "address",
                              "name": "delegate",
                              "type": "address"
                            },
                            {
                              "internalType": "bytes32",
                              "name": "authority",
                              "type": "bytes32"
                            },
                            {
                              "components": [
                                {
                                  "internalType": "address",
                                  "name": "enforcer",
                                  "type": "address"
                                },
                                {
                                  "internalType": "bytes",
                                  "name": "terms",
                                  "type": "bytes"
                                }
                              ],
                              "internalType": "struct Caveat[]",
                              "name": "caveats",
                              "type": "tuple[]"
                            }
                          ],
                          "internalType": "struct Delegation",
                          "name": "delegation",
                          "type": "tuple"
                        },
                        {
                          "internalType": "bytes",
                          "name": "signature",
                          "type": "bytes"
                        }
                      ],
                      "internalType": "struct SignedDelegation[]",
                      "name": "authority",
                      "type": "tuple[]"
                    }
                  ],
                  "internalType": "struct Invocation[]",
                  "name": "batch",
                  "type": "tuple[]"
                },
                {
                  "components": [
                    {
                      "internalType": "uint256",
                      "name": "nonce",
                      "type": "uint256"
                    },
                    {
                      "internalType": "uint256",
                      "name": "queue",
                      "type": "uint256"
                    }
                  ],
                  "internalType": "struct ReplayProtection",
                  "name": "replayProtection",
                  "type": "tuple"
                }
              ],
              "internalType": "struct Invocations",
              "name": "invocations",
              "type": "tuple"
            },
            {
              "internalType": "bytes",
              "name": "signature",
              "type": "bytes"
            }
          ],
          "internalType": "struct SignedInvocation[]",
          "name": "signedInvocations",
          "type": "tuple[]"
        }
      ],
      "name": "invoke",
      "outputs": [
        {
          "internalType": "bool",
          "name": "success",
          "type": "bool"
        }
      ],
      "stateMutability": "nonpayable",
      "type": "function"
    },
    {
      "inputs": [
        {
          "internalType": "address",
          "name": "",
          "type": "address"
        },
        {
          "internalType": "uint256",
          "name": "",
          "type": "uint256"
        }
      ],
      "name": "multiNonce",
      "outputs": [
        {
          "internalType": "uint256",
          "name": "",
          "type": "uint256"
        }
      ],
      "stateMutability": "view",
      "type": "function"
    },
    {
      "inputs": [],
      "name": "owner",
      "outputs": [
        {
          "internalType": "address",
          "name": "",
          "type": "address"
        }
      ],
      "stateMutability": "view",
      "type": "function"
    },
    {
      "inputs": [],
      "name": "renounceOwnership",
      "outputs": [],
      "stateMutability": "nonpayable",
      "type": "function"
    },
    {
      "inputs": [
        {
          "components": [
            {
              "components": [
                {
                  "internalType": "address",
                  "name": "delegate",
                  "type": "address"
                },
                {
                  "internalType": "bytes32",
                  "name": "authority",
                  "type": "bytes32"
                },
                {
                  "components": [
                    {
                      "internalType": "address",
                      "name": "enforcer",
                      "type": "address"
                    },
                    {
                      "internalType": "bytes",
                      "name": "terms",
                      "type": "bytes"
                    }
                  ],
                  "internalType": "struct Caveat[]",
                  "name": "caveats",
                  "type": "tuple[]"
                }
              ],
              "internalType": "struct Delegation",
              "name": "delegation",
              "type": "tuple"
            },
            {
              "internalType": "bytes",
              "name": "signature",
              "type": "bytes"
            }
          ],
          "internalType": "struct SignedDelegation",
          "name": "signedDelegation",
          "type": "tuple"
        }
      ],
      "name": "revokeDelegation",
      "outputs": [],
      "stateMutability": "nonpayable",
      "type": "function"
    },
    {
      "inputs": [
        {
          "internalType": "address",
          "name": "newOwner",
          "type": "address"
        }
      ],
      "name": "transferOwnership",
      "outputs": [],
      "stateMutability": "nonpayable",
      "type": "function"
    },
    {
      "inputs": [
        {
          "components": [
            {
              "components": [
                {
                  "internalType": "address",
                  "name": "delegate",
                  "type": "address"
                },
                {
                  "internalType": "bytes32",
                  "name": "authority",
                  "type": "bytes32"
                },
                {
                  "components": [
                    {
                      "internalType": "address",
                      "name": "enforcer",
                      "type": "address"
                    },
                    {
                      "internalType": "bytes",
                      "name": "terms",
                      "type": "bytes"
                    }
                  ],
                  "internalType": "struct Caveat[]",
                  "name": "caveats",
                  "type": "tuple[]"
                }
              ],
              "internalType": "struct Delegation",
              "name": "delegation",
              "type": "tuple"
            },
            {
              "internalType": "bytes",
              "name": "signature",
              "type": "bytes"
            }
          ],
          "internalType": "struct SignedDelegation",
          "name": "signedDelegation",
          "type": "tuple"
        }
      ],
      "name": "verifyDelegationSignature",
      "outputs": [
        {
          "internalType": "address",
          "name": "",
          "type": "address"
        }
      ],
      "stateMutability": "view",
      "type": "function"
    },
    {
      "inputs": [
        {
          "components": [
            {
              "components": [
                {
                  "components": [
                    {
                      "components": [
                        {
                          "internalType": "address",
                          "name": "to",
                          "type": "address"
                        },
                        {
                          "internalType": "uint256",
                          "name": "gasLimit",
                          "type": "uint256"
                        },
                        {
                          "internalType": "bytes",
                          "name": "data",
                          "type": "bytes"
                        }
                      ],
                      "internalType": "struct Transaction",
                      "name": "transaction",
                      "type": "tuple"
                    },
                    {
                      "components": [
                        {
                          "components": [
                            {
                              "internalType": "address",
                              "name": "delegate",
                              "type": "address"
                            },
                            {
                              "internalType": "bytes32",
                              "name": "authority",
                              "type": "bytes32"
                            },
                            {
                              "components": [
                                {
                                  "internalType": "address",
                                  "name": "enforcer",
                                  "type": "address"
                                },
                                {
                                  "internalType": "bytes",
                                  "name": "terms",
                                  "type": "bytes"
                                }
                              ],
                              "internalType": "struct Caveat[]",
                              "name": "caveats",
                              "type": "tuple[]"
                            }
                          ],
                          "internalType": "struct Delegation",
                          "name": "delegation",
                          "type": "tuple"
                        },
                        {
                          "internalType": "bytes",
                          "name": "signature",
                          "type": "bytes"
                        }
                      ],
                      "internalType": "struct SignedDelegation[]",
                      "name": "authority",
                      "type": "tuple[]"
                    }
                  ],
                  "internalType": "struct Invocation[]",
                  "name": "batch",
                  "type": "tuple[]"
                },
                {
                  "components": [
                    {
                      "internalType": "uint256",
                      "name": "nonce",
                      "type": "uint256"
                    },
                    {
                      "internalType": "uint256",
                      "name": "queue",
                      "type": "uint256"
                    }
                  ],
                  "internalType": "struct ReplayProtection",
                  "name": "replayProtection",
                  "type": "tuple"
                }
              ],
              "internalType": "struct Invocations",
              "name": "invocations",
              "type": "tuple"
            },
            {
              "internalType": "bytes",
              "name": "signature",
              "type": "bytes"
            }
          ],
          "internalType": "struct SignedInvocation",
          "name": "signedInvocation",
          "type": "tuple"
        }
      ],
      "name": "verifyInvocationSignature",
      "outputs": [
        {
          "internalType": "address",
          "name": "",
          "type": "address"
        }
      ],
      "stateMutability": "view",
      "type": "function"
    }
  ],
  "bytecode": "0x60a06040523480156200001157600080fd5b5060405162002598380380620025988339810160408190526200003491620001ab565b8080604051806040016040528060018152602001603160f81b8152506200006a62000064620000e760201b60201c565b62000145565b8151602080840191909120825182840120604080517f8b73c3c69bb8fe3d512ecc4cf759cc79239f7b179b0ffacaa9a75d522b39400f818601528082019390935260608301919091524660808301523060a0808401919091528151808403909101815260c090920190528051910120608052506200028792505050565b60003033036200013f57600080368080601f0160208091040260200160405190810160405280939291908181526020018383808284376000920191909152505050503601516001600160a01b03169150620001429050565b50335b90565b600080546001600160a01b038381166001600160a01b0319831681178455604051919092169283917f8be0079c531659141344cd1fd0a4f28419497f9722a3daafe3b4186f6b6457e09190a35050565b634e487b7160e01b600052604160045260246000fd5b60006020808385031215620001bf57600080fd5b82516001600160401b0380821115620001d757600080fd5b818501915085601f830112620001ec57600080fd5b81518181111562000201576200020162000195565b604051601f8201601f19908116603f011681019083821181831017156200022c576200022c62000195565b8160405282815288868487010111156200024557600080fd5b600093505b828410156200026957848401860151818501870152928501926200024a565b828411156200027b5760008684830101525b98975050505050505050565b6080516122e7620002b16000396000818161044d015281816107920152610a9e01526122e76000f3fe608060405234801561001057600080fd5b50600436106101a95760003560e01c80637234eefe116100f9578063a2e01f7511610097578063caced6c511610071578063caced6c5146103ab578063d327c1eb146103be578063dfe86ac514610448578063f2fde38b1461046f57600080fd5b8063a2e01f7514610372578063bb5af5bd14610385578063c2133ccf1461039857600080fd5b80638a04499e116100d35780638a04499e146103105780638da5cb5b1461033b57806397182ed61461034c57806398bc186a1461035f57600080fd5b80637234eefe146102d7578063736f7ce7146102ea5780637b577b58146102fd57600080fd5b80635c6d9f0c116101665780636b6dc9de116101405780636b6dc9de146102945780636c2b1253146102a95780636f965803146102bc578063715018a6146102cf57600080fd5b80635c6d9f0c1461025b5780635cf1b24a1461026e57806360b6d7681461028157600080fd5b80630162f722146101ae57806308aaf6b0146101ec5780632f52a2fd146101ff5780632fad7efc146102125780633a481821146102355780635068de4c14610248575b600080fd5b6101d96101bc366004611460565b600160209081526000928352604080842090915290825290205481565b6040519081526020015b60405180910390f35b6101d96101fa366004611603565b610482565b6101d961020d36600461174b565b610502565b6102256102203660046117ca565b61056d565b60405190151581526020016101e3565b6101d9610243366004611a23565b610634565b610225610256366004611a98565b6106ab565b6102256102693660046117ca565b61071a565b6101d961027c366004611b0d565b610730565b6101d961028f366004611bca565b61078d565b6102a76102a2366004611c0c565b6107dd565b005b6101d96102b7366004611c62565b61085e565b6101d96102ca366004611c96565b6108bb565b6102a761090c565b6101d96102e5366004611bca565b610961565b6101d96102f8366004611cb2565b61099f565b6101d961030b366004611ce6565b610a07565b61032361031e366004611c62565b610a6f565b6040516001600160a01b0390911681526020016101e3565b6000546001600160a01b0316610323565b6101d961035a36600461174b565b610a99565b6101d961036d366004611d1a565b610ac6565b6101d9610380366004611dc5565b610b12565b6101d9610393366004611e38565b610b7e565b6102a76103a6366004611e6c565b610baf565b6103236103b9366004611e38565b610c69565b6101d96103cc366004611ead565b8351602094850120835193850193909320604080517f8b73c3c69bb8fe3d512ecc4cf759cc79239f7b179b0ffacaa9a75d522b39400f8188015280820195909552606085019190915260808401929092526001600160a01b031660a0808401919091528151808403909101815260c09092019052805191012090565b6101d97f000000000000000000000000000000000000000000000000000000000000000081565b6102a761047d366004611f2a565b610c93565b6000807f80ad7e1b04ee6d994a125f4714ca0720908bd80ed16063ec8aee4b88e9253e2d83600001518460200151805190602001206040516020016104e3939291909283526001600160a01b03919091166020830152604082015260600190565b60408051601f1981840301815291905280516020909101209392505050565b6000807f409f5114779a253e700d775d7845e6efc1e83685ac59868d2df3d4de51c7d6218360000151846020015161053d8660400151610a07565b6040805160208101959095526001600160a01b03909316928401929092526060830152608082015260a0016104e3565b6000805b8281101561062d573684848381811061058c5761058c611f45565b905060200281019061059e9190611f5b565b905060006105ae6103b983611f7b565b90506105fa818787868181106105c6576105c6611f45565b90506020028101906105d89190611f5b565b6105e29080611f87565b6020018036038101906105f59190611c96565b610d4d565b6106176106078380611f87565b6106119080611f9d565b83610e3c565b505050808061062590611ffc565b915050610571565b5092915050565b6000606060005b835181101561069c578161066785838151811061065a5761065a611f45565b6020026020010151610730565b604051602001610678929190612041565b6040516020818303038152906040529150808061069490611ffc565b91505061063b565b50805160209091012092915050565b60008181526002602052604081205460ff161561070f5760405162461bcd60e51b815260206004820152601b60248201527f44656c65676174696f6e20686173206265656e207265766f6b6564000000000060448201526064015b60405180910390fd5b506001949350505050565b6000610727838333610e3c565b90505b92915050565b6000807fd97dd99b404d177890f06a8f0fc8e5ed0333fb2ebb6684360709066e8984f5946107618460000151610b12565b61076e856020015161099f565b60408051602081019490945283019190915260608201526080016104e3565b6000807f00000000000000000000000000000000000000000000000000000000000000006107ba84610961565b60405161190160f01b6020820152602281019290925260428201526062016104e3565b6107e5611212565b6001600160a01b03166108006000546001600160a01b031690565b6001600160a01b0316146108265760405162461bcd60e51b815260040161070690612063565b8060038484604051610839929190612098565b908152604051908190036020019020805491151560ff19909216919091179055505050565b6000807f3c36a06e1d288b0f94f565588317a46ad11bc3c96992109f9a2365a2737259a761088f8460000151610502565b6020808601518051908201206040516104e3949392019283526020830191909152604082015260600190565b6000807fe8d3d963b33868fb116316bc3fd55e8f49123f30e4418f71e140d54b7cd3b2b9836000015184602001516040516020016104e3939291909283526020830191909152604082015260600190565b610914611212565b6001600160a01b031661092f6000546001600160a01b031690565b6001600160a01b0316146109555760405162461bcd60e51b815260040161070690612063565b61095f600061126e565b565b6000807f08c69a206c06f5334b35ceb1186181a713b21aff02cf66285f375084fbef2eb86109928460000151610634565b61076e85602001516108bb565b6000606060005b835181101561069c57816109d28583815181106109c5576109c5611f45565b602002602001015161085e565b6040516020016109e3929190612041565b604051602081830303815290604052915080806109ff90611ffc565b9150506109a6565b6000606060005b835181101561069c5781610a3a858381518110610a2d57610a2d611f45565b6020026020010151610482565b604051602001610a4b929190612041565b60405160208183030381529060405291508080610a6790611ffc565b915050610a0e565b805160009081610a7e82610a99565b90506000610a908286602001516112be565b95945050505050565b6000807f00000000000000000000000000000000000000000000000000000000000000006107ba84610502565b6000807f8b73c3c69bb8fe3d512ecc4cf759cc79239f7b179b0ffacaa9a75d522b39400f83600001518460200151856040015186606001516040516020016104e39594939291906120d4565b6000807fb16dfdb3b8fa033fe30ac976cd4a50ad256b6811c80d90fcd0b323eec190047d836000015184602001518560400151805190602001206040516020016104e394939291909384526001600160a01b039290921660208401526040830152606082015260800190565b6000807fc32b6dfe0f988d1f2b13248cddd88e320ff0ae86e3ccfe38bab77a80f4477d4461088f8460000151610961565b6000610bbd61031e83612122565b90506000610bc9611212565b9050806001600160a01b0316826001600160a01b031614610c3c5760405162461bcd60e51b815260206004820152602760248201527f4f6e6c7920746865207369676e65722063616e207265766f6b6520612064656c60448201526632b3b0ba34b7b760c91b6064820152608401610706565b6000610c4a6102b785612122565b6000908152600260205260409020805460ff1916600117905550505050565b600080610c79836000015161078d565b90506000610c8b8285602001516112be565b949350505050565b610c9b611212565b6001600160a01b0316610cb66000546001600160a01b031690565b6001600160a01b031614610cdc5760405162461bcd60e51b815260040161070690612063565b6001600160a01b038116610d415760405162461bcd60e51b815260206004820152602660248201527f4f776e61626c653a206e6577206f776e657220697320746865207a65726f206160448201526564647265737360d01b6064820152608401610706565b610d4a8161126e565b50565b60208082015182516040805160608101909152603180825292939192610d7c9261228190830139858484611395565b6001600160a01b038416600090815260016020818152604080842086855290915290912054610daa9161212e565b8114610e125760405162461bcd60e51b815260206004820152603160248201527f4f6e652d61742d612d74696d65206f7264657220656e666f726365642e204e6f6044820152701b98d94c881a5cc81d1bdbc81cdb585b1b607a1b6064820152608401610706565b6001600160a01b039093166000908152600160209081526040808320938352929052209190915550565b6000805b8381101561120a576000858583818110610e5c57610e5c611f45565b9050602002810190610e6e9190611f5b565b610e7790612146565b9050600080826020015151600003610e8f5750849050805b6000805b84602001515181101561112f57600085602001518281518110610eb857610eb8611f45565b602002602001015190506000610ecd82610a6f565b905082600003610ede578095508594505b846001600160a01b0316816001600160a01b031614610f585760405162461bcd60e51b815260206004820152603060248201527f44656c65676174696f6e207369676e657220646f6573206e6f74206d6174636860448201526f103932b8bab4b932b21039b4b3b732b960811b6064820152608401610706565b815160208101518514610fd35760405162461bcd60e51b815260206004820152603760248201527f44656c65676174696f6e20617574686f7269747920646f6573206e6f74206d6160448201527f7463682070726576696f75732064656c65676174696f6e0000000000000000006064820152608401610706565b6000610fde8461085e565b905060005b8260400151518161ffff16101561111257600083604001518261ffff168151811061101057611010611f45565b60200260200101516000015190506000816001600160a01b0316635068de4c86604001518561ffff168151811061104957611049611f45565b6020026020010151602001518e60000151876040518463ffffffff1660e01b815260040161107993929190612152565b6020604051808303816000875af1158015611098573d6000803e3d6000fd5b505050506040513d601f19601f820116820180604052508101906110bc91906121ae565b9050806110fd5760405162461bcd60e51b815260206004820152600f60248201526e10d85d99585d081c995a9958dd1959608a1b6044820152606401610706565b5050808061110a906121cb565b915050610fe3565b50905195509350829150611127905081611ffc565b915050610e93565b50835180516001600160a01b0316301461118b5760405162461bcd60e51b815260206004820181905260248201527f496e766f636174696f6e2074617267657420646f6573206e6f74206d617463686044820152606401610706565b6111a3816000015182604001518360200151876113e4565b9650866111f25760405162461bcd60e51b815260206004820152601a60248201527f44656c656761746f7220657865637574696f6e206661696c65640000000000006044820152606401610706565b5050505050808061120290611ffc565b915050610e40565b509392505050565b600030330361126857600080368080601f0160208091040260200160405190810160405280939291908181526020018383808284376000920191909152505050503601516001600160a01b0316915061126b9050565b50335b90565b600080546001600160a01b038381166001600160a01b0319831681178455604051919092169283917f8be0079c531659141344cd1fd0a4f28419497f9722a3daafe3b4186f6b6457e09190a35050565b60008060008084516041146112d9576000935050505061072a565b50505060208201516040830151606084015160001a601b81101561130557611302601b826121ec565b90505b8060ff16601b1415801561131d57508060ff16601c14155b1561132e576000935050505061072a565b60408051600081526020810180835288905260ff831691810191909152606081018490526080810183905260019060a0016020604051602081039080840390855afa158015611381573d6000803e3d6000fd5b50505060206040510351935050505061072a565b6113de848484846040516024016113af9493929190612211565b60408051601f198184030181529190526020810180516001600160e01b031663daa394bd60e01b179052611423565b50505050565b60008084836040516020016113fa929190612249565b604051602081830303815290604052905060008082516020840160008a89f19695505050505050565b80516a636f6e736f6c652e6c6f67602083016000808483855afa5050505050565b80356001600160a01b038116811461145b57600080fd5b919050565b6000806040838503121561147357600080fd5b61147c83611444565b946020939093013593505050565b634e487b7160e01b600052604160045260246000fd5b604080519081016001600160401b03811182821017156114c2576114c261148a565b60405290565b604051606081016001600160401b03811182821017156114c2576114c261148a565b604051608081016001600160401b03811182821017156114c2576114c261148a565b604051601f8201601f191681016001600160401b03811182821017156115345761153461148a565b604052919050565b600082601f83011261154d57600080fd5b81356001600160401b038111156115665761156661148a565b611579601f8201601f191660200161150c565b81815284602083860101111561158e57600080fd5b816020850160208301376000918101602001919091529392505050565b6000604082840312156115bd57600080fd5b6115c56114a0565b90506115d082611444565b815260208201356001600160401b038111156115eb57600080fd5b6115f78482850161153c565b60208301525092915050565b60006020828403121561161557600080fd5b81356001600160401b0381111561162b57600080fd5b610c8b848285016115ab565b60006001600160401b038211156116505761165061148a565b5060051b60200190565b600082601f83011261166b57600080fd5b8135602061168061167b83611637565b61150c565b82815260059290921b8401810191818101908684111561169f57600080fd5b8286015b848110156116de5780356001600160401b038111156116c25760008081fd5b6116d08986838b01016115ab565b8452509183019183016116a3565b509695505050505050565b6000606082840312156116fb57600080fd5b6117036114c8565b905061170e82611444565b81526020820135602082015260408201356001600160401b0381111561173357600080fd5b61173f8482850161165a565b60408301525092915050565b60006020828403121561175d57600080fd5b81356001600160401b0381111561177357600080fd5b610c8b848285016116e9565b60008083601f84011261179157600080fd5b5081356001600160401b038111156117a857600080fd5b6020830191508360208260051b85010111156117c357600080fd5b9250929050565b600080602083850312156117dd57600080fd5b82356001600160401b038111156117f357600080fd5b6117ff8582860161177f565b90969095509350505050565b60006060828403121561181d57600080fd5b6118256114c8565b905061183082611444565b81526020820135602082015260408201356001600160401b0381111561185557600080fd5b61173f8482850161153c565b60006040828403121561187357600080fd5b61187b6114a0565b905081356001600160401b038082111561189457600080fd5b6118a0858386016116e9565b835260208401359150808211156118b657600080fd5b506115f78482850161153c565b600082601f8301126118d457600080fd5b813560206118e461167b83611637565b82815260059290921b8401810191818101908684111561190357600080fd5b8286015b848110156116de5780356001600160401b038111156119265760008081fd5b6119348986838b0101611861565b845250918301918301611907565b60006040828403121561195457600080fd5b61195c6114a0565b905081356001600160401b038082111561197557600080fd5b6119818583860161180b565b8352602084013591508082111561199757600080fd5b506115f7848285016118c3565b600082601f8301126119b557600080fd5b813560206119c561167b83611637565b82815260059290921b840181019181810190868411156119e457600080fd5b8286015b848110156116de5780356001600160401b03811115611a075760008081fd5b611a158986838b0101611942565b8452509183019183016119e8565b600060208284031215611a3557600080fd5b81356001600160401b03811115611a4b57600080fd5b610c8b848285016119a4565b60008083601f840112611a6957600080fd5b5081356001600160401b03811115611a8057600080fd5b6020830191508360208285010111156117c357600080fd5b60008060008060608587031215611aae57600080fd5b84356001600160401b0380821115611ac557600080fd5b611ad188838901611a57565b90965094506020870135915080821115611aea57600080fd5b50850160608188031215611afd57600080fd5b9396929550929360400135925050565b600060208284031215611b1f57600080fd5b81356001600160401b03811115611b3557600080fd5b610c8b84828501611942565b600060408284031215611b5357600080fd5b611b5b6114a0565b9050813581526020820135602082015292915050565b600060608284031215611b8357600080fd5b611b8b6114a0565b905081356001600160401b03811115611ba357600080fd5b611baf848285016119a4565b825250611bbf8360208401611b41565b602082015292915050565b600060208284031215611bdc57600080fd5b81356001600160401b03811115611bf257600080fd5b610c8b84828501611b71565b8015158114610d4a57600080fd5b600080600060408486031215611c2157600080fd5b83356001600160401b03811115611c3757600080fd5b611c4386828701611a57565b9094509250506020840135611c5781611bfe565b809150509250925092565b600060208284031215611c7457600080fd5b81356001600160401b03811115611c8a57600080fd5b610c8b84828501611861565b600060408284031215611ca857600080fd5b6107278383611b41565b600060208284031215611cc457600080fd5b81356001600160401b03811115611cda57600080fd5b610c8b848285016118c3565b600060208284031215611cf857600080fd5b81356001600160401b03811115611d0e57600080fd5b610c8b8482850161165a565b600060208284031215611d2c57600080fd5b81356001600160401b0380821115611d4357600080fd5b9083019060808286031215611d5757600080fd5b611d5f6114ea565b823582811115611d6e57600080fd5b611d7a8782860161153c565b825250602083013582811115611d8f57600080fd5b611d9b8782860161153c565b60208301525060408301356040820152611db760608401611444565b606082015295945050505050565b600060208284031215611dd757600080fd5b81356001600160401b03811115611ded57600080fd5b610c8b8482850161180b565b600060408284031215611e0b57600080fd5b611e136114a0565b905081356001600160401b0380821115611e2c57600080fd5b6118a085838601611b71565b600060208284031215611e4a57600080fd5b81356001600160401b03811115611e6057600080fd5b610c8b84828501611df9565b600060208284031215611e7e57600080fd5b81356001600160401b03811115611e9457600080fd5b820160408185031215611ea657600080fd5b9392505050565b60008060008060808587031215611ec357600080fd5b84356001600160401b0380821115611eda57600080fd5b611ee68883890161153c565b95506020870135915080821115611efc57600080fd5b50611f098782880161153c565b93505060408501359150611f1f60608601611444565b905092959194509250565b600060208284031215611f3c57600080fd5b61072782611444565b634e487b7160e01b600052603260045260246000fd5b60008235603e19833603018112611f7157600080fd5b9190910192915050565b600061072a3683611df9565b60008235605e19833603018112611f7157600080fd5b6000808335601e19843603018112611fb457600080fd5b8301803591506001600160401b03821115611fce57600080fd5b6020019150600581901b36038213156117c357600080fd5b634e487b7160e01b600052601160045260246000fd5b60006001820161200e5761200e611fe6565b5060010190565b60005b83811015612030578181015183820152602001612018565b838111156113de5750506000910152565b60008351612053818460208801612015565b9190910191825250602001919050565b6020808252818101527f4f776e61626c653a2063616c6c6572206973206e6f7420746865206f776e6572604082015260600190565b8183823760009101908152919050565b600081518084526120c0816020860160208601612015565b601f01601f19169290920160200192915050565b85815260a0602082015260006120ed60a08301876120a8565b82810360408401526120ff81876120a8565b606084019590955250506001600160a01b03919091166080909101529392505050565b600061072a3683611861565b6000821982111561214157612141611fe6565b500190565b600061072a3683611942565b60608152600061216560608301866120a8565b828103602084015260018060a01b0385511681526020850151602082015260408501516060604083015261219c60608301826120a8565b92505050826040830152949350505050565b6000602082840312156121c057600080fd5b8151611ea681611bfe565b600061ffff8083168181036121e2576121e2611fe6565b6001019392505050565b600060ff821660ff84168060ff0382111561220957612209611fe6565b019392505050565b60808152600061222460808301876120a8565b6001600160a01b03959095166020830152506040810192909252606090910152919050565b6000835161225b818460208801612015565b60609390931b6bffffffffffffffffffffffff1916919092019081526014019291505056fe53656e64657220257320697320747279696e6720746f207573652071756575652025732077697468206e6f6e6365202573a264697066735822122042dc12ec3cfa1b4e367dc969f2141d09b0fc9ae7a7cb15f31e158bc16cbf7a9064736f6c634300080d0033",
  "linkReferences": {},
  "deployedLinkReferences": {}
}