{
  "_format": "hh-sol-artifact-1",
  "contractName": "PhisherRegistry",
  "sourceName": "contracts/PhisherRegistry.sol",
  "abi": [
    {
      "inputs": [
        {
          "internalType": "string",
          "name": "name",
          "type": "string"
        }
      ],
      "stateMutability": "nonpayable",
      "type": "constructor"
    },
    {
      "anonymous": false,
      "inputs": [
        {
          "indexed": false,
          "internalType": "address",
          "name": "principal",
          "type": "address"
        },
        {
          "indexed": true,
          "internalType": "address",
          "name": "agent",
          "type": "address"
        }
      ],
      "name": "DelegationTriggered",
      "type": "event"
    },
    {
      "anonymous": false,
      "inputs": [
        {
          "indexed": true,
          "internalType": "string",
          "name": "entity",
          "type": "string"
        },
        {
          "indexed": false,
          "internalType": "bool",
          "name": "isMember",
          "type": "bool"
        }
      ],
      "name": "MemberStatusUpdated",
      "type": "event"
    },
    {
      "anonymous": false,
      "inputs": [
        {
          "indexed": true,
          "internalType": "address",
          "name": "previousOwner",
          "type": "address"
        },
        {
          "indexed": true,
          "internalType": "address",
          "name": "newOwner",
          "type": "address"
        }
      ],
      "name": "OwnershipTransferred",
      "type": "event"
    },
    {
      "anonymous": false,
      "inputs": [
        {
          "indexed": true,
          "internalType": "string",
          "name": "entity",
          "type": "string"
        },
        {
          "indexed": false,
          "internalType": "bool",
          "name": "isPhisher",
          "type": "bool"
        }
      ],
      "name": "PhisherStatusUpdated",
      "type": "event"
    },
    {
      "inputs": [
        {
          "components": [
            {
              "internalType": "address",
              "name": "enforcer",
              "type": "address"
            },
            {
              "internalType": "bytes",
              "name": "terms",
              "type": "bytes"
            }
          ],
          "internalType": "struct Caveat[]",
          "name": "_input",
          "type": "tuple[]"
        }
      ],
      "name": "GET_CAVEAT_ARRAY_PACKETHASH",
      "outputs": [
        {
          "internalType": "bytes32",
          "name": "",
          "type": "bytes32"
        }
      ],
      "stateMutability": "pure",
      "type": "function"
    },
    {
      "inputs": [
        {
          "components": [
            {
              "internalType": "address",
              "name": "enforcer",
              "type": "address"
            },
            {
              "internalType": "bytes",
              "name": "terms",
              "type": "bytes"
            }
          ],
          "internalType": "struct Caveat",
          "name": "_input",
          "type": "tuple"
        }
      ],
      "name": "GET_CAVEAT_PACKETHASH",
      "outputs": [
        {
          "internalType": "bytes32",
          "name": "",
          "type": "bytes32"
        }
      ],
      "stateMutability": "pure",
      "type": "function"
    },
    {
      "inputs": [
        {
          "components": [
            {
              "internalType": "address",
              "name": "delegate",
              "type": "address"
            },
            {
              "internalType": "bytes32",
              "name": "authority",
              "type": "bytes32"
            },
            {
              "components": [
                {
                  "internalType": "address",
                  "name": "enforcer",
                  "type": "address"
                },
                {
                  "internalType": "bytes",
                  "name": "terms",
                  "type": "bytes"
                }
              ],
              "internalType": "struct Caveat[]",
              "name": "caveats",
              "type": "tuple[]"
            }
          ],
          "internalType": "struct Delegation",
          "name": "_input",
          "type": "tuple"
        }
      ],
      "name": "GET_DELEGATION_PACKETHASH",
      "outputs": [
        {
          "internalType": "bytes32",
          "name": "",
          "type": "bytes32"
        }
      ],
      "stateMutability": "pure",
      "type": "function"
    },
    {
      "inputs": [
        {
          "components": [
            {
              "internalType": "string",
              "name": "name",
              "type": "string"
            },
            {
              "internalType": "string",
              "name": "version",
              "type": "string"
            },
            {
              "internalType": "uint256",
              "name": "chainId",
              "type": "uint256"
            },
            {
              "internalType": "address",
              "name": "verifyingContract",
              "type": "address"
            }
          ],
          "internalType": "struct EIP712Domain",
          "name": "_input",
          "type": "tuple"
        }
      ],
      "name": "GET_EIP712DOMAIN_PACKETHASH",
      "outputs": [
        {
          "internalType": "bytes32",
          "name": "",
          "type": "bytes32"
        }
      ],
      "stateMutability": "pure",
      "type": "function"
    },
    {
      "inputs": [
        {
          "components": [
            {
              "internalType": "bytes32",
              "name": "delegationHash",
              "type": "bytes32"
            }
          ],
          "internalType": "struct IntentionToRevoke",
          "name": "_input",
          "type": "tuple"
        }
      ],
      "name": "GET_INTENTIONTOREVOKE_PACKETHASH",
      "outputs": [
        {
          "internalType": "bytes32",
          "name": "",
          "type": "bytes32"
        }
      ],
      "stateMutability": "pure",
      "type": "function"
    },
    {
      "inputs": [
        {
          "components": [
            {
              "components": [
                {
                  "components": [
                    {
                      "internalType": "address",
                      "name": "to",
                      "type": "address"
                    },
                    {
                      "internalType": "uint256",
                      "name": "gasLimit",
                      "type": "uint256"
                    },
                    {
                      "internalType": "bytes",
                      "name": "data",
                      "type": "bytes"
                    }
                  ],
                  "internalType": "struct Transaction",
                  "name": "transaction",
                  "type": "tuple"
                },
                {
                  "components": [
                    {
                      "components": [
                        {
                          "internalType": "address",
                          "name": "delegate",
                          "type": "address"
                        },
                        {
                          "internalType": "bytes32",
                          "name": "authority",
                          "type": "bytes32"
                        },
                        {
                          "components": [
                            {
                              "internalType": "address",
                              "name": "enforcer",
                              "type": "address"
                            },
                            {
                              "internalType": "bytes",
                              "name": "terms",
                              "type": "bytes"
                            }
                          ],
                          "internalType": "struct Caveat[]",
                          "name": "caveats",
                          "type": "tuple[]"
                        }
                      ],
                      "internalType": "struct Delegation",
                      "name": "delegation",
                      "type": "tuple"
                    },
                    {
                      "internalType": "bytes",
                      "name": "signature",
                      "type": "bytes"
                    }
                  ],
                  "internalType": "struct SignedDelegation[]",
                  "name": "authority",
                  "type": "tuple[]"
                }
              ],
              "internalType": "struct Invocation[]",
              "name": "batch",
              "type": "tuple[]"
            },
            {
              "components": [
                {
                  "internalType": "uint256",
                  "name": "nonce",
                  "type": "uint256"
                },
                {
                  "internalType": "uint256",
                  "name": "queue",
                  "type": "uint256"
                }
              ],
              "internalType": "struct ReplayProtection",
              "name": "replayProtection",
              "type": "tuple"
            }
          ],
          "internalType": "struct Invocations",
          "name": "_input",
          "type": "tuple"
        }
      ],
      "name": "GET_INVOCATIONS_PACKETHASH",
      "outputs": [
        {
          "internalType": "bytes32",
          "name": "",
          "type": "bytes32"
        }
      ],
      "stateMutability": "pure",
      "type": "function"
    },
    {
      "inputs": [
        {
          "components": [
            {
              "components": [
                {
                  "internalType": "address",
                  "name": "to",
                  "type": "address"
                },
                {
                  "internalType": "uint256",
                  "name": "gasLimit",
                  "type": "uint256"
                },
                {
                  "internalType": "bytes",
                  "name": "data",
                  "type": "bytes"
                }
              ],
              "internalType": "struct Transaction",
              "name": "transaction",
              "type": "tuple"
            },
            {
              "components": [
                {
                  "components": [
                    {
                      "internalType": "address",
                      "name": "delegate",
                      "type": "address"
                    },
                    {
                      "internalType": "bytes32",
                      "name": "authority",
                      "type": "bytes32"
                    },
                    {
                      "components": [
                        {
                          "internalType": "address",
                          "name": "enforcer",
                          "type": "address"
                        },
                        {
                          "internalType": "bytes",
                          "name": "terms",
                          "type": "bytes"
                        }
                      ],
                      "internalType": "struct Caveat[]",
                      "name": "caveats",
                      "type": "tuple[]"
                    }
                  ],
                  "internalType": "struct Delegation",
                  "name": "delegation",
                  "type": "tuple"
                },
                {
                  "internalType": "bytes",
                  "name": "signature",
                  "type": "bytes"
                }
              ],
              "internalType": "struct SignedDelegation[]",
              "name": "authority",
              "type": "tuple[]"
            }
          ],
          "internalType": "struct Invocation[]",
          "name": "_input",
          "type": "tuple[]"
        }
      ],
      "name": "GET_INVOCATION_ARRAY_PACKETHASH",
      "outputs": [
        {
          "internalType": "bytes32",
          "name": "",
          "type": "bytes32"
        }
      ],
      "stateMutability": "pure",
      "type": "function"
    },
    {
      "inputs": [
        {
          "components": [
            {
              "components": [
                {
                  "internalType": "address",
                  "name": "to",
                  "type": "address"
                },
                {
                  "internalType": "uint256",
                  "name": "gasLimit",
                  "type": "uint256"
                },
                {
                  "internalType": "bytes",
                  "name": "data",
                  "type": "bytes"
                }
              ],
              "internalType": "struct Transaction",
              "name": "transaction",
              "type": "tuple"
            },
            {
              "components": [
                {
                  "components": [
                    {
                      "internalType": "address",
                      "name": "delegate",
                      "type": "address"
                    },
                    {
                      "internalType": "bytes32",
                      "name": "authority",
                      "type": "bytes32"
                    },
                    {
                      "components": [
                        {
                          "internalType": "address",
                          "name": "enforcer",
                          "type": "address"
                        },
                        {
                          "internalType": "bytes",
                          "name": "terms",
                          "type": "bytes"
                        }
                      ],
                      "internalType": "struct Caveat[]",
                      "name": "caveats",
                      "type": "tuple[]"
                    }
                  ],
                  "internalType": "struct Delegation",
                  "name": "delegation",
                  "type": "tuple"
                },
                {
                  "internalType": "bytes",
                  "name": "signature",
                  "type": "bytes"
                }
              ],
              "internalType": "struct SignedDelegation[]",
              "name": "authority",
              "type": "tuple[]"
            }
          ],
          "internalType": "struct Invocation",
          "name": "_input",
          "type": "tuple"
        }
      ],
      "name": "GET_INVOCATION_PACKETHASH",
      "outputs": [
        {
          "internalType": "bytes32",
          "name": "",
          "type": "bytes32"
        }
      ],
      "stateMutability": "pure",
      "type": "function"
    },
    {
      "inputs": [
        {
          "components": [
            {
              "internalType": "uint256",
              "name": "nonce",
              "type": "uint256"
            },
            {
              "internalType": "uint256",
              "name": "queue",
              "type": "uint256"
            }
          ],
          "internalType": "struct ReplayProtection",
          "name": "_input",
          "type": "tuple"
        }
      ],
      "name": "GET_REPLAYPROTECTION_PACKETHASH",
      "outputs": [
        {
          "internalType": "bytes32",
          "name": "",
          "type": "bytes32"
        }
      ],
      "stateMutability": "pure",
      "type": "function"
    },
    {
      "inputs": [
        {
          "components": [
            {
              "components": [
                {
                  "internalType": "address",
                  "name": "delegate",
                  "type": "address"
                },
                {
                  "internalType": "bytes32",
                  "name": "authority",
                  "type": "bytes32"
                },
                {
                  "components": [
                    {
                      "internalType": "address",
                      "name": "enforcer",
                      "type": "address"
                    },
                    {
                      "internalType": "bytes",
                      "name": "terms",
                      "type": "bytes"
                    }
                  ],
                  "internalType": "struct Caveat[]",
                  "name": "caveats",
                  "type": "tuple[]"
                }
              ],
              "internalType": "struct Delegation",
              "name": "delegation",
              "type": "tuple"
            },
            {
              "internalType": "bytes",
              "name": "signature",
              "type": "bytes"
            }
          ],
          "internalType": "struct SignedDelegation[]",
          "name": "_input",
          "type": "tuple[]"
        }
      ],
      "name": "GET_SIGNEDDELEGATION_ARRAY_PACKETHASH",
      "outputs": [
        {
          "internalType": "bytes32",
          "name": "",
          "type": "bytes32"
        }
      ],
      "stateMutability": "pure",
      "type": "function"
    },
    {
      "inputs": [
        {
          "components": [
            {
              "components": [
                {
                  "internalType": "address",
                  "name": "delegate",
                  "type": "address"
                },
                {
                  "internalType": "bytes32",
                  "name": "authority",
                  "type": "bytes32"
                },
                {
                  "components": [
                    {
                      "internalType": "address",
                      "name": "enforcer",
                      "type": "address"
                    },
                    {
                      "internalType": "bytes",
                      "name": "terms",
                      "type": "bytes"
                    }
                  ],
                  "internalType": "struct Caveat[]",
                  "name": "caveats",
                  "type": "tuple[]"
                }
              ],
              "internalType": "struct Delegation",
              "name": "delegation",
              "type": "tuple"
            },
            {
              "internalType": "bytes",
              "name": "signature",
              "type": "bytes"
            }
          ],
          "internalType": "struct SignedDelegation",
          "name": "_input",
          "type": "tuple"
        }
      ],
      "name": "GET_SIGNEDDELEGATION_PACKETHASH",
      "outputs": [
        {
          "internalType": "bytes32",
          "name": "",
          "type": "bytes32"
        }
      ],
      "stateMutability": "pure",
      "type": "function"
    },
    {
      "inputs": [
        {
          "components": [
            {
              "internalType": "bytes",
              "name": "signature",
              "type": "bytes"
            },
            {
              "components": [
                {
                  "internalType": "bytes32",
                  "name": "delegationHash",
                  "type": "bytes32"
                }
              ],
              "internalType": "struct IntentionToRevoke",
              "name": "intentionToRevoke",
              "type": "tuple"
            }
          ],
          "internalType": "struct SignedIntentionToRevoke",
          "name": "_input",
          "type": "tuple"
        }
      ],
      "name": "GET_SIGNEDINTENTIONTOREVOKE_PACKETHASH",
      "outputs": [
        {
          "internalType": "bytes32",
          "name": "",
          "type": "bytes32"
        }
      ],
      "stateMutability": "pure",
      "type": "function"
    },
    {
      "inputs": [
        {
          "components": [
            {
              "components": [
                {
                  "components": [
                    {
                      "components": [
                        {
                          "internalType": "address",
                          "name": "to",
                          "type": "address"
                        },
                        {
                          "internalType": "uint256",
                          "name": "gasLimit",
                          "type": "uint256"
                        },
                        {
                          "internalType": "bytes",
                          "name": "data",
                          "type": "bytes"
                        }
                      ],
                      "internalType": "struct Transaction",
                      "name": "transaction",
                      "type": "tuple"
                    },
                    {
                      "components": [
                        {
                          "components": [
                            {
                              "internalType": "address",
                              "name": "delegate",
                              "type": "address"
                            },
                            {
                              "internalType": "bytes32",
                              "name": "authority",
                              "type": "bytes32"
                            },
                            {
                              "components": [
                                {
                                  "internalType": "address",
                                  "name": "enforcer",
                                  "type": "address"
                                },
                                {
                                  "internalType": "bytes",
                                  "name": "terms",
                                  "type": "bytes"
                                }
                              ],
                              "internalType": "struct Caveat[]",
                              "name": "caveats",
                              "type": "tuple[]"
                            }
                          ],
                          "internalType": "struct Delegation",
                          "name": "delegation",
                          "type": "tuple"
                        },
                        {
                          "internalType": "bytes",
                          "name": "signature",
                          "type": "bytes"
                        }
                      ],
                      "internalType": "struct SignedDelegation[]",
                      "name": "authority",
                      "type": "tuple[]"
                    }
                  ],
                  "internalType": "struct Invocation[]",
                  "name": "batch",
                  "type": "tuple[]"
                },
                {
                  "components": [
                    {
                      "internalType": "uint256",
                      "name": "nonce",
                      "type": "uint256"
                    },
                    {
                      "internalType": "uint256",
                      "name": "queue",
                      "type": "uint256"
                    }
                  ],
                  "internalType": "struct ReplayProtection",
                  "name": "replayProtection",
                  "type": "tuple"
                }
              ],
              "internalType": "struct Invocations",
              "name": "invocations",
              "type": "tuple"
            },
            {
              "internalType": "bytes",
              "name": "signature",
              "type": "bytes"
            }
          ],
          "internalType": "struct SignedInvocation",
          "name": "_input",
          "type": "tuple"
        }
      ],
      "name": "GET_SIGNEDINVOCATION_PACKETHASH",
      "outputs": [
        {
          "internalType": "bytes32",
          "name": "",
          "type": "bytes32"
        }
      ],
      "stateMutability": "pure",
      "type": "function"
    },
    {
      "inputs": [
        {
          "components": [
            {
              "internalType": "address",
              "name": "to",
              "type": "address"
            },
            {
              "internalType": "uint256",
              "name": "gasLimit",
              "type": "uint256"
            },
            {
              "internalType": "bytes",
              "name": "data",
              "type": "bytes"
            }
          ],
          "internalType": "struct Transaction",
          "name": "_input",
          "type": "tuple"
        }
      ],
      "name": "GET_TRANSACTION_PACKETHASH",
      "outputs": [
        {
          "internalType": "bytes32",
          "name": "",
          "type": "bytes32"
        }
      ],
      "stateMutability": "pure",
      "type": "function"
    },
    {
      "inputs": [
        {
          "internalType": "string",
          "name": "identifier",
          "type": "string"
        },
        {
          "internalType": "bool",
          "name": "isNominated",
          "type": "bool"
        }
      ],
      "name": "claimIfMember",
      "outputs": [],
      "stateMutability": "nonpayable",
      "type": "function"
    },
    {
      "inputs": [
        {
          "internalType": "string",
          "name": "identifier",
          "type": "string"
        },
        {
          "internalType": "bool",
          "name": "isAccused",
          "type": "bool"
        }
      ],
      "name": "claimIfPhisher",
      "outputs": [],
      "stateMutability": "nonpayable",
      "type": "function"
    },
    {
      "inputs": [
        {
          "components": [
            {
              "components": [
                {
                  "internalType": "address",
                  "name": "to",
                  "type": "address"
                },
                {
                  "internalType": "uint256",
                  "name": "gasLimit",
                  "type": "uint256"
                },
                {
                  "internalType": "bytes",
                  "name": "data",
                  "type": "bytes"
                }
              ],
              "internalType": "struct Transaction",
              "name": "transaction",
              "type": "tuple"
            },
            {
              "components": [
                {
                  "components": [
                    {
                      "internalType": "address",
                      "name": "delegate",
                      "type": "address"
                    },
                    {
                      "internalType": "bytes32",
                      "name": "authority",
                      "type": "bytes32"
                    },
                    {
                      "components": [
                        {
                          "internalType": "address",
                          "name": "enforcer",
                          "type": "address"
                        },
                        {
                          "internalType": "bytes",
                          "name": "terms",
                          "type": "bytes"
                        }
                      ],
                      "internalType": "struct Caveat[]",
                      "name": "caveats",
                      "type": "tuple[]"
                    }
                  ],
                  "internalType": "struct Delegation",
                  "name": "delegation",
                  "type": "tuple"
                },
                {
                  "internalType": "bytes",
                  "name": "signature",
                  "type": "bytes"
                }
              ],
              "internalType": "struct SignedDelegation[]",
              "name": "authority",
              "type": "tuple[]"
            }
          ],
          "internalType": "struct Invocation[]",
          "name": "batch",
          "type": "tuple[]"
        }
      ],
      "name": "contractInvoke",
      "outputs": [
        {
          "internalType": "bool",
          "name": "",
          "type": "bool"
        }
      ],
      "stateMutability": "nonpayable",
      "type": "function"
    },
    {
      "inputs": [],
      "name": "domainHash",
      "outputs": [
        {
          "internalType": "bytes32",
          "name": "",
          "type": "bytes32"
        }
      ],
      "stateMutability": "view",
      "type": "function"
    },
    {
      "inputs": [
        {
          "internalType": "bytes",
          "name": "terms",
          "type": "bytes"
        },
        {
          "components": [
            {
              "internalType": "address",
              "name": "to",
              "type": "address"
            },
            {
              "internalType": "uint256",
              "name": "gasLimit",
              "type": "uint256"
            },
            {
              "internalType": "bytes",
              "name": "data",
              "type": "bytes"
            }
          ],
          "internalType": "struct Transaction",
          "name": "transaction",
          "type": "tuple"
        },
        {
          "internalType": "bytes32",
          "name": "delegationHash",
          "type": "bytes32"
        }
      ],
      "name": "enforceCaveat",
      "outputs": [
        {
          "internalType": "bool",
          "name": "",
          "type": "bool"
        }
      ],
      "stateMutability": "nonpayable",
      "type": "function"
    },
    {
      "inputs": [
        {
          "components": [
            {
              "internalType": "address",
              "name": "delegate",
              "type": "address"
            },
            {
              "internalType": "bytes32",
              "name": "authority",
              "type": "bytes32"
            },
            {
              "components": [
                {
                  "internalType": "address",
                  "name": "enforcer",
                  "type": "address"
                },
                {
                  "internalType": "bytes",
                  "name": "terms",
                  "type": "bytes"
                }
              ],
              "internalType": "struct Caveat[]",
              "name": "caveats",
              "type": "tuple[]"
            }
          ],
          "internalType": "struct Delegation",
          "name": "delegation",
          "type": "tuple"
        }
      ],
      "name": "getDelegationTypedDataHash",
      "outputs": [
        {
          "internalType": "bytes32",
          "name": "",
          "type": "bytes32"
        }
      ],
      "stateMutability": "view",
      "type": "function"
    },
    {
      "inputs": [
        {
          "internalType": "string",
          "name": "contractName",
          "type": "string"
        },
        {
          "internalType": "string",
          "name": "version",
          "type": "string"
        },
        {
          "internalType": "uint256",
          "name": "chainId",
          "type": "uint256"
        },
        {
          "internalType": "address",
          "name": "verifyingContract",
          "type": "address"
        }
      ],
      "name": "getEIP712DomainHash",
      "outputs": [
        {
          "internalType": "bytes32",
          "name": "",
          "type": "bytes32"
        }
      ],
      "stateMutability": "pure",
      "type": "function"
    },
    {
      "inputs": [
        {
          "components": [
            {
              "internalType": "bytes32",
              "name": "delegationHash",
              "type": "bytes32"
            }
          ],
          "internalType": "struct IntentionToRevoke",
          "name": "intentionToRevoke",
          "type": "tuple"
        }
      ],
      "name": "getIntentionToRevokeTypedDataHash",
      "outputs": [
        {
          "internalType": "bytes32",
          "name": "",
          "type": "bytes32"
        }
      ],
      "stateMutability": "view",
      "type": "function"
    },
    {
      "inputs": [
        {
          "components": [
            {
              "components": [
                {
                  "components": [
                    {
                      "internalType": "address",
                      "name": "to",
                      "type": "address"
                    },
                    {
                      "internalType": "uint256",
                      "name": "gasLimit",
                      "type": "uint256"
                    },
                    {
                      "internalType": "bytes",
                      "name": "data",
                      "type": "bytes"
                    }
                  ],
                  "internalType": "struct Transaction",
                  "name": "transaction",
                  "type": "tuple"
                },
                {
                  "components": [
                    {
                      "components": [
                        {
                          "internalType": "address",
                          "name": "delegate",
                          "type": "address"
                        },
                        {
                          "internalType": "bytes32",
                          "name": "authority",
                          "type": "bytes32"
                        },
                        {
                          "components": [
                            {
                              "internalType": "address",
                              "name": "enforcer",
                              "type": "address"
                            },
                            {
                              "internalType": "bytes",
                              "name": "terms",
                              "type": "bytes"
                            }
                          ],
                          "internalType": "struct Caveat[]",
                          "name": "caveats",
                          "type": "tuple[]"
                        }
                      ],
                      "internalType": "struct Delegation",
                      "name": "delegation",
                      "type": "tuple"
                    },
                    {
                      "internalType": "bytes",
                      "name": "signature",
                      "type": "bytes"
                    }
                  ],
                  "internalType": "struct SignedDelegation[]",
                  "name": "authority",
                  "type": "tuple[]"
                }
              ],
              "internalType": "struct Invocation[]",
              "name": "batch",
              "type": "tuple[]"
            },
            {
              "components": [
                {
                  "internalType": "uint256",
                  "name": "nonce",
                  "type": "uint256"
                },
                {
                  "internalType": "uint256",
                  "name": "queue",
                  "type": "uint256"
                }
              ],
              "internalType": "struct ReplayProtection",
              "name": "replayProtection",
              "type": "tuple"
            }
          ],
          "internalType": "struct Invocations",
          "name": "invocations",
          "type": "tuple"
        }
      ],
      "name": "getInvocationsTypedDataHash",
      "outputs": [
        {
          "internalType": "bytes32",
          "name": "",
          "type": "bytes32"
        }
      ],
      "stateMutability": "view",
      "type": "function"
    },
    {
      "inputs": [
        {
          "components": [
            {
              "components": [
                {
                  "components": [
                    {
                      "components": [
                        {
                          "internalType": "address",
                          "name": "to",
                          "type": "address"
                        },
                        {
                          "internalType": "uint256",
                          "name": "gasLimit",
                          "type": "uint256"
                        },
                        {
                          "internalType": "bytes",
                          "name": "data",
                          "type": "bytes"
                        }
                      ],
                      "internalType": "struct Transaction",
                      "name": "transaction",
                      "type": "tuple"
                    },
                    {
                      "components": [
                        {
                          "components": [
                            {
                              "internalType": "address",
                              "name": "delegate",
                              "type": "address"
                            },
                            {
                              "internalType": "bytes32",
                              "name": "authority",
                              "type": "bytes32"
                            },
                            {
                              "components": [
                                {
                                  "internalType": "address",
                                  "name": "enforcer",
                                  "type": "address"
                                },
                                {
                                  "internalType": "bytes",
                                  "name": "terms",
                                  "type": "bytes"
                                }
                              ],
                              "internalType": "struct Caveat[]",
                              "name": "caveats",
                              "type": "tuple[]"
                            }
                          ],
                          "internalType": "struct Delegation",
                          "name": "delegation",
                          "type": "tuple"
                        },
                        {
                          "internalType": "bytes",
                          "name": "signature",
                          "type": "bytes"
                        }
                      ],
                      "internalType": "struct SignedDelegation[]",
                      "name": "authority",
                      "type": "tuple[]"
                    }
                  ],
                  "internalType": "struct Invocation[]",
                  "name": "batch",
                  "type": "tuple[]"
                },
                {
                  "components": [
                    {
                      "internalType": "uint256",
                      "name": "nonce",
                      "type": "uint256"
                    },
                    {
                      "internalType": "uint256",
                      "name": "queue",
                      "type": "uint256"
                    }
                  ],
                  "internalType": "struct ReplayProtection",
                  "name": "replayProtection",
                  "type": "tuple"
                }
              ],
              "internalType": "struct Invocations",
              "name": "invocations",
              "type": "tuple"
            },
            {
              "internalType": "bytes",
              "name": "signature",
              "type": "bytes"
            }
          ],
          "internalType": "struct SignedInvocation[]",
          "name": "signedInvocations",
          "type": "tuple[]"
        }
      ],
      "name": "invoke",
      "outputs": [
        {
          "internalType": "bool",
          "name": "success",
          "type": "bool"
        }
      ],
      "stateMutability": "nonpayable",
      "type": "function"
    },
    {
      "inputs": [
        {
          "internalType": "string",
          "name": "",
          "type": "string"
        }
      ],
      "name": "isMember",
      "outputs": [
        {
          "internalType": "bool",
          "name": "",
          "type": "bool"
        }
      ],
      "stateMutability": "view",
      "type": "function"
    },
    {
      "inputs": [
        {
          "internalType": "string",
          "name": "",
          "type": "string"
        }
      ],
      "name": "isPhisher",
      "outputs": [
        {
          "internalType": "bool",
          "name": "",
          "type": "bool"
        }
      ],
      "stateMutability": "view",
      "type": "function"
    },
    {
      "inputs": [
        {
          "internalType": "address",
          "name": "",
          "type": "address"
        },
        {
          "internalType": "uint256",
          "name": "",
          "type": "uint256"
        }
      ],
      "name": "multiNonce",
      "outputs": [
        {
          "internalType": "uint256",
          "name": "",
          "type": "uint256"
        }
      ],
      "stateMutability": "view",
      "type": "function"
    },
    {
      "inputs": [],
      "name": "owner",
      "outputs": [
        {
          "internalType": "address",
          "name": "",
          "type": "address"
        }
      ],
      "stateMutability": "view",
      "type": "function"
    },
    {
      "inputs": [],
      "name": "renounceOwnership",
      "outputs": [],
      "stateMutability": "nonpayable",
      "type": "function"
    },
    {
      "inputs": [
        {
          "components": [
            {
              "components": [
                {
                  "internalType": "address",
                  "name": "delegate",
                  "type": "address"
                },
                {
                  "internalType": "bytes32",
                  "name": "authority",
                  "type": "bytes32"
                },
                {
                  "components": [
                    {
                      "internalType": "address",
                      "name": "enforcer",
                      "type": "address"
                    },
                    {
                      "internalType": "bytes",
                      "name": "terms",
                      "type": "bytes"
                    }
                  ],
                  "internalType": "struct Caveat[]",
                  "name": "caveats",
                  "type": "tuple[]"
                }
              ],
              "internalType": "struct Delegation",
              "name": "delegation",
              "type": "tuple"
            },
            {
              "internalType": "bytes",
              "name": "signature",
              "type": "bytes"
            }
          ],
          "internalType": "struct SignedDelegation",
          "name": "signedDelegation",
          "type": "tuple"
        },
        {
          "components": [
            {
              "internalType": "bytes",
              "name": "signature",
              "type": "bytes"
            },
            {
              "components": [
                {
                  "internalType": "bytes32",
                  "name": "delegationHash",
                  "type": "bytes32"
                }
              ],
              "internalType": "struct IntentionToRevoke",
              "name": "intentionToRevoke",
              "type": "tuple"
            }
          ],
          "internalType": "struct SignedIntentionToRevoke",
          "name": "signedIntentionToRevoke",
          "type": "tuple"
        }
      ],
      "name": "revokeDelegation",
      "outputs": [],
      "stateMutability": "nonpayable",
      "type": "function"
    },
    {
      "inputs": [
        {
          "internalType": "address",
          "name": "newOwner",
          "type": "address"
        }
      ],
      "name": "transferOwnership",
      "outputs": [],
      "stateMutability": "nonpayable",
      "type": "function"
    },
    {
      "inputs": [
        {
          "components": [
            {
              "components": [
                {
                  "internalType": "address",
                  "name": "delegate",
                  "type": "address"
                },
                {
                  "internalType": "bytes32",
                  "name": "authority",
                  "type": "bytes32"
                },
                {
                  "components": [
                    {
                      "internalType": "address",
                      "name": "enforcer",
                      "type": "address"
                    },
                    {
                      "internalType": "bytes",
                      "name": "terms",
                      "type": "bytes"
                    }
                  ],
                  "internalType": "struct Caveat[]",
                  "name": "caveats",
                  "type": "tuple[]"
                }
              ],
              "internalType": "struct Delegation",
              "name": "delegation",
              "type": "tuple"
            },
            {
              "internalType": "bytes",
              "name": "signature",
              "type": "bytes"
            }
          ],
          "internalType": "struct SignedDelegation",
          "name": "signedDelegation",
          "type": "tuple"
        }
      ],
      "name": "verifyDelegationSignature",
      "outputs": [
        {
          "internalType": "address",
          "name": "",
          "type": "address"
        }
      ],
      "stateMutability": "view",
      "type": "function"
    },
    {
      "inputs": [
        {
          "components": [
            {
              "internalType": "bytes",
              "name": "signature",
              "type": "bytes"
            },
            {
              "components": [
                {
                  "internalType": "bytes32",
                  "name": "delegationHash",
                  "type": "bytes32"
                }
              ],
              "internalType": "struct IntentionToRevoke",
              "name": "intentionToRevoke",
              "type": "tuple"
            }
          ],
          "internalType": "struct SignedIntentionToRevoke",
          "name": "signedIntentionToRevoke",
          "type": "tuple"
        }
      ],
      "name": "verifyIntentionToRevokeSignature",
      "outputs": [
        {
          "internalType": "address",
          "name": "",
          "type": "address"
        }
      ],
      "stateMutability": "view",
      "type": "function"
    },
    {
      "inputs": [
        {
          "components": [
            {
              "components": [
                {
                  "components": [
                    {
                      "components": [
                        {
                          "internalType": "address",
                          "name": "to",
                          "type": "address"
                        },
                        {
                          "internalType": "uint256",
                          "name": "gasLimit",
                          "type": "uint256"
                        },
                        {
                          "internalType": "bytes",
                          "name": "data",
                          "type": "bytes"
                        }
                      ],
                      "internalType": "struct Transaction",
                      "name": "transaction",
                      "type": "tuple"
                    },
                    {
                      "components": [
                        {
                          "components": [
                            {
                              "internalType": "address",
                              "name": "delegate",
                              "type": "address"
                            },
                            {
                              "internalType": "bytes32",
                              "name": "authority",
                              "type": "bytes32"
                            },
                            {
                              "components": [
                                {
                                  "internalType": "address",
                                  "name": "enforcer",
                                  "type": "address"
                                },
                                {
                                  "internalType": "bytes",
                                  "name": "terms",
                                  "type": "bytes"
                                }
                              ],
                              "internalType": "struct Caveat[]",
                              "name": "caveats",
                              "type": "tuple[]"
                            }
                          ],
                          "internalType": "struct Delegation",
                          "name": "delegation",
                          "type": "tuple"
                        },
                        {
                          "internalType": "bytes",
                          "name": "signature",
                          "type": "bytes"
                        }
                      ],
                      "internalType": "struct SignedDelegation[]",
                      "name": "authority",
                      "type": "tuple[]"
                    }
                  ],
                  "internalType": "struct Invocation[]",
                  "name": "batch",
                  "type": "tuple[]"
                },
                {
                  "components": [
                    {
                      "internalType": "uint256",
                      "name": "nonce",
                      "type": "uint256"
                    },
                    {
                      "internalType": "uint256",
                      "name": "queue",
                      "type": "uint256"
                    }
                  ],
                  "internalType": "struct ReplayProtection",
                  "name": "replayProtection",
                  "type": "tuple"
                }
              ],
              "internalType": "struct Invocations",
              "name": "invocations",
              "type": "tuple"
            },
            {
              "internalType": "bytes",
              "name": "signature",
              "type": "bytes"
            }
          ],
          "internalType": "struct SignedInvocation",
          "name": "signedInvocation",
          "type": "tuple"
        }
      ],
      "name": "verifyInvocationSignature",
      "outputs": [
        {
          "internalType": "address",
          "name": "",
          "type": "address"
        }
      ],
      "stateMutability": "view",
      "type": "function"
    }
  ],
  "bytecode": "0x60a06040523480156200001157600080fd5b5060405162002f3738038062002f37833981016040819052620000349162000382565b8080604051806040016040528060018152602001603160f81b8152506200006a62000064620000e760201b60201c565b620001d5565b8151602080840191909120825182840120604080517f8b73c3c69bb8fe3d512ecc4cf759cc79239f7b179b0ffacaa9a75d522b39400f818601528082019390935260608301919091524660808301523060a0808401919091528151808403909101815260c09092019052805191012060805250620004e592505050565b60006200011a60405180606001604052806021815260200162002eee6021913933306200022560201b620010b91760201c565b303303620001a057600080368080601f016020809104026020016040519081016040528093929190818152602001838380828437600092019190915250506040805160608101909152602e808252939450369362000190935090915062002ec060208301396200027960201b620011051760201c565b01516001600160a01b0316905090565b620001d060405180606001604052806028815260200162002f0f6028913933620002c760201b620011481760201c565b503390565b600080546001600160a01b038381166001600160a01b0319831681178455604051919092169283917f8be0079c531659141344cd1fd0a4f28419497f9722a3daafe3b4186f6b6457e09190a35050565b62000274838383604051602401620002409392919062000468565b60408051601f198184030181529190526020810180516001600160e01b039081166307e763af60e51b179091526200031816565b505050565b620002c4816040516024016200029091906200049d565b60408051601f198184030181529190526020810180516001600160e01b0390811663104c13eb60e21b179091526200031816565b50565b620003148282604051602401620002e0929190620004b9565b60408051601f198184030181529190526020810180516001600160e01b0390811663319af33360e01b179091526200031816565b5050565b80516a636f6e736f6c652e6c6f67602083016000808483855afa5050505050565b634e487b7160e01b600052604160045260246000fd5b60005b838110156200036c57818101518382015260200162000352565b838111156200037c576000848401525b50505050565b6000602082840312156200039557600080fd5b81516001600160401b0380821115620003ad57600080fd5b818401915084601f830112620003c257600080fd5b815181811115620003d757620003d762000339565b604051601f8201601f19908116603f0116810190838211818310171562000402576200040262000339565b816040528281528760208487010111156200041c57600080fd5b6200042f8360208301602088016200034f565b979650505050505050565b60008151808452620004548160208601602086016200034f565b601f01601f19169290920160200192915050565b6060815260006200047d60608301866200043a565b6001600160a01b0394851660208401529290931660409091015292915050565b602081526000620004b260208301846200043a565b9392505050565b604081526000620004ce60408301856200043a565b905060018060a01b03831660208301529392505050565b6080516129aa62000516600039600081816105650152818161097a01528181610d490152610e5f01526129aa6000f3fe608060405234801561001057600080fd5b50600436106102065760003560e01c8063736f7ce71161011a57806398bc186a116100ad578063caced6c51161007c578063caced6c5146104b0578063d327c1eb146104c3578063d6d75cbf1461054d578063dfe86ac514610560578063f2fde38b1461058757600080fd5b806398bc186a14610464578063a2e01f7514610477578063a8444b3a1461048a578063bb5af5bd1461049d57600080fd5b80638a04499e116100e95780638a04499e146104025780638da5cb5b1461042d5780638dc34c4d1461043e57806397182ed61461045157600080fd5b8063736f7ce71461039b57806374e9d189146103ae5780637b577b58146103dc578063870eea55146103ef57600080fd5b80635cf1b24a1161019d5780636c2b12531161016c5780636c2b1253146103475780636f9658031461035a578063715018a61461036d5780637234eefe14610375578063732c36e81461038857600080fd5b80635cf1b24a146102e05780635d44b585146102f357806360b6d768146103215780636b6dc9de1461033457600080fd5b80633a481821116101d95780633a48182114610292578063463a3ce4146102a55780635068de4c146102ba5780635c6d9f0c146102cd57600080fd5b80630162f7221461020b57806308aaf6b0146102495780632f52a2fd1461025c5780632fad7efc1461026f575b600080fd5b61023661021936600461191c565b600160209081526000928352604080842090915290825290205481565b6040519081526020015b60405180910390f35b610236610257366004611abf565b61059a565b61023661026a366004611c07565b61061a565b61028261027d366004611c86565b610685565b6040519015158152602001610240565b6102366102a0366004611edf565b61074c565b6102b86102b3366004611f62565b6107c3565b005b6102826102c8366004611fb8565b610898565b6102826102db366004611c86565b610902565b6102366102ee36600461202d565b610918565b610282610301366004612061565b805160208183018101805160038252928201919093012091525460ff1681565b61023661032f36600461211e565b610975565b6102b8610342366004611f62565b6109c5565b610236610355366004612152565b610af6565b610236610368366004612186565b610b53565b6102b8610ba4565b61023661038336600461211e565b610bf9565b610236610396366004612231565b610c37565b6102366103a9366004612265565b610c74565b6102826103bc366004612061565b805160208183018101805160048252928201919093012091525460ff1681565b6102366103ea366004612299565b610cdc565b6102366103fd3660046122cd565b610d44565b610415610410366004612152565b610d71565b6040516001600160a01b039091168152602001610240565b6000546001600160a01b0316610415565b6102b861044c366004612301565b610d9b565b61023661045f366004611c07565b610e5a565b610236610472366004612364565b610e87565b61023661048536600461240f565b610ed3565b610415610498366004612231565b610f3f565b6102366104ab366004612482565b610f63565b6104156104be366004612482565b610f94565b6102366104d13660046124b6565b8351602094850120835193850193909320604080517f8b73c3c69bb8fe3d512ecc4cf759cc79239f7b179b0ffacaa9a75d522b39400f8188015280820195909552606085019190915260808401929092526001600160a01b031660a0808401919091528151808403909101815260c09092019052805191012090565b61023661055b3660046122cd565b610fbe565b6102367f000000000000000000000000000000000000000000000000000000000000000081565b6102b8610595366004612533565b610fff565b6000807f80ad7e1b04ee6d994a125f4714ca0720908bd80ed16063ec8aee4b88e9253e2d83600001518460200151805190602001206040516020016105fb939291909283526001600160a01b03919091166020830152604082015260600190565b60408051601f1981840301815291905280516020909101209392505050565b6000807f409f5114779a253e700d775d7845e6efc1e83685ac59868d2df3d4de51c7d621836000015184602001516106558660400151610cdc565b6040805160208101959095526001600160a01b03909316928401929092526060830152608082015260a0016105fb565b6000805b8281101561074557368484838181106106a4576106a461254e565b90506020028101906106b69190612564565b905060006106c66104be83612584565b9050610712818787868181106106de576106de61254e565b90506020028101906106f09190612564565b6106fa9080612590565b60200180360381019061070d9190612186565b611191565b61072f61071f8380612590565b61072990806125a6565b8361125b565b505050808061073d90612605565b915050610689565b5092915050565b6000606060005b83518110156107b4578161077f8583815181106107725761077261254e565b6020026020010151610918565b60405160200161079092919061264e565b604051602081830303815290604052915080806107ac90612605565b915050610753565b50805160209091012092915050565b6107cb611671565b6001600160a01b03166107e66000546001600160a01b031690565b6001600160a01b0316146108155760405162461bcd60e51b815260040161080c90612670565b60405180910390fd5b80600484846040516108289291906126a5565b908152604051908190036020018120805492151560ff199093169290921790915561085690849084906126a5565b6040519081900381208215158252907f88e1b1a43f3edcb9afe941dfea296f5bc32fab715b5fc9aa101ec26d87d2e8a2906020015b60405180910390a2505050565b60008181526002602052604081205460ff16156108f75760405162461bcd60e51b815260206004820152601b60248201527f44656c65676174696f6e20686173206265656e207265766f6b65640000000000604482015260640161080c565b506001949350505050565b600061090f83833361125b565b90505b92915050565b6000807fd97dd99b404d177890f06a8f0fc8e5ed0333fb2ebb6684360709066e8984f5946109498460000151610ed3565b6109568560200151610c74565b60408051602081019490945283019190915260608201526080016105fb565b6000807f00000000000000000000000000000000000000000000000000000000000000006109a284610bf9565b60405161190160f01b6020820152602281019290925260428201526062016105fb565b6109cd611671565b6001600160a01b03166109e86000546001600160a01b031690565b6001600160a01b031614610a0e5760405162461bcd60e51b815260040161080c90612670565b610a7c60405180604001604052806016815260200175436c61696d696e67206973205068697368657220257360501b81525084848080601f01602080910402602001604051908101604052809392919081815260200183838082843760009201919091525061173492505050565b8060038484604051610a8f9291906126a5565b908152604051908190036020018120805492151560ff1990931692909217909155610abd90849084906126a5565b6040519081900381208215158252907f9d3712f4978fc20b17a1dfbcd563f9aded75d05b6019427a9eca23245220138b9060200161088b565b6000807f3c36a06e1d288b0f94f565588317a46ad11bc3c96992109f9a2365a2737259a7610b27846000015161061a565b6020808601518051908201206040516105fb949392019283526020830191909152604082015260600190565b6000807fe8d3d963b33868fb116316bc3fd55e8f49123f30e4418f71e140d54b7cd3b2b9836000015184602001516040516020016105fb939291909283526020830191909152604082015260600190565b610bac611671565b6001600160a01b0316610bc76000546001600160a01b031690565b6001600160a01b031614610bed5760405162461bcd60e51b815260040161080c90612670565b610bf76000611779565b565b6000807f08c69a206c06f5334b35ceb1186181a713b21aff02cf66285f375084fbef2eb8610c2a846000015161074c565b6109568560200151610b53565b6000807f1b0091a1d050ac3fa97e15af326cf512d740529b43d5750169acacda23de27888360000151805190602001206109568560200151610fbe565b6000606060005b83518110156107b45781610ca7858381518110610c9a57610c9a61254e565b6020026020010151610af6565b604051602001610cb892919061264e565b60405160208183030381529060405291508080610cd490612605565b915050610c7b565b6000606060005b83518110156107b45781610d0f858381518110610d0257610d0261254e565b602002602001015161059a565b604051602001610d2092919061264e565b60405160208183030381529060405291508080610d3c90612605565b915050610ce3565b6000807f00000000000000000000000000000000000000000000000000000000000000006109a284610fbe565b805160009081610d8082610e5a565b90506000610d928286602001516117c9565b95945050505050565b6000610da9610410846126b5565b90506000610db9610498846126c1565b9050806001600160a01b0316826001600160a01b031614610e2c5760405162461bcd60e51b815260206004820152602760248201527f4f6e6c7920746865207369676e65722063616e207265766f6b6520612064656c60448201526632b3b0ba34b7b760c91b606482015260840161080c565b6000610e3a610355866126b5565b6000908152600260205260409020805460ff191660011790555050505050565b6000807f00000000000000000000000000000000000000000000000000000000000000006109a28461061a565b6000807f8b73c3c69bb8fe3d512ecc4cf759cc79239f7b179b0ffacaa9a75d522b39400f83600001518460200151856040015186606001516040516020016105fb9594939291906126f9565b6000807fb16dfdb3b8fa033fe30ac976cd4a50ad256b6811c80d90fcd0b323eec190047d836000015184602001518560400151805190602001206040516020016105fb94939291909384526001600160a01b039290921660208401526040830152606082015260800190565b602081015160009081610f5182610d44565b90506000610d928286600001516117c9565b6000807fc32b6dfe0f988d1f2b13248cddd88e320ff0ae86e3ccfe38bab77a80f4477d44610b278460000151610bf9565b600080610fa48360000151610975565b90506000610fb68285602001516117c9565b949350505050565b805160405160009182916105fb917f7148a5140265154d6c5200f68c3b86caca80512f179c3903dffd45aeaefc8ea891602001918252602082015260400190565b611007611671565b6001600160a01b03166110226000546001600160a01b031690565b6001600160a01b0316146110485760405162461bcd60e51b815260040161080c90612670565b6001600160a01b0381166110ad5760405162461bcd60e51b815260206004820152602660248201527f4f776e61626c653a206e6577206f776e657220697320746865207a65726f206160448201526564647265737360d01b606482015260840161080c565b6110b681611779565b50565b6111008383836040516024016110d193929190612747565b60408051601f198184030181529190526020810180516001600160e01b03166307e763af60e51b1790526118a0565b505050565b6110b681604051602401611119919061277a565b60408051601f198184030181529190526020810180516001600160e01b031663104c13eb60e21b1790526118a0565b61118d828260405160240161115e92919061278d565b60408051601f198184030181529190526020810180516001600160e01b031663319af33360e01b1790526118a0565b5050565b60208082015182516001600160a01b03851660009081526001808552604080832085845290955293902054919290916111c9916127b7565b81146112315760405162461bcd60e51b815260206004820152603160248201527f4f6e652d61742d612d74696d65206f7264657220656e666f726365642e204e6f6044820152701b98d94c881a5cc81d1bdbc81cdb585b1b607a1b606482015260840161080c565b6001600160a01b039093166000908152600160209081526040808320938352929052209190915550565b6000805b8381101561166957600085858381811061127b5761127b61254e565b905060200281019061128d9190612564565b611296906127cf565b90506000808260200151516000036112ae5750849050805b6000805b84602001515181101561154e576000856020015182815181106112d7576112d761254e565b6020026020010151905060006112ec82610d71565b9050826000036112fd578095508594505b846001600160a01b0316816001600160a01b0316146113775760405162461bcd60e51b815260206004820152603060248201527f44656c65676174696f6e207369676e657220646f6573206e6f74206d6174636860448201526f103932b8bab4b932b21039b4b3b732b960811b606482015260840161080c565b8151602081015185146113f25760405162461bcd60e51b815260206004820152603760248201527f44656c65676174696f6e20617574686f7269747920646f6573206e6f74206d6160448201527f7463682070726576696f75732064656c65676174696f6e000000000000000000606482015260840161080c565b60006113fd84610af6565b905060005b8260400151518161ffff16101561153157600083604001518261ffff168151811061142f5761142f61254e565b60200260200101516000015190506000816001600160a01b0316635068de4c86604001518561ffff16815181106114685761146861254e565b6020026020010151602001518e60000151876040518463ffffffff1660e01b8152600401611498939291906127db565b6020604051808303816000875af11580156114b7573d6000803e3d6000fd5b505050506040513d601f19601f820116820180604052508101906114db9190612837565b90508061151c5760405162461bcd60e51b815260206004820152600f60248201526e10d85d99585d081c995a9958dd1959608a1b604482015260640161080c565b505080806115299061285b565b915050611402565b50905195509350829150611546905081612605565b9150506112b2565b50835180516001600160a01b031630146115aa5760405162461bcd60e51b815260206004820181905260248201527f496e766f636174696f6e2074617267657420646f6573206e6f74206d61746368604482015260640161080c565b6040516001600160a01b0385811682528916907f185d11175440fcb6458fbc1889b02953452539ed80ad1da781a5449500f6d9609060200160405180910390a2611602816000015182604001518360200151876118c1565b9650866116515760405162461bcd60e51b815260206004820152601a60248201527f44656c656761746f7220657865637574696f6e206661696c6564000000000000604482015260640161080c565b5050505050808061166190612605565b91505061125f565b509392505050565b600061169660405180606001604052806021815260200161292c6021913933306110b9565b30330361170d57600080368080601f016020809104026020016040519081016040528093929190818152602001838380828437600092019190915250506040805160608101909152602e80825293945036936116fd93509091506128fe6020830139611105565b01516001600160a01b0316905090565b61172f60405180606001604052806028815260200161294d6028913933611148565b503390565b61118d828260405160240161174a92919061287c565b60408051601f198184030181529190526020810180516001600160e01b0316634b5c427760e01b1790526118a0565b600080546001600160a01b038381166001600160a01b0319831681178455604051919092169283917f8be0079c531659141344cd1fd0a4f28419497f9722a3daafe3b4186f6b6457e09190a35050565b60008060008084516041146117e45760009350505050610912565b50505060208201516040830151606084015160001a601b8110156118105761180d601b826128a1565b90505b8060ff16601b1415801561182857508060ff16601c14155b156118395760009350505050610912565b60408051600081526020810180835288905260ff831691810191909152606081018490526080810183905260019060a0016020604051602081039080840390855afa15801561188c573d6000803e3d6000fd5b505050602060405103519350505050610912565b80516a636f6e736f6c652e6c6f67602083016000808483855afa5050505050565b60008084836040516020016118d79291906128c6565b604051602081830303815290604052905060008082516020840160008a89f19695505050505050565b80356001600160a01b038116811461191757600080fd5b919050565b6000806040838503121561192f57600080fd5b61193883611900565b946020939093013593505050565b634e487b7160e01b600052604160045260246000fd5b604080519081016001600160401b038111828210171561197e5761197e611946565b60405290565b604051606081016001600160401b038111828210171561197e5761197e611946565b604051608081016001600160401b038111828210171561197e5761197e611946565b604051601f8201601f191681016001600160401b03811182821017156119f0576119f0611946565b604052919050565b600082601f830112611a0957600080fd5b81356001600160401b03811115611a2257611a22611946565b611a35601f8201601f19166020016119c8565b818152846020838601011115611a4a57600080fd5b816020850160208301376000918101602001919091529392505050565b600060408284031215611a7957600080fd5b611a8161195c565b9050611a8c82611900565b815260208201356001600160401b03811115611aa757600080fd5b611ab3848285016119f8565b60208301525092915050565b600060208284031215611ad157600080fd5b81356001600160401b03811115611ae757600080fd5b610fb684828501611a67565b60006001600160401b03821115611b0c57611b0c611946565b5060051b60200190565b600082601f830112611b2757600080fd5b81356020611b3c611b3783611af3565b6119c8565b82815260059290921b84018101918181019086841115611b5b57600080fd5b8286015b84811015611b9a5780356001600160401b03811115611b7e5760008081fd5b611b8c8986838b0101611a67565b845250918301918301611b5f565b509695505050505050565b600060608284031215611bb757600080fd5b611bbf611984565b9050611bca82611900565b81526020820135602082015260408201356001600160401b03811115611bef57600080fd5b611bfb84828501611b16565b60408301525092915050565b600060208284031215611c1957600080fd5b81356001600160401b03811115611c2f57600080fd5b610fb684828501611ba5565b60008083601f840112611c4d57600080fd5b5081356001600160401b03811115611c6457600080fd5b6020830191508360208260051b8501011115611c7f57600080fd5b9250929050565b60008060208385031215611c9957600080fd5b82356001600160401b03811115611caf57600080fd5b611cbb85828601611c3b565b90969095509350505050565b600060608284031215611cd957600080fd5b611ce1611984565b9050611cec82611900565b81526020820135602082015260408201356001600160401b03811115611d1157600080fd5b611bfb848285016119f8565b600060408284031215611d2f57600080fd5b611d3761195c565b905081356001600160401b0380821115611d5057600080fd5b611d5c85838601611ba5565b83526020840135915080821115611d7257600080fd5b50611ab3848285016119f8565b600082601f830112611d9057600080fd5b81356020611da0611b3783611af3565b82815260059290921b84018101918181019086841115611dbf57600080fd5b8286015b84811015611b9a5780356001600160401b03811115611de25760008081fd5b611df08986838b0101611d1d565b845250918301918301611dc3565b600060408284031215611e1057600080fd5b611e1861195c565b905081356001600160401b0380821115611e3157600080fd5b611e3d85838601611cc7565b83526020840135915080821115611e5357600080fd5b50611ab384828501611d7f565b600082601f830112611e7157600080fd5b81356020611e81611b3783611af3565b82815260059290921b84018101918181019086841115611ea057600080fd5b8286015b84811015611b9a5780356001600160401b03811115611ec35760008081fd5b611ed18986838b0101611dfe565b845250918301918301611ea4565b600060208284031215611ef157600080fd5b81356001600160401b03811115611f0757600080fd5b610fb684828501611e60565b60008083601f840112611f2557600080fd5b5081356001600160401b03811115611f3c57600080fd5b602083019150836020828501011115611c7f57600080fd5b80151581146110b657600080fd5b600080600060408486031215611f7757600080fd5b83356001600160401b03811115611f8d57600080fd5b611f9986828701611f13565b9094509250506020840135611fad81611f54565b809150509250925092565b60008060008060608587031215611fce57600080fd5b84356001600160401b0380821115611fe557600080fd5b611ff188838901611f13565b9096509450602087013591508082111561200a57600080fd5b5085016060818803121561201d57600080fd5b9396929550929360400135925050565b60006020828403121561203f57600080fd5b81356001600160401b0381111561205557600080fd5b610fb684828501611dfe565b60006020828403121561207357600080fd5b81356001600160401b0381111561208957600080fd5b610fb6848285016119f8565b6000604082840312156120a757600080fd5b6120af61195c565b9050813581526020820135602082015292915050565b6000606082840312156120d757600080fd5b6120df61195c565b905081356001600160401b038111156120f757600080fd5b61210384828501611e60565b8252506121138360208401612095565b602082015292915050565b60006020828403121561213057600080fd5b81356001600160401b0381111561214657600080fd5b610fb6848285016120c5565b60006020828403121561216457600080fd5b81356001600160401b0381111561217a57600080fd5b610fb684828501611d1d565b60006040828403121561219857600080fd5b61090f8383612095565b6000602082840312156121b457600080fd5b604051602081018181106001600160401b03821117156121d6576121d6611946565b6040529135825250919050565b6000604082840312156121f557600080fd5b6121fd61195c565b905081356001600160401b0381111561221557600080fd5b612221848285016119f8565b82525061211383602084016121a2565b60006020828403121561224357600080fd5b81356001600160401b0381111561225957600080fd5b610fb6848285016121e3565b60006020828403121561227757600080fd5b81356001600160401b0381111561228d57600080fd5b610fb684828501611d7f565b6000602082840312156122ab57600080fd5b81356001600160401b038111156122c157600080fd5b610fb684828501611b16565b6000602082840312156122df57600080fd5b61090f83836121a2565b6000604082840312156122fb57600080fd5b50919050565b6000806040838503121561231457600080fd5b82356001600160401b038082111561232b57600080fd5b612337868387016122e9565b9350602085013591508082111561234d57600080fd5b5061235a858286016122e9565b9150509250929050565b60006020828403121561237657600080fd5b81356001600160401b038082111561238d57600080fd5b90830190608082860312156123a157600080fd5b6123a96119a6565b8235828111156123b857600080fd5b6123c4878286016119f8565b8252506020830135828111156123d957600080fd5b6123e5878286016119f8565b6020830152506040830135604082015261240160608401611900565b606082015295945050505050565b60006020828403121561242157600080fd5b81356001600160401b0381111561243757600080fd5b610fb684828501611cc7565b60006040828403121561245557600080fd5b61245d61195c565b905081356001600160401b038082111561247657600080fd5b611d5c858386016120c5565b60006020828403121561249457600080fd5b81356001600160401b038111156124aa57600080fd5b610fb684828501612443565b600080600080608085870312156124cc57600080fd5b84356001600160401b03808211156124e357600080fd5b6124ef888389016119f8565b9550602087013591508082111561250557600080fd5b50612512878288016119f8565b9350506040850135915061252860608601611900565b905092959194509250565b60006020828403121561254557600080fd5b61090f82611900565b634e487b7160e01b600052603260045260246000fd5b60008235603e1983360301811261257a57600080fd5b9190910192915050565b60006109123683612443565b60008235605e1983360301811261257a57600080fd5b6000808335601e198436030181126125bd57600080fd5b8301803591506001600160401b038211156125d757600080fd5b6020019150600581901b3603821315611c7f57600080fd5b634e487b7160e01b600052601160045260246000fd5b600060018201612617576126176125ef565b5060010190565b60005b83811015612639578181015183820152602001612621565b83811115612648576000848401525b50505050565b6000835161266081846020880161261e565b9190910191825250602001919050565b6020808252818101527f4f776e61626c653a2063616c6c6572206973206e6f7420746865206f776e6572604082015260600190565b8183823760009101908152919050565b60006109123683611d1d565b600061091236836121e3565b600081518084526126e581602086016020860161261e565b601f01601f19169290920160200192915050565b85815260a06020820152600061271260a08301876126cd565b828103604084015261272481876126cd565b606084019590955250506001600160a01b03919091166080909101529392505050565b60608152600061275a60608301866126cd565b6001600160a01b0394851660208401529290931660409091015292915050565b60208152600061090f60208301846126cd565b6040815260006127a060408301856126cd565b905060018060a01b03831660208301529392505050565b600082198211156127ca576127ca6125ef565b500190565b60006109123683611dfe565b6060815260006127ee60608301866126cd565b828103602084015260018060a01b0385511681526020850151602082015260408501516060604083015261282560608301826126cd565b92505050826040830152949350505050565b60006020828403121561284957600080fd5b815161285481611f54565b9392505050565b600061ffff808316818103612872576128726125ef565b6001019392505050565b60408152600061288f60408301856126cd565b8281036020840152610d9281856126cd565b600060ff821660ff84168060ff038211156128be576128be6125ef565b019392505050565b600083516128d881846020880161261e565b60609390931b6bffffffffffffffffffffffff1916919092019081526014019291505056fe4c6f6164696e6720746865206372617a792074797065206f662064656c656761746564206d73672073656e6465726d736753656e64657228292025732076732074686973206164647265737320257341737369676e696e672073656e646572206173206e6f726d616c206d73672073656e646572202573a2646970667358221220f91cde961eb5b5c8c25e5b7fc94538c40c8eb0b9c458d5912fce4491f8d7834264736f6c634300080d00334c6f6164696e6720746865206372617a792074797065206f662064656c656761746564206d73672073656e6465726d736753656e64657228292025732076732074686973206164647265737320257341737369676e696e672073656e646572206173206e6f726d616c206d73672073656e646572202573",
  "linkReferences": {},
  "deployedLinkReferences": {}
}