{
  "_format": "hh-sol-artifact-1",
  "contractName": "PhisherRegistry",
  "sourceName": "contracts/PhisherRegistry.sol",
  "abi": [
    {
      "inputs": [
        {
          "internalType": "string",
          "name": "name",
          "type": "string"
        }
      ],
      "stateMutability": "nonpayable",
      "type": "constructor"
    },
    {
      "anonymous": false,
      "inputs": [
        {
          "indexed": false,
          "internalType": "address",
          "name": "principal",
          "type": "address"
        },
        {
          "indexed": true,
          "internalType": "address",
          "name": "agent",
          "type": "address"
        }
      ],
      "name": "DelegationTriggered",
      "type": "event"
    },
    {
      "anonymous": false,
      "inputs": [
        {
          "indexed": true,
          "internalType": "string",
          "name": "entity",
          "type": "string"
        },
        {
          "indexed": false,
          "internalType": "bool",
          "name": "isMember",
          "type": "bool"
        }
      ],
      "name": "MemberStatusUpdated",
      "type": "event"
    },
    {
      "anonymous": false,
      "inputs": [
        {
          "indexed": true,
          "internalType": "address",
          "name": "previousOwner",
          "type": "address"
        },
        {
          "indexed": true,
          "internalType": "address",
          "name": "newOwner",
          "type": "address"
        }
      ],
      "name": "OwnershipTransferred",
      "type": "event"
    },
    {
      "anonymous": false,
      "inputs": [
        {
          "indexed": true,
          "internalType": "string",
          "name": "entity",
          "type": "string"
        },
        {
          "indexed": false,
          "internalType": "bool",
          "name": "isPhisher",
          "type": "bool"
        }
      ],
      "name": "PhisherStatusUpdated",
      "type": "event"
    },
    {
      "inputs": [
        {
          "components": [
            {
              "internalType": "address",
              "name": "enforcer",
              "type": "address"
            },
            {
              "internalType": "bytes",
              "name": "terms",
              "type": "bytes"
            }
          ],
          "internalType": "struct Caveat[]",
          "name": "_input",
          "type": "tuple[]"
        }
      ],
      "name": "GET_CAVEAT_ARRAY_PACKETHASH",
      "outputs": [
        {
          "internalType": "bytes32",
          "name": "",
          "type": "bytes32"
        }
      ],
      "stateMutability": "pure",
      "type": "function"
    },
    {
      "inputs": [
        {
          "components": [
            {
              "internalType": "address",
              "name": "enforcer",
              "type": "address"
            },
            {
              "internalType": "bytes",
              "name": "terms",
              "type": "bytes"
            }
          ],
          "internalType": "struct Caveat",
          "name": "_input",
          "type": "tuple"
        }
      ],
      "name": "GET_CAVEAT_PACKETHASH",
      "outputs": [
        {
          "internalType": "bytes32",
          "name": "",
          "type": "bytes32"
        }
      ],
      "stateMutability": "pure",
      "type": "function"
    },
    {
      "inputs": [
        {
          "components": [
            {
              "internalType": "address",
              "name": "delegate",
              "type": "address"
            },
            {
              "internalType": "bytes32",
              "name": "authority",
              "type": "bytes32"
            },
            {
              "components": [
                {
                  "internalType": "address",
                  "name": "enforcer",
                  "type": "address"
                },
                {
                  "internalType": "bytes",
                  "name": "terms",
                  "type": "bytes"
                }
              ],
              "internalType": "struct Caveat[]",
              "name": "caveats",
              "type": "tuple[]"
            }
          ],
          "internalType": "struct Delegation",
          "name": "_input",
          "type": "tuple"
        }
      ],
      "name": "GET_DELEGATION_PACKETHASH",
      "outputs": [
        {
          "internalType": "bytes32",
          "name": "",
          "type": "bytes32"
        }
      ],
      "stateMutability": "pure",
      "type": "function"
    },
    {
      "inputs": [
        {
          "components": [
            {
              "internalType": "string",
              "name": "name",
              "type": "string"
            },
            {
              "internalType": "string",
              "name": "version",
              "type": "string"
            },
            {
              "internalType": "uint256",
              "name": "chainId",
              "type": "uint256"
            },
            {
              "internalType": "address",
              "name": "verifyingContract",
              "type": "address"
            }
          ],
          "internalType": "struct EIP712Domain",
          "name": "_input",
          "type": "tuple"
        }
      ],
      "name": "GET_EIP712DOMAIN_PACKETHASH",
      "outputs": [
        {
          "internalType": "bytes32",
          "name": "",
          "type": "bytes32"
        }
      ],
      "stateMutability": "pure",
      "type": "function"
    },
    {
      "inputs": [
        {
          "components": [
            {
              "internalType": "bytes32",
              "name": "delegationHash",
              "type": "bytes32"
            }
          ],
          "internalType": "struct IntentionToRevoke",
          "name": "_input",
          "type": "tuple"
        }
      ],
      "name": "GET_INTENTIONTOREVOKE_PACKETHASH",
      "outputs": [
        {
          "internalType": "bytes32",
          "name": "",
          "type": "bytes32"
        }
      ],
      "stateMutability": "pure",
      "type": "function"
    },
    {
      "inputs": [
        {
          "components": [
            {
              "components": [
                {
                  "components": [
                    {
                      "internalType": "address",
                      "name": "to",
                      "type": "address"
                    },
                    {
                      "internalType": "uint256",
                      "name": "gasLimit",
                      "type": "uint256"
                    },
                    {
                      "internalType": "bytes",
                      "name": "data",
                      "type": "bytes"
                    }
                  ],
                  "internalType": "struct Transaction",
                  "name": "transaction",
                  "type": "tuple"
                },
                {
                  "components": [
                    {
                      "components": [
                        {
                          "internalType": "address",
                          "name": "delegate",
                          "type": "address"
                        },
                        {
                          "internalType": "bytes32",
                          "name": "authority",
                          "type": "bytes32"
                        },
                        {
                          "components": [
                            {
                              "internalType": "address",
                              "name": "enforcer",
                              "type": "address"
                            },
                            {
                              "internalType": "bytes",
                              "name": "terms",
                              "type": "bytes"
                            }
                          ],
                          "internalType": "struct Caveat[]",
                          "name": "caveats",
                          "type": "tuple[]"
                        }
                      ],
                      "internalType": "struct Delegation",
                      "name": "delegation",
                      "type": "tuple"
                    },
                    {
                      "internalType": "bytes",
                      "name": "signature",
                      "type": "bytes"
                    }
                  ],
                  "internalType": "struct SignedDelegation[]",
                  "name": "authority",
                  "type": "tuple[]"
                }
              ],
              "internalType": "struct Invocation[]",
              "name": "batch",
              "type": "tuple[]"
            },
            {
              "components": [
                {
                  "internalType": "uint256",
                  "name": "nonce",
                  "type": "uint256"
                },
                {
                  "internalType": "uint256",
                  "name": "queue",
                  "type": "uint256"
                }
              ],
              "internalType": "struct ReplayProtection",
              "name": "replayProtection",
              "type": "tuple"
            }
          ],
          "internalType": "struct Invocations",
          "name": "_input",
          "type": "tuple"
        }
      ],
      "name": "GET_INVOCATIONS_PACKETHASH",
      "outputs": [
        {
          "internalType": "bytes32",
          "name": "",
          "type": "bytes32"
        }
      ],
      "stateMutability": "pure",
      "type": "function"
    },
    {
      "inputs": [
        {
          "components": [
            {
              "components": [
                {
                  "internalType": "address",
                  "name": "to",
                  "type": "address"
                },
                {
                  "internalType": "uint256",
                  "name": "gasLimit",
                  "type": "uint256"
                },
                {
                  "internalType": "bytes",
                  "name": "data",
                  "type": "bytes"
                }
              ],
              "internalType": "struct Transaction",
              "name": "transaction",
              "type": "tuple"
            },
            {
              "components": [
                {
                  "components": [
                    {
                      "internalType": "address",
                      "name": "delegate",
                      "type": "address"
                    },
                    {
                      "internalType": "bytes32",
                      "name": "authority",
                      "type": "bytes32"
                    },
                    {
                      "components": [
                        {
                          "internalType": "address",
                          "name": "enforcer",
                          "type": "address"
                        },
                        {
                          "internalType": "bytes",
                          "name": "terms",
                          "type": "bytes"
                        }
                      ],
                      "internalType": "struct Caveat[]",
                      "name": "caveats",
                      "type": "tuple[]"
                    }
                  ],
                  "internalType": "struct Delegation",
                  "name": "delegation",
                  "type": "tuple"
                },
                {
                  "internalType": "bytes",
                  "name": "signature",
                  "type": "bytes"
                }
              ],
              "internalType": "struct SignedDelegation[]",
              "name": "authority",
              "type": "tuple[]"
            }
          ],
          "internalType": "struct Invocation[]",
          "name": "_input",
          "type": "tuple[]"
        }
      ],
      "name": "GET_INVOCATION_ARRAY_PACKETHASH",
      "outputs": [
        {
          "internalType": "bytes32",
          "name": "",
          "type": "bytes32"
        }
      ],
      "stateMutability": "pure",
      "type": "function"
    },
    {
      "inputs": [
        {
          "components": [
            {
              "components": [
                {
                  "internalType": "address",
                  "name": "to",
                  "type": "address"
                },
                {
                  "internalType": "uint256",
                  "name": "gasLimit",
                  "type": "uint256"
                },
                {
                  "internalType": "bytes",
                  "name": "data",
                  "type": "bytes"
                }
              ],
              "internalType": "struct Transaction",
              "name": "transaction",
              "type": "tuple"
            },
            {
              "components": [
                {
                  "components": [
                    {
                      "internalType": "address",
                      "name": "delegate",
                      "type": "address"
                    },
                    {
                      "internalType": "bytes32",
                      "name": "authority",
                      "type": "bytes32"
                    },
                    {
                      "components": [
                        {
                          "internalType": "address",
                          "name": "enforcer",
                          "type": "address"
                        },
                        {
                          "internalType": "bytes",
                          "name": "terms",
                          "type": "bytes"
                        }
                      ],
                      "internalType": "struct Caveat[]",
                      "name": "caveats",
                      "type": "tuple[]"
                    }
                  ],
                  "internalType": "struct Delegation",
                  "name": "delegation",
                  "type": "tuple"
                },
                {
                  "internalType": "bytes",
                  "name": "signature",
                  "type": "bytes"
                }
              ],
              "internalType": "struct SignedDelegation[]",
              "name": "authority",
              "type": "tuple[]"
            }
          ],
          "internalType": "struct Invocation",
          "name": "_input",
          "type": "tuple"
        }
      ],
      "name": "GET_INVOCATION_PACKETHASH",
      "outputs": [
        {
          "internalType": "bytes32",
          "name": "",
          "type": "bytes32"
        }
      ],
      "stateMutability": "pure",
      "type": "function"
    },
    {
      "inputs": [
        {
          "components": [
            {
              "internalType": "uint256",
              "name": "nonce",
              "type": "uint256"
            },
            {
              "internalType": "uint256",
              "name": "queue",
              "type": "uint256"
            }
          ],
          "internalType": "struct ReplayProtection",
          "name": "_input",
          "type": "tuple"
        }
      ],
      "name": "GET_REPLAYPROTECTION_PACKETHASH",
      "outputs": [
        {
          "internalType": "bytes32",
          "name": "",
          "type": "bytes32"
        }
      ],
      "stateMutability": "pure",
      "type": "function"
    },
    {
      "inputs": [
        {
          "components": [
            {
              "components": [
                {
                  "internalType": "address",
                  "name": "delegate",
                  "type": "address"
                },
                {
                  "internalType": "bytes32",
                  "name": "authority",
                  "type": "bytes32"
                },
                {
                  "components": [
                    {
                      "internalType": "address",
                      "name": "enforcer",
                      "type": "address"
                    },
                    {
                      "internalType": "bytes",
                      "name": "terms",
                      "type": "bytes"
                    }
                  ],
                  "internalType": "struct Caveat[]",
                  "name": "caveats",
                  "type": "tuple[]"
                }
              ],
              "internalType": "struct Delegation",
              "name": "delegation",
              "type": "tuple"
            },
            {
              "internalType": "bytes",
              "name": "signature",
              "type": "bytes"
            }
          ],
          "internalType": "struct SignedDelegation[]",
          "name": "_input",
          "type": "tuple[]"
        }
      ],
      "name": "GET_SIGNEDDELEGATION_ARRAY_PACKETHASH",
      "outputs": [
        {
          "internalType": "bytes32",
          "name": "",
          "type": "bytes32"
        }
      ],
      "stateMutability": "pure",
      "type": "function"
    },
    {
      "inputs": [
        {
          "components": [
            {
              "components": [
                {
                  "internalType": "address",
                  "name": "delegate",
                  "type": "address"
                },
                {
                  "internalType": "bytes32",
                  "name": "authority",
                  "type": "bytes32"
                },
                {
                  "components": [
                    {
                      "internalType": "address",
                      "name": "enforcer",
                      "type": "address"
                    },
                    {
                      "internalType": "bytes",
                      "name": "terms",
                      "type": "bytes"
                    }
                  ],
                  "internalType": "struct Caveat[]",
                  "name": "caveats",
                  "type": "tuple[]"
                }
              ],
              "internalType": "struct Delegation",
              "name": "delegation",
              "type": "tuple"
            },
            {
              "internalType": "bytes",
              "name": "signature",
              "type": "bytes"
            }
          ],
          "internalType": "struct SignedDelegation",
          "name": "_input",
          "type": "tuple"
        }
      ],
      "name": "GET_SIGNEDDELEGATION_PACKETHASH",
      "outputs": [
        {
          "internalType": "bytes32",
          "name": "",
          "type": "bytes32"
        }
      ],
      "stateMutability": "pure",
      "type": "function"
    },
    {
      "inputs": [
        {
          "components": [
            {
              "internalType": "bytes",
              "name": "signature",
              "type": "bytes"
            },
            {
              "components": [
                {
                  "internalType": "bytes32",
                  "name": "delegationHash",
                  "type": "bytes32"
                }
              ],
              "internalType": "struct IntentionToRevoke",
              "name": "intentionToRevoke",
              "type": "tuple"
            }
          ],
          "internalType": "struct SignedIntentionToRevoke",
          "name": "_input",
          "type": "tuple"
        }
      ],
      "name": "GET_SIGNEDINTENTIONTOREVOKE_PACKETHASH",
      "outputs": [
        {
          "internalType": "bytes32",
          "name": "",
          "type": "bytes32"
        }
      ],
      "stateMutability": "pure",
      "type": "function"
    },
    {
      "inputs": [
        {
          "components": [
            {
              "components": [
                {
                  "components": [
                    {
                      "components": [
                        {
                          "internalType": "address",
                          "name": "to",
                          "type": "address"
                        },
                        {
                          "internalType": "uint256",
                          "name": "gasLimit",
                          "type": "uint256"
                        },
                        {
                          "internalType": "bytes",
                          "name": "data",
                          "type": "bytes"
                        }
                      ],
                      "internalType": "struct Transaction",
                      "name": "transaction",
                      "type": "tuple"
                    },
                    {
                      "components": [
                        {
                          "components": [
                            {
                              "internalType": "address",
                              "name": "delegate",
                              "type": "address"
                            },
                            {
                              "internalType": "bytes32",
                              "name": "authority",
                              "type": "bytes32"
                            },
                            {
                              "components": [
                                {
                                  "internalType": "address",
                                  "name": "enforcer",
                                  "type": "address"
                                },
                                {
                                  "internalType": "bytes",
                                  "name": "terms",
                                  "type": "bytes"
                                }
                              ],
                              "internalType": "struct Caveat[]",
                              "name": "caveats",
                              "type": "tuple[]"
                            }
                          ],
                          "internalType": "struct Delegation",
                          "name": "delegation",
                          "type": "tuple"
                        },
                        {
                          "internalType": "bytes",
                          "name": "signature",
                          "type": "bytes"
                        }
                      ],
                      "internalType": "struct SignedDelegation[]",
                      "name": "authority",
                      "type": "tuple[]"
                    }
                  ],
                  "internalType": "struct Invocation[]",
                  "name": "batch",
                  "type": "tuple[]"
                },
                {
                  "components": [
                    {
                      "internalType": "uint256",
                      "name": "nonce",
                      "type": "uint256"
                    },
                    {
                      "internalType": "uint256",
                      "name": "queue",
                      "type": "uint256"
                    }
                  ],
                  "internalType": "struct ReplayProtection",
                  "name": "replayProtection",
                  "type": "tuple"
                }
              ],
              "internalType": "struct Invocations",
              "name": "invocations",
              "type": "tuple"
            },
            {
              "internalType": "bytes",
              "name": "signature",
              "type": "bytes"
            }
          ],
          "internalType": "struct SignedInvocation",
          "name": "_input",
          "type": "tuple"
        }
      ],
      "name": "GET_SIGNEDINVOCATION_PACKETHASH",
      "outputs": [
        {
          "internalType": "bytes32",
          "name": "",
          "type": "bytes32"
        }
      ],
      "stateMutability": "pure",
      "type": "function"
    },
    {
      "inputs": [
        {
          "components": [
            {
              "internalType": "address",
              "name": "to",
              "type": "address"
            },
            {
              "internalType": "uint256",
              "name": "gasLimit",
              "type": "uint256"
            },
            {
              "internalType": "bytes",
              "name": "data",
              "type": "bytes"
            }
          ],
          "internalType": "struct Transaction",
          "name": "_input",
          "type": "tuple"
        }
      ],
      "name": "GET_TRANSACTION_PACKETHASH",
      "outputs": [
        {
          "internalType": "bytes32",
          "name": "",
          "type": "bytes32"
        }
      ],
      "stateMutability": "pure",
      "type": "function"
    },
    {
      "inputs": [
        {
          "internalType": "string",
          "name": "identifier",
          "type": "string"
        },
        {
          "internalType": "bool",
          "name": "isNominated",
          "type": "bool"
        }
      ],
      "name": "claimIfMember",
      "outputs": [],
      "stateMutability": "nonpayable",
      "type": "function"
    },
    {
      "inputs": [
        {
          "internalType": "string",
          "name": "identifier",
          "type": "string"
        },
        {
          "internalType": "bool",
          "name": "isAccused",
          "type": "bool"
        }
      ],
      "name": "claimIfPhisher",
      "outputs": [],
      "stateMutability": "nonpayable",
      "type": "function"
    },
    {
      "inputs": [
        {
          "components": [
            {
              "components": [
                {
                  "internalType": "address",
                  "name": "to",
                  "type": "address"
                },
                {
                  "internalType": "uint256",
                  "name": "gasLimit",
                  "type": "uint256"
                },
                {
                  "internalType": "bytes",
                  "name": "data",
                  "type": "bytes"
                }
              ],
              "internalType": "struct Transaction",
              "name": "transaction",
              "type": "tuple"
            },
            {
              "components": [
                {
                  "components": [
                    {
                      "internalType": "address",
                      "name": "delegate",
                      "type": "address"
                    },
                    {
                      "internalType": "bytes32",
                      "name": "authority",
                      "type": "bytes32"
                    },
                    {
                      "components": [
                        {
                          "internalType": "address",
                          "name": "enforcer",
                          "type": "address"
                        },
                        {
                          "internalType": "bytes",
                          "name": "terms",
                          "type": "bytes"
                        }
                      ],
                      "internalType": "struct Caveat[]",
                      "name": "caveats",
                      "type": "tuple[]"
                    }
                  ],
                  "internalType": "struct Delegation",
                  "name": "delegation",
                  "type": "tuple"
                },
                {
                  "internalType": "bytes",
                  "name": "signature",
                  "type": "bytes"
                }
              ],
              "internalType": "struct SignedDelegation[]",
              "name": "authority",
              "type": "tuple[]"
            }
          ],
          "internalType": "struct Invocation[]",
          "name": "batch",
          "type": "tuple[]"
        }
      ],
      "name": "contractInvoke",
      "outputs": [
        {
          "internalType": "bool",
          "name": "",
          "type": "bool"
        }
      ],
      "stateMutability": "nonpayable",
      "type": "function"
    },
    {
      "inputs": [],
      "name": "domainHash",
      "outputs": [
        {
          "internalType": "bytes32",
          "name": "",
          "type": "bytes32"
        }
      ],
      "stateMutability": "view",
      "type": "function"
    },
    {
      "inputs": [
        {
          "internalType": "bytes",
          "name": "terms",
          "type": "bytes"
        },
        {
          "components": [
            {
              "internalType": "address",
              "name": "to",
              "type": "address"
            },
            {
              "internalType": "uint256",
              "name": "gasLimit",
              "type": "uint256"
            },
            {
              "internalType": "bytes",
              "name": "data",
              "type": "bytes"
            }
          ],
          "internalType": "struct Transaction",
          "name": "transaction",
          "type": "tuple"
        },
        {
          "internalType": "bytes32",
          "name": "delegationHash",
          "type": "bytes32"
        }
      ],
      "name": "enforceCaveat",
      "outputs": [
        {
          "internalType": "bool",
          "name": "",
          "type": "bool"
        }
      ],
      "stateMutability": "view",
      "type": "function"
    },
    {
      "inputs": [
        {
          "components": [
            {
              "internalType": "address",
              "name": "delegate",
              "type": "address"
            },
            {
              "internalType": "bytes32",
              "name": "authority",
              "type": "bytes32"
            },
            {
              "components": [
                {
                  "internalType": "address",
                  "name": "enforcer",
                  "type": "address"
                },
                {
                  "internalType": "bytes",
                  "name": "terms",
                  "type": "bytes"
                }
              ],
              "internalType": "struct Caveat[]",
              "name": "caveats",
              "type": "tuple[]"
            }
          ],
          "internalType": "struct Delegation",
          "name": "delegation",
          "type": "tuple"
        }
      ],
      "name": "getDelegationTypedDataHash",
      "outputs": [
        {
          "internalType": "bytes32",
          "name": "",
          "type": "bytes32"
        }
      ],
      "stateMutability": "view",
      "type": "function"
    },
    {
      "inputs": [
        {
          "internalType": "string",
          "name": "contractName",
          "type": "string"
        },
        {
          "internalType": "string",
          "name": "version",
          "type": "string"
        },
        {
          "internalType": "uint256",
          "name": "chainId",
          "type": "uint256"
        },
        {
          "internalType": "address",
          "name": "verifyingContract",
          "type": "address"
        }
      ],
      "name": "getEIP712DomainHash",
      "outputs": [
        {
          "internalType": "bytes32",
          "name": "",
          "type": "bytes32"
        }
      ],
      "stateMutability": "pure",
      "type": "function"
    },
    {
      "inputs": [
        {
          "components": [
            {
              "internalType": "bytes32",
              "name": "delegationHash",
              "type": "bytes32"
            }
          ],
          "internalType": "struct IntentionToRevoke",
          "name": "intentionToRevoke",
          "type": "tuple"
        }
      ],
      "name": "getIntentionToRevokeTypedDataHash",
      "outputs": [
        {
          "internalType": "bytes32",
          "name": "",
          "type": "bytes32"
        }
      ],
      "stateMutability": "view",
      "type": "function"
    },
    {
      "inputs": [
        {
          "components": [
            {
              "components": [
                {
                  "components": [
                    {
                      "internalType": "address",
                      "name": "to",
                      "type": "address"
                    },
                    {
                      "internalType": "uint256",
                      "name": "gasLimit",
                      "type": "uint256"
                    },
                    {
                      "internalType": "bytes",
                      "name": "data",
                      "type": "bytes"
                    }
                  ],
                  "internalType": "struct Transaction",
                  "name": "transaction",
                  "type": "tuple"
                },
                {
                  "components": [
                    {
                      "components": [
                        {
                          "internalType": "address",
                          "name": "delegate",
                          "type": "address"
                        },
                        {
                          "internalType": "bytes32",
                          "name": "authority",
                          "type": "bytes32"
                        },
                        {
                          "components": [
                            {
                              "internalType": "address",
                              "name": "enforcer",
                              "type": "address"
                            },
                            {
                              "internalType": "bytes",
                              "name": "terms",
                              "type": "bytes"
                            }
                          ],
                          "internalType": "struct Caveat[]",
                          "name": "caveats",
                          "type": "tuple[]"
                        }
                      ],
                      "internalType": "struct Delegation",
                      "name": "delegation",
                      "type": "tuple"
                    },
                    {
                      "internalType": "bytes",
                      "name": "signature",
                      "type": "bytes"
                    }
                  ],
                  "internalType": "struct SignedDelegation[]",
                  "name": "authority",
                  "type": "tuple[]"
                }
              ],
              "internalType": "struct Invocation[]",
              "name": "batch",
              "type": "tuple[]"
            },
            {
              "components": [
                {
                  "internalType": "uint256",
                  "name": "nonce",
                  "type": "uint256"
                },
                {
                  "internalType": "uint256",
                  "name": "queue",
                  "type": "uint256"
                }
              ],
              "internalType": "struct ReplayProtection",
              "name": "replayProtection",
              "type": "tuple"
            }
          ],
          "internalType": "struct Invocations",
          "name": "invocations",
          "type": "tuple"
        }
      ],
      "name": "getInvocationsTypedDataHash",
      "outputs": [
        {
          "internalType": "bytes32",
          "name": "",
          "type": "bytes32"
        }
      ],
      "stateMutability": "view",
      "type": "function"
    },
    {
      "inputs": [
        {
          "components": [
            {
              "components": [
                {
                  "components": [
                    {
                      "components": [
                        {
                          "internalType": "address",
                          "name": "to",
                          "type": "address"
                        },
                        {
                          "internalType": "uint256",
                          "name": "gasLimit",
                          "type": "uint256"
                        },
                        {
                          "internalType": "bytes",
                          "name": "data",
                          "type": "bytes"
                        }
                      ],
                      "internalType": "struct Transaction",
                      "name": "transaction",
                      "type": "tuple"
                    },
                    {
                      "components": [
                        {
                          "components": [
                            {
                              "internalType": "address",
                              "name": "delegate",
                              "type": "address"
                            },
                            {
                              "internalType": "bytes32",
                              "name": "authority",
                              "type": "bytes32"
                            },
                            {
                              "components": [
                                {
                                  "internalType": "address",
                                  "name": "enforcer",
                                  "type": "address"
                                },
                                {
                                  "internalType": "bytes",
                                  "name": "terms",
                                  "type": "bytes"
                                }
                              ],
                              "internalType": "struct Caveat[]",
                              "name": "caveats",
                              "type": "tuple[]"
                            }
                          ],
                          "internalType": "struct Delegation",
                          "name": "delegation",
                          "type": "tuple"
                        },
                        {
                          "internalType": "bytes",
                          "name": "signature",
                          "type": "bytes"
                        }
                      ],
                      "internalType": "struct SignedDelegation[]",
                      "name": "authority",
                      "type": "tuple[]"
                    }
                  ],
                  "internalType": "struct Invocation[]",
                  "name": "batch",
                  "type": "tuple[]"
                },
                {
                  "components": [
                    {
                      "internalType": "uint256",
                      "name": "nonce",
                      "type": "uint256"
                    },
                    {
                      "internalType": "uint256",
                      "name": "queue",
                      "type": "uint256"
                    }
                  ],
                  "internalType": "struct ReplayProtection",
                  "name": "replayProtection",
                  "type": "tuple"
                }
              ],
              "internalType": "struct Invocations",
              "name": "invocations",
              "type": "tuple"
            },
            {
              "internalType": "bytes",
              "name": "signature",
              "type": "bytes"
            }
          ],
          "internalType": "struct SignedInvocation[]",
          "name": "signedInvocations",
          "type": "tuple[]"
        }
      ],
      "name": "invoke",
      "outputs": [
        {
          "internalType": "bool",
          "name": "success",
          "type": "bool"
        }
      ],
      "stateMutability": "nonpayable",
      "type": "function"
    },
    {
      "inputs": [
        {
          "internalType": "string",
          "name": "",
          "type": "string"
        }
      ],
      "name": "isMember",
      "outputs": [
        {
          "internalType": "bool",
          "name": "",
          "type": "bool"
        }
      ],
      "stateMutability": "view",
      "type": "function"
    },
    {
      "inputs": [
        {
          "internalType": "string",
          "name": "",
          "type": "string"
        }
      ],
      "name": "isPhisher",
      "outputs": [
        {
          "internalType": "bool",
          "name": "",
          "type": "bool"
        }
      ],
      "stateMutability": "view",
      "type": "function"
    },
    {
      "inputs": [
        {
          "internalType": "address",
          "name": "",
          "type": "address"
        },
        {
          "internalType": "uint256",
          "name": "",
          "type": "uint256"
        }
      ],
      "name": "multiNonce",
      "outputs": [
        {
          "internalType": "uint256",
          "name": "",
          "type": "uint256"
        }
      ],
      "stateMutability": "view",
      "type": "function"
    },
    {
      "inputs": [],
      "name": "owner",
      "outputs": [
        {
          "internalType": "address",
          "name": "",
          "type": "address"
        }
      ],
      "stateMutability": "view",
      "type": "function"
    },
    {
      "inputs": [],
      "name": "renounceOwnership",
      "outputs": [],
      "stateMutability": "nonpayable",
      "type": "function"
    },
    {
      "inputs": [
        {
          "components": [
            {
              "components": [
                {
                  "internalType": "address",
                  "name": "delegate",
                  "type": "address"
                },
                {
                  "internalType": "bytes32",
                  "name": "authority",
                  "type": "bytes32"
                },
                {
                  "components": [
                    {
                      "internalType": "address",
                      "name": "enforcer",
                      "type": "address"
                    },
                    {
                      "internalType": "bytes",
                      "name": "terms",
                      "type": "bytes"
                    }
                  ],
                  "internalType": "struct Caveat[]",
                  "name": "caveats",
                  "type": "tuple[]"
                }
              ],
              "internalType": "struct Delegation",
              "name": "delegation",
              "type": "tuple"
            },
            {
              "internalType": "bytes",
              "name": "signature",
              "type": "bytes"
            }
          ],
          "internalType": "struct SignedDelegation",
          "name": "signedDelegation",
          "type": "tuple"
        },
        {
          "components": [
            {
              "internalType": "bytes",
              "name": "signature",
              "type": "bytes"
            },
            {
              "components": [
                {
                  "internalType": "bytes32",
                  "name": "delegationHash",
                  "type": "bytes32"
                }
              ],
              "internalType": "struct IntentionToRevoke",
              "name": "intentionToRevoke",
              "type": "tuple"
            }
          ],
          "internalType": "struct SignedIntentionToRevoke",
          "name": "signedIntentionToRevoke",
          "type": "tuple"
        }
      ],
      "name": "revokeDelegation",
      "outputs": [],
      "stateMutability": "nonpayable",
      "type": "function"
    },
    {
      "inputs": [
        {
          "internalType": "address",
          "name": "newOwner",
          "type": "address"
        }
      ],
      "name": "transferOwnership",
      "outputs": [],
      "stateMutability": "nonpayable",
      "type": "function"
    },
    {
      "inputs": [
        {
          "components": [
            {
              "components": [
                {
                  "internalType": "address",
                  "name": "delegate",
                  "type": "address"
                },
                {
                  "internalType": "bytes32",
                  "name": "authority",
                  "type": "bytes32"
                },
                {
                  "components": [
                    {
                      "internalType": "address",
                      "name": "enforcer",
                      "type": "address"
                    },
                    {
                      "internalType": "bytes",
                      "name": "terms",
                      "type": "bytes"
                    }
                  ],
                  "internalType": "struct Caveat[]",
                  "name": "caveats",
                  "type": "tuple[]"
                }
              ],
              "internalType": "struct Delegation",
              "name": "delegation",
              "type": "tuple"
            },
            {
              "internalType": "bytes",
              "name": "signature",
              "type": "bytes"
            }
          ],
          "internalType": "struct SignedDelegation",
          "name": "signedDelegation",
          "type": "tuple"
        }
      ],
      "name": "verifyDelegationSignature",
      "outputs": [
        {
          "internalType": "address",
          "name": "",
          "type": "address"
        }
      ],
      "stateMutability": "view",
      "type": "function"
    },
    {
      "inputs": [
        {
          "components": [
            {
              "internalType": "bytes",
              "name": "signature",
              "type": "bytes"
            },
            {
              "components": [
                {
                  "internalType": "bytes32",
                  "name": "delegationHash",
                  "type": "bytes32"
                }
              ],
              "internalType": "struct IntentionToRevoke",
              "name": "intentionToRevoke",
              "type": "tuple"
            }
          ],
          "internalType": "struct SignedIntentionToRevoke",
          "name": "signedIntentionToRevoke",
          "type": "tuple"
        }
      ],
      "name": "verifyIntentionToRevokeSignature",
      "outputs": [
        {
          "internalType": "address",
          "name": "",
          "type": "address"
        }
      ],
      "stateMutability": "view",
      "type": "function"
    },
    {
      "inputs": [
        {
          "components": [
            {
              "components": [
                {
                  "components": [
                    {
                      "components": [
                        {
                          "internalType": "address",
                          "name": "to",
                          "type": "address"
                        },
                        {
                          "internalType": "uint256",
                          "name": "gasLimit",
                          "type": "uint256"
                        },
                        {
                          "internalType": "bytes",
                          "name": "data",
                          "type": "bytes"
                        }
                      ],
                      "internalType": "struct Transaction",
                      "name": "transaction",
                      "type": "tuple"
                    },
                    {
                      "components": [
                        {
                          "components": [
                            {
                              "internalType": "address",
                              "name": "delegate",
                              "type": "address"
                            },
                            {
                              "internalType": "bytes32",
                              "name": "authority",
                              "type": "bytes32"
                            },
                            {
                              "components": [
                                {
                                  "internalType": "address",
                                  "name": "enforcer",
                                  "type": "address"
                                },
                                {
                                  "internalType": "bytes",
                                  "name": "terms",
                                  "type": "bytes"
                                }
                              ],
                              "internalType": "struct Caveat[]",
                              "name": "caveats",
                              "type": "tuple[]"
                            }
                          ],
                          "internalType": "struct Delegation",
                          "name": "delegation",
                          "type": "tuple"
                        },
                        {
                          "internalType": "bytes",
                          "name": "signature",
                          "type": "bytes"
                        }
                      ],
                      "internalType": "struct SignedDelegation[]",
                      "name": "authority",
                      "type": "tuple[]"
                    }
                  ],
                  "internalType": "struct Invocation[]",
                  "name": "batch",
                  "type": "tuple[]"
                },
                {
                  "components": [
                    {
                      "internalType": "uint256",
                      "name": "nonce",
                      "type": "uint256"
                    },
                    {
                      "internalType": "uint256",
                      "name": "queue",
                      "type": "uint256"
                    }
                  ],
                  "internalType": "struct ReplayProtection",
                  "name": "replayProtection",
                  "type": "tuple"
                }
              ],
              "internalType": "struct Invocations",
              "name": "invocations",
              "type": "tuple"
            },
            {
              "internalType": "bytes",
              "name": "signature",
              "type": "bytes"
            }
          ],
          "internalType": "struct SignedInvocation",
          "name": "signedInvocation",
          "type": "tuple"
        }
      ],
      "name": "verifyInvocationSignature",
      "outputs": [
        {
          "internalType": "address",
          "name": "",
          "type": "address"
        }
      ],
      "stateMutability": "view",
      "type": "function"
    }
  ],
  "bytecode": "0x60a06040523480156200001157600080fd5b5060405162002e4b38038062002e4b833981016040819052620000349162000335565b8080604051806040016040528060018152602001603160f81b8152506200006a62000064620000e760201b60201c565b620001dc565b8151602080840191909120825182840120604080517f8b73c3c69bb8fe3d512ecc4cf759cc79239f7b179b0ffacaa9a75d522b39400f818601528082019390935260608301919091524660808301523060a0808401919091528151808403909101815260c090920190528051910120608052506200046392505050565b60003033036200013f57600080368080601f0160208091040260200160405190810160405280939291908181526020018383808284376000920191909152505050503601516001600160a01b031691506200018d9050565b6200018a6040518060400160405280601d81526020017f5573696e67206e6f726d616c206d73672e73656e646572206c6f6769630000008152506200022c60201b6200114d1760201c565b50335b620001d96040518060400160405280601381526020017f52657475726e696e672073656e64657220257300000000000000000000000000815250826200027a60201b620011901760201c565b90565b600080546001600160a01b038381166001600160a01b0319831681178455604051919092169283917f8be0079c531659141344cd1fd0a4f28419497f9722a3daafe3b4186f6b6457e09190a35050565b62000277816040516024016200024391906200041b565b60408051601f198184030181529190526020810180516001600160e01b0390811663104c13eb60e21b17909152620002cb16565b50565b620002c782826040516024016200029392919062000437565b60408051601f198184030181529190526020810180516001600160e01b0390811663319af33360e01b17909152620002cb16565b5050565b80516a636f6e736f6c652e6c6f67602083016000808483855afa5050505050565b634e487b7160e01b600052604160045260246000fd5b60005b838110156200031f57818101518382015260200162000305565b838111156200032f576000848401525b50505050565b6000602082840312156200034857600080fd5b81516001600160401b03808211156200036057600080fd5b818401915084601f8301126200037557600080fd5b8151818111156200038a576200038a620002ec565b604051601f8201601f19908116603f01168101908382118183101715620003b557620003b5620002ec565b81604052828152876020848701011115620003cf57600080fd5b620003e283602083016020880162000302565b979650505050505050565b600081518084526200040781602086016020860162000302565b601f01601f19169290920160200192915050565b602081526000620004306020830184620003ed565b9392505050565b6040815260006200044c6040830185620003ed565b905060018060a01b03831660208301529392505050565b6080516129b7620004946000396000818161056501528181610a7c01528181610ddd0152610ef301526129b76000f3fe608060405234801561001057600080fd5b50600436106102065760003560e01c8063736f7ce71161011a57806398bc186a116100ad578063caced6c51161007c578063caced6c5146104b0578063d327c1eb146104c3578063d6d75cbf1461054d578063dfe86ac514610560578063f2fde38b1461058757600080fd5b806398bc186a14610464578063a2e01f7514610477578063a8444b3a1461048a578063bb5af5bd1461049d57600080fd5b80638a04499e116100e95780638a04499e146104025780638da5cb5b1461042d5780638dc34c4d1461043e57806397182ed61461045157600080fd5b8063736f7ce71461039b57806374e9d189146103ae5780637b577b58146103dc578063870eea55146103ef57600080fd5b80635cf1b24a1161019d5780636c2b12531161016c5780636c2b1253146103475780636f9658031461035a578063715018a61461036d5780637234eefe14610375578063732c36e81461038857600080fd5b80635cf1b24a146102e05780635d44b585146102f357806360b6d768146103215780636b6dc9de1461033457600080fd5b80633a481821116101d95780633a48182114610292578063463a3ce4146102a55780635068de4c146102ba5780635c6d9f0c146102cd57600080fd5b80630162f7221461020b57806308aaf6b0146102495780632f52a2fd1461025c5780632fad7efc1461026f575b600080fd5b610236610219366004611958565b600160209081526000928352604080842090915290825290205481565b6040519081526020015b60405180910390f35b610236610257366004611afb565b61059a565b61023661026a366004611c43565b61061a565b61028261027d366004611cc2565b610685565b6040519015158152602001610240565b6102366102a0366004611f1b565b61074c565b6102b86102b3366004611f9e565b6107c3565b005b6102826102c8366004611ff4565b610898565b6102826102db366004611cc2565b610a04565b6102366102ee366004612069565b610a1a565b61028261030136600461209d565b805160208183018101805160038252928201919093012091525460ff1681565b61023661032f36600461215a565b610a77565b6102b8610342366004611f9e565b610ac7565b61023661035536600461218e565b610b8a565b6102366103683660046121c2565b610be7565b6102b8610c38565b61023661038336600461215a565b610c8d565b61023661039636600461226d565b610ccb565b6102366103a93660046122a1565b610d08565b6102826103bc36600461209d565b805160208183018101805160048252928201919093012091525460ff1681565b6102366103ea3660046122d5565b610d70565b6102366103fd366004612309565b610dd8565b61041561041036600461218e565b610e05565b6040516001600160a01b039091168152602001610240565b6000546001600160a01b0316610415565b6102b861044c36600461233d565b610e2f565b61023661045f366004611c43565b610eee565b6102366104723660046123a0565b610f1b565b61023661048536600461244b565b610f67565b61041561049836600461226d565b610fd3565b6102366104ab3660046124be565b610ff7565b6104156104be3660046124be565b611028565b6102366104d13660046124f2565b8351602094850120835193850193909320604080517f8b73c3c69bb8fe3d512ecc4cf759cc79239f7b179b0ffacaa9a75d522b39400f8188015280820195909552606085019190915260808401929092526001600160a01b031660a0808401919091528151808403909101815260c09092019052805191012090565b61023661055b366004612309565b611052565b6102367f000000000000000000000000000000000000000000000000000000000000000081565b6102b861059536600461256f565b611093565b6000807f80ad7e1b04ee6d994a125f4714ca0720908bd80ed16063ec8aee4b88e9253e2d83600001518460200151805190602001206040516020016105fb939291909283526001600160a01b03919091166020830152604082015260600190565b60408051601f1981840301815291905280516020909101209392505050565b6000807f409f5114779a253e700d775d7845e6efc1e83685ac59868d2df3d4de51c7d621836000015184602001516106558660400151610d70565b6040805160208101959095526001600160a01b03909316928401929092526060830152608082015260a0016105fb565b6000805b8281101561074557368484838181106106a4576106a461258a565b90506020028101906106b691906125a0565b905060006106c66104be836125c0565b9050610712818787868181106106de576106de61258a565b90506020028101906106f091906125a0565b6106fa90806125cc565b60200180360381019061070d91906121c2565b6111d9565b61072f61071f83806125cc565b61072990806125e2565b836112a3565b505050808061073d90612641565b915050610689565b5092915050565b6000606060005b83518110156107b4578161077f8583815181106107725761077261258a565b6020026020010151610a1a565b60405160200161079092919061268a565b604051602081830303815290604052915080806107ac90612641565b915050610753565b50805160209091012092915050565b6107cb6116e6565b6001600160a01b03166107e66000546001600160a01b031690565b6001600160a01b0316146108155760405162461bcd60e51b815260040161080c906126ac565b60405180910390fd5b80600484846040516108289291906126e1565b908152604051908190036020018120805492151560ff199093169290921790915561085690849084906126e1565b6040519081900381208215158252907f88e1b1a43f3edcb9afe941dfea296f5bc32fab715b5fc9aa101ec26d87d2e8a2906020015b60405180910390a2505050565b60008181526002602052604081205460ff16156108f75760405162461bcd60e51b815260206004820152601b60248201527f44656c65676174696f6e20686173206265656e207265766f6b65640000000000604482015260640161080c565b600061090660408501856126f1565b61091591600491600091612737565b61091e91612761565b90506001600160e01b0319811663f2fde38b60e01b0361098c5760405162461bcd60e51b8152602060048201526024808201527f7472616e736665724f776e657273686970206973206e6f742064656c6567617460448201526361626c6560e01b606482015260840161080c565b6001600160e01b03198116630f374f3b60e31b036109f85760405162461bcd60e51b8152602060048201526024808201527f72656e6f756e63654f776e657273686970206973206e6f742064656c6567617460448201526361626c6560e01b606482015260840161080c565b50600195945050505050565b6000610a118383336112a3565b90505b92915050565b6000807fd97dd99b404d177890f06a8f0fc8e5ed0333fb2ebb6684360709066e8984f594610a4b8460000151610f67565b610a588560200151610d08565b60408051602081019490945283019190915260608201526080016105fb565b6000807f0000000000000000000000000000000000000000000000000000000000000000610aa484610c8d565b60405161190160f01b6020820152602281019290925260428201526062016105fb565b610acf6116e6565b6001600160a01b0316610aea6000546001600160a01b031690565b6001600160a01b031614610b105760405162461bcd60e51b815260040161080c906126ac565b8060038484604051610b239291906126e1565b908152604051908190036020018120805492151560ff1990931692909217909155610b5190849084906126e1565b6040519081900381208215158252907f9d3712f4978fc20b17a1dfbcd563f9aded75d05b6019427a9eca23245220138b9060200161088b565b6000807f3c36a06e1d288b0f94f565588317a46ad11bc3c96992109f9a2365a2737259a7610bbb846000015161061a565b6020808601518051908201206040516105fb949392019283526020830191909152604082015260600190565b6000807fe8d3d963b33868fb116316bc3fd55e8f49123f30e4418f71e140d54b7cd3b2b9836000015184602001516040516020016105fb939291909283526020830191909152604082015260600190565b610c406116e6565b6001600160a01b0316610c5b6000546001600160a01b031690565b6001600160a01b031614610c815760405162461bcd60e51b815260040161080c906126ac565b610c8b60006117b5565b565b6000807f08c69a206c06f5334b35ceb1186181a713b21aff02cf66285f375084fbef2eb8610cbe846000015161074c565b610a588560200151610be7565b6000807f1b0091a1d050ac3fa97e15af326cf512d740529b43d5750169acacda23de2788836000015180519060200120610a588560200151611052565b6000606060005b83518110156107b45781610d3b858381518110610d2e57610d2e61258a565b6020026020010151610b8a565b604051602001610d4c92919061268a565b60405160208183030381529060405291508080610d6890612641565b915050610d0f565b6000606060005b83518110156107b45781610da3858381518110610d9657610d9661258a565b602002602001015161059a565b604051602001610db492919061268a565b60405160208183030381529060405291508080610dd090612641565b915050610d77565b6000807f0000000000000000000000000000000000000000000000000000000000000000610aa484611052565b805160009081610e1482610eee565b90506000610e26828660200151611805565b95945050505050565b6000610e3d61041084612791565b90506000610e4d6104988461279d565b9050806001600160a01b0316826001600160a01b031614610ec05760405162461bcd60e51b815260206004820152602760248201527f4f6e6c7920746865207369676e65722063616e207265766f6b6520612064656c60448201526632b3b0ba34b7b760c91b606482015260840161080c565b6000610ece61035586612791565b6000908152600260205260409020805460ff191660011790555050505050565b6000807f0000000000000000000000000000000000000000000000000000000000000000610aa48461061a565b6000807f8b73c3c69bb8fe3d512ecc4cf759cc79239f7b179b0ffacaa9a75d522b39400f83600001518460200151856040015186606001516040516020016105fb9594939291906127d5565b6000807fb16dfdb3b8fa033fe30ac976cd4a50ad256b6811c80d90fcd0b323eec190047d836000015184602001518560400151805190602001206040516020016105fb94939291909384526001600160a01b039290921660208401526040830152606082015260800190565b602081015160009081610fe582610dd8565b90506000610e26828660000151611805565b6000807fc32b6dfe0f988d1f2b13248cddd88e320ff0ae86e3ccfe38bab77a80f4477d44610bbb8460000151610c8d565b6000806110388360000151610a77565b9050600061104a828560200151611805565b949350505050565b805160405160009182916105fb917f7148a5140265154d6c5200f68c3b86caca80512f179c3903dffd45aeaefc8ea891602001918252602082015260400190565b61109b6116e6565b6001600160a01b03166110b66000546001600160a01b031690565b6001600160a01b0316146110dc5760405162461bcd60e51b815260040161080c906126ac565b6001600160a01b0381166111415760405162461bcd60e51b815260206004820152602660248201527f4f776e61626c653a206e6577206f776e657220697320746865207a65726f206160448201526564647265737360d01b606482015260840161080c565b61114a816117b5565b50565b61114a816040516024016111619190612823565b60408051601f198184030181529190526020810180516001600160e01b031663104c13eb60e21b1790526118dc565b6111d582826040516024016111a6929190612836565b60408051601f198184030181529190526020810180516001600160e01b031663319af33360e01b1790526118dc565b5050565b60208082015182516001600160a01b038516600090815260018085526040808320858452909552939020549192909161121191612860565b81146112795760405162461bcd60e51b815260206004820152603160248201527f4f6e652d61742d612d74696d65206f7264657220656e666f726365642e204e6f6044820152701b98d94c881a5cc81d1bdbc81cdb585b1b607a1b606482015260840161080c565b6001600160a01b039093166000908152600160209081526040808320938352929052209190915550565b6000805b838110156116de5760008585838181106112c3576112c361258a565b90506020028101906112d591906125a0565b6112de90612878565b90506000808260200151516000036112f65750849050805b6000805b8460200151518110156115965760008560200151828151811061131f5761131f61258a565b60200260200101519050600061133482610e05565b905082600003611345578095508594505b846001600160a01b0316816001600160a01b0316146113bf5760405162461bcd60e51b815260206004820152603060248201527f44656c65676174696f6e207369676e657220646f6573206e6f74206d6174636860448201526f103932b8bab4b932b21039b4b3b732b960811b606482015260840161080c565b81516020810151851461143a5760405162461bcd60e51b815260206004820152603760248201527f44656c65676174696f6e20617574686f7269747920646f6573206e6f74206d6160448201527f7463682070726576696f75732064656c65676174696f6e000000000000000000606482015260840161080c565b600061144584610b8a565b905060005b8260400151518161ffff16101561157957600083604001518261ffff16815181106114775761147761258a565b60200260200101516000015190506000816001600160a01b0316635068de4c86604001518561ffff16815181106114b0576114b061258a565b6020026020010151602001518e60000151876040518463ffffffff1660e01b81526004016114e093929190612884565b6020604051808303816000875af11580156114ff573d6000803e3d6000fd5b505050506040513d601f19601f8201168201806040525081019061152391906128e0565b9050806115645760405162461bcd60e51b815260206004820152600f60248201526e10d85d99585d081c995a9958dd1959608a1b604482015260640161080c565b5050808061157190612904565b91505061144a565b5090519550935082915061158e905081612641565b9150506112fa565b50835180516001600160a01b031630146115f25760405162461bcd60e51b815260206004820181905260248201527f496e766f636174696f6e2074617267657420646f6573206e6f74206d61746368604482015260640161080c565b6040516001600160a01b0385811682528916907f185d11175440fcb6458fbc1889b02953452539ed80ad1da781a5449500f6d9609060200160405180910390a261164a816000015182604001518360200151876118fd565b96506116796040518060400160405280600c81526020016b54657374696e67206c6f677360a01b81525061114d565b866116c65760405162461bcd60e51b815260206004820152601c60248201527f44656c656761746f7220657865637574696f6e206661696c6564212100000000604482015260640161080c565b505050505080806116d690612641565b9150506112a7565b509392505050565b600030330361173c57600080368080601f0160208091040260200160405190810160405280939291908181526020018383808284376000920191909152505050503601516001600160a01b0316915061177d9050565b61177a6040518060400160405280601d81526020017f5573696e67206e6f726d616c206d73672e73656e646572206c6f67696300000081525061114d565b50335b6117b26040518060400160405280601381526020017252657475726e696e672073656e64657220257360681b81525082611190565b90565b600080546001600160a01b038381166001600160a01b0319831681178455604051919092169283917f8be0079c531659141344cd1fd0a4f28419497f9722a3daafe3b4186f6b6457e09190a35050565b60008060008084516041146118205760009350505050610a14565b50505060208201516040830151606084015160001a601b81101561184c57611849601b82612925565b90505b8060ff16601b1415801561186457508060ff16601c14155b156118755760009350505050610a14565b60408051600081526020810180835288905260ff831691810191909152606081018490526080810183905260019060a0016020604051602081039080840390855afa1580156118c8573d6000803e3d6000fd5b505050602060405103519350505050610a14565b80516a636f6e736f6c652e6c6f67602083016000808483855afa5050505050565b600080848360405160200161191392919061294a565b604051602081830303815290604052905060008082516020840160008a89f19695505050505050565b80356001600160a01b038116811461195357600080fd5b919050565b6000806040838503121561196b57600080fd5b6119748361193c565b946020939093013593505050565b634e487b7160e01b600052604160045260246000fd5b604080519081016001600160401b03811182821017156119ba576119ba611982565b60405290565b604051606081016001600160401b03811182821017156119ba576119ba611982565b604051608081016001600160401b03811182821017156119ba576119ba611982565b604051601f8201601f191681016001600160401b0381118282101715611a2c57611a2c611982565b604052919050565b600082601f830112611a4557600080fd5b81356001600160401b03811115611a5e57611a5e611982565b611a71601f8201601f1916602001611a04565b818152846020838601011115611a8657600080fd5b816020850160208301376000918101602001919091529392505050565b600060408284031215611ab557600080fd5b611abd611998565b9050611ac88261193c565b815260208201356001600160401b03811115611ae357600080fd5b611aef84828501611a34565b60208301525092915050565b600060208284031215611b0d57600080fd5b81356001600160401b03811115611b2357600080fd5b61104a84828501611aa3565b60006001600160401b03821115611b4857611b48611982565b5060051b60200190565b600082601f830112611b6357600080fd5b81356020611b78611b7383611b2f565b611a04565b82815260059290921b84018101918181019086841115611b9757600080fd5b8286015b84811015611bd65780356001600160401b03811115611bba5760008081fd5b611bc88986838b0101611aa3565b845250918301918301611b9b565b509695505050505050565b600060608284031215611bf357600080fd5b611bfb6119c0565b9050611c068261193c565b81526020820135602082015260408201356001600160401b03811115611c2b57600080fd5b611c3784828501611b52565b60408301525092915050565b600060208284031215611c5557600080fd5b81356001600160401b03811115611c6b57600080fd5b61104a84828501611be1565b60008083601f840112611c8957600080fd5b5081356001600160401b03811115611ca057600080fd5b6020830191508360208260051b8501011115611cbb57600080fd5b9250929050565b60008060208385031215611cd557600080fd5b82356001600160401b03811115611ceb57600080fd5b611cf785828601611c77565b90969095509350505050565b600060608284031215611d1557600080fd5b611d1d6119c0565b9050611d288261193c565b81526020820135602082015260408201356001600160401b03811115611d4d57600080fd5b611c3784828501611a34565b600060408284031215611d6b57600080fd5b611d73611998565b905081356001600160401b0380821115611d8c57600080fd5b611d9885838601611be1565b83526020840135915080821115611dae57600080fd5b50611aef84828501611a34565b600082601f830112611dcc57600080fd5b81356020611ddc611b7383611b2f565b82815260059290921b84018101918181019086841115611dfb57600080fd5b8286015b84811015611bd65780356001600160401b03811115611e1e5760008081fd5b611e2c8986838b0101611d59565b845250918301918301611dff565b600060408284031215611e4c57600080fd5b611e54611998565b905081356001600160401b0380821115611e6d57600080fd5b611e7985838601611d03565b83526020840135915080821115611e8f57600080fd5b50611aef84828501611dbb565b600082601f830112611ead57600080fd5b81356020611ebd611b7383611b2f565b82815260059290921b84018101918181019086841115611edc57600080fd5b8286015b84811015611bd65780356001600160401b03811115611eff5760008081fd5b611f0d8986838b0101611e3a565b845250918301918301611ee0565b600060208284031215611f2d57600080fd5b81356001600160401b03811115611f4357600080fd5b61104a84828501611e9c565b60008083601f840112611f6157600080fd5b5081356001600160401b03811115611f7857600080fd5b602083019150836020828501011115611cbb57600080fd5b801515811461114a57600080fd5b600080600060408486031215611fb357600080fd5b83356001600160401b03811115611fc957600080fd5b611fd586828701611f4f565b9094509250506020840135611fe981611f90565b809150509250925092565b6000806000806060858703121561200a57600080fd5b84356001600160401b038082111561202157600080fd5b61202d88838901611f4f565b9096509450602087013591508082111561204657600080fd5b5085016060818803121561205957600080fd5b9396929550929360400135925050565b60006020828403121561207b57600080fd5b81356001600160401b0381111561209157600080fd5b61104a84828501611e3a565b6000602082840312156120af57600080fd5b81356001600160401b038111156120c557600080fd5b61104a84828501611a34565b6000604082840312156120e357600080fd5b6120eb611998565b9050813581526020820135602082015292915050565b60006060828403121561211357600080fd5b61211b611998565b905081356001600160401b0381111561213357600080fd5b61213f84828501611e9c565b82525061214f83602084016120d1565b602082015292915050565b60006020828403121561216c57600080fd5b81356001600160401b0381111561218257600080fd5b61104a84828501612101565b6000602082840312156121a057600080fd5b81356001600160401b038111156121b657600080fd5b61104a84828501611d59565b6000604082840312156121d457600080fd5b610a1183836120d1565b6000602082840312156121f057600080fd5b604051602081018181106001600160401b038211171561221257612212611982565b6040529135825250919050565b60006040828403121561223157600080fd5b612239611998565b905081356001600160401b0381111561225157600080fd5b61225d84828501611a34565b82525061214f83602084016121de565b60006020828403121561227f57600080fd5b81356001600160401b0381111561229557600080fd5b61104a8482850161221f565b6000602082840312156122b357600080fd5b81356001600160401b038111156122c957600080fd5b61104a84828501611dbb565b6000602082840312156122e757600080fd5b81356001600160401b038111156122fd57600080fd5b61104a84828501611b52565b60006020828403121561231b57600080fd5b610a1183836121de565b60006040828403121561233757600080fd5b50919050565b6000806040838503121561235057600080fd5b82356001600160401b038082111561236757600080fd5b61237386838701612325565b9350602085013591508082111561238957600080fd5b5061239685828601612325565b9150509250929050565b6000602082840312156123b257600080fd5b81356001600160401b03808211156123c957600080fd5b90830190608082860312156123dd57600080fd5b6123e56119e2565b8235828111156123f457600080fd5b61240087828601611a34565b82525060208301358281111561241557600080fd5b61242187828601611a34565b6020830152506040830135604082015261243d6060840161193c565b606082015295945050505050565b60006020828403121561245d57600080fd5b81356001600160401b0381111561247357600080fd5b61104a84828501611d03565b60006040828403121561249157600080fd5b612499611998565b905081356001600160401b03808211156124b257600080fd5b611d9885838601612101565b6000602082840312156124d057600080fd5b81356001600160401b038111156124e657600080fd5b61104a8482850161247f565b6000806000806080858703121561250857600080fd5b84356001600160401b038082111561251f57600080fd5b61252b88838901611a34565b9550602087013591508082111561254157600080fd5b5061254e87828801611a34565b935050604085013591506125646060860161193c565b905092959194509250565b60006020828403121561258157600080fd5b610a118261193c565b634e487b7160e01b600052603260045260246000fd5b60008235603e198336030181126125b657600080fd5b9190910192915050565b6000610a14368361247f565b60008235605e198336030181126125b657600080fd5b6000808335601e198436030181126125f957600080fd5b8301803591506001600160401b0382111561261357600080fd5b6020019150600581901b3603821315611cbb57600080fd5b634e487b7160e01b600052601160045260246000fd5b6000600182016126535761265361262b565b5060010190565b60005b8381101561267557818101518382015260200161265d565b83811115612684576000848401525b50505050565b6000835161269c81846020880161265a565b9190910191825250602001919050565b6020808252818101527f4f776e61626c653a2063616c6c6572206973206e6f7420746865206f776e6572604082015260600190565b8183823760009101908152919050565b6000808335601e1984360301811261270857600080fd5b8301803591506001600160401b0382111561272257600080fd5b602001915036819003821315611cbb57600080fd5b6000808585111561274757600080fd5b8386111561275457600080fd5b5050820193919092039150565b6001600160e01b031981358181169160048510156127895780818660040360031b1b83161692505b505092915050565b6000610a143683611d59565b6000610a14368361221f565b600081518084526127c181602086016020860161265a565b601f01601f19169290920160200192915050565b85815260a0602082015260006127ee60a08301876127a9565b828103604084015261280081876127a9565b606084019590955250506001600160a01b03919091166080909101529392505050565b602081526000610a1160208301846127a9565b60408152600061284960408301856127a9565b905060018060a01b03831660208301529392505050565b600082198211156128735761287361262b565b500190565b6000610a143683611e3a565b60608152600061289760608301866127a9565b828103602084015260018060a01b038551168152602085015160208201526040850151606060408301526128ce60608301826127a9565b92505050826040830152949350505050565b6000602082840312156128f257600080fd5b81516128fd81611f90565b9392505050565b600061ffff80831681810361291b5761291b61262b565b6001019392505050565b600060ff821660ff84168060ff038211156129425761294261262b565b019392505050565b6000835161295c81846020880161265a565b60609390931b6bffffffffffffffffffffffff1916919092019081526014019291505056fea26469706673582212200b94c19c34b6b185860ebcbb490f6d9d899a46a8e5e2bb7a178a2c5ff44973c564736f6c634300080d0033",
  "linkReferences": {},
  "deployedLinkReferences": {}
}