{
  "_format": "hh-sol-artifact-1",
  "contractName": "ExpirationEnforcer",
  "sourceName": "contracts/caveat-enforcers/ExpirationEnforcer.sol",
  "abi": [
    {
      "inputs": [
        {
          "internalType": "bytes",
          "name": "terms",
          "type": "bytes"
        },
        {
          "components": [
            {
              "internalType": "address",
              "name": "to",
              "type": "address"
            },
            {
              "internalType": "uint256",
              "name": "gasLimit",
              "type": "uint256"
            },
            {
              "internalType": "bytes",
              "name": "data",
              "type": "bytes"
            }
          ],
          "internalType": "struct Transaction",
          "name": "_transaction",
          "type": "tuple"
        },
        {
          "internalType": "bytes32",
          "name": "_delegationHash",
          "type": "bytes32"
        }
      ],
      "name": "enforceCaveat",
      "outputs": [
        {
          "internalType": "bool",
          "name": "",
          "type": "bool"
        }
      ],
      "stateMutability": "view",
      "type": "function"
    }
  ],
  "bytecode": "0x608060405234801561001057600080fd5b50610494806100206000396000f3fe608060405234801561001057600080fd5b506004361061002b5760003560e01c80635068de4c14610030575b600080fd5b61004361003e36600461020c565b610057565b604051901515815260200160405180910390f35b600080610063856100bb565b90504281116100b05760405162461bcd60e51b8152602060048201526015602482015274115e1c1a5c985d1a5bdb881a185cc81c185cdcd959605a1b604482015260640160405180910390fd5b506001949350505050565b60008060005b8351811015610139576100d58160016102e8565b84516100e19190610300565b6100ec906008610317565b6100f790600261041c565b8482815181106101095761010961042f565b016020015161011b919060f81c610317565b61012590836102e8565b91508061013181610445565b9150506100c1565b5092915050565b634e487b7160e01b600052604160045260246000fd5b6040516060810167ffffffffffffffff8111828210171561017957610179610140565b60405290565b600082601f83011261019057600080fd5b813567ffffffffffffffff808211156101ab576101ab610140565b604051601f8301601f19908116603f011681019082821181831017156101d3576101d3610140565b816040528381528660208588010111156101ec57600080fd5b836020870160208301376000602085830101528094505050505092915050565b60008060006060848603121561022157600080fd5b833567ffffffffffffffff8082111561023957600080fd5b6102458783880161017f565b9450602086013591508082111561025b57600080fd5b908501906060828803121561026f57600080fd5b610277610156565b82356001600160a01b038116811461028e57600080fd5b8152602083810135908201526040830135828111156102ac57600080fd5b6102b88982860161017f565b604083015250809450505050604084013590509250925092565b634e487b7160e01b600052601160045260246000fd5b600082198211156102fb576102fb6102d2565b500190565b600082821015610312576103126102d2565b500390565b6000816000190483118215151615610331576103316102d2565b500290565b600181815b80851115610371578160001904821115610357576103576102d2565b8085161561036457918102915b93841c939080029061033b565b509250929050565b60008261038857506001610416565b8161039557506000610416565b81600181146103ab57600281146103b5576103d1565b6001915050610416565b60ff8411156103c6576103c66102d2565b50506001821b610416565b5060208310610133831016604e8410600b84101617156103f4575081810a610416565b6103fe8383610336565b8060001904821115610412576104126102d2565b0290505b92915050565b60006104288383610379565b9392505050565b634e487b7160e01b600052603260045260246000fd5b600060018201610457576104576102d2565b506001019056fea26469706673582212207127030542751077c225c26f21b3aabe0b8ace76d1fd8d03623ca7c43c9d909f64736f6c634300080d0033",
  "linkReferences": {},
  "deployedLinkReferences": {}
}