{
  "_format": "hh-sol-artifact-1",
  "contractName": "DelegatableToken",
  "sourceName": "contracts/Examples/DelegatableERC20.sol",
  "abi": [
    {
      "inputs": [
        {
          "internalType": "string",
          "name": "name",
          "type": "string"
        },
        {
          "internalType": "string",
          "name": "symbol",
          "type": "string"
        },
        {
          "internalType": "uint256",
          "name": "amount",
          "type": "uint256"
        }
      ],
      "stateMutability": "nonpayable",
      "type": "constructor"
    },
    {
      "anonymous": false,
      "inputs": [
        {
          "indexed": true,
          "internalType": "address",
          "name": "owner",
          "type": "address"
        },
        {
          "indexed": true,
          "internalType": "address",
          "name": "spender",
          "type": "address"
        },
        {
          "indexed": false,
          "internalType": "uint256",
          "name": "value",
          "type": "uint256"
        }
      ],
      "name": "Approval",
      "type": "event"
    },
    {
      "anonymous": false,
      "inputs": [
        {
          "indexed": true,
          "internalType": "address",
          "name": "previousOwner",
          "type": "address"
        },
        {
          "indexed": true,
          "internalType": "address",
          "name": "newOwner",
          "type": "address"
        }
      ],
      "name": "OwnershipTransferred",
      "type": "event"
    },
    {
      "anonymous": false,
      "inputs": [
        {
          "indexed": true,
          "internalType": "address",
          "name": "from",
          "type": "address"
        },
        {
          "indexed": true,
          "internalType": "address",
          "name": "to",
          "type": "address"
        },
        {
          "indexed": false,
          "internalType": "uint256",
          "name": "value",
          "type": "uint256"
        }
      ],
      "name": "Transfer",
      "type": "event"
    },
    {
      "inputs": [
        {
          "components": [
            {
              "internalType": "address",
              "name": "enforcer",
              "type": "address"
            },
            {
              "internalType": "bytes",
              "name": "terms",
              "type": "bytes"
            }
          ],
          "internalType": "struct Caveat[]",
          "name": "_input",
          "type": "tuple[]"
        }
      ],
      "name": "GET_CAVEAT_ARRAY_PACKETHASH",
      "outputs": [
        {
          "internalType": "bytes32",
          "name": "",
          "type": "bytes32"
        }
      ],
      "stateMutability": "pure",
      "type": "function"
    },
    {
      "inputs": [
        {
          "components": [
            {
              "internalType": "address",
              "name": "enforcer",
              "type": "address"
            },
            {
              "internalType": "bytes",
              "name": "terms",
              "type": "bytes"
            }
          ],
          "internalType": "struct Caveat",
          "name": "_input",
          "type": "tuple"
        }
      ],
      "name": "GET_CAVEAT_PACKETHASH",
      "outputs": [
        {
          "internalType": "bytes32",
          "name": "",
          "type": "bytes32"
        }
      ],
      "stateMutability": "pure",
      "type": "function"
    },
    {
      "inputs": [
        {
          "components": [
            {
              "internalType": "address",
              "name": "delegate",
              "type": "address"
            },
            {
              "internalType": "bytes32",
              "name": "authority",
              "type": "bytes32"
            },
            {
              "components": [
                {
                  "internalType": "address",
                  "name": "enforcer",
                  "type": "address"
                },
                {
                  "internalType": "bytes",
                  "name": "terms",
                  "type": "bytes"
                }
              ],
              "internalType": "struct Caveat[]",
              "name": "caveats",
              "type": "tuple[]"
            }
          ],
          "internalType": "struct Delegation",
          "name": "_input",
          "type": "tuple"
        }
      ],
      "name": "GET_DELEGATION_PACKETHASH",
      "outputs": [
        {
          "internalType": "bytes32",
          "name": "",
          "type": "bytes32"
        }
      ],
      "stateMutability": "pure",
      "type": "function"
    },
    {
      "inputs": [
        {
          "components": [
            {
              "internalType": "string",
              "name": "name",
              "type": "string"
            },
            {
              "internalType": "string",
              "name": "version",
              "type": "string"
            },
            {
              "internalType": "uint256",
              "name": "chainId",
              "type": "uint256"
            },
            {
              "internalType": "address",
              "name": "verifyingContract",
              "type": "address"
            }
          ],
          "internalType": "struct EIP712Domain",
          "name": "_input",
          "type": "tuple"
        }
      ],
      "name": "GET_EIP712DOMAIN_PACKETHASH",
      "outputs": [
        {
          "internalType": "bytes32",
          "name": "",
          "type": "bytes32"
        }
      ],
      "stateMutability": "pure",
      "type": "function"
    },
    {
      "inputs": [
        {
          "components": [
            {
              "components": [
                {
                  "components": [
                    {
                      "internalType": "address",
                      "name": "to",
                      "type": "address"
                    },
                    {
                      "internalType": "uint256",
                      "name": "gasLimit",
                      "type": "uint256"
                    },
                    {
                      "internalType": "bytes",
                      "name": "data",
                      "type": "bytes"
                    }
                  ],
                  "internalType": "struct Transaction",
                  "name": "transaction",
                  "type": "tuple"
                },
                {
                  "components": [
                    {
                      "components": [
                        {
                          "internalType": "address",
                          "name": "delegate",
                          "type": "address"
                        },
                        {
                          "internalType": "bytes32",
                          "name": "authority",
                          "type": "bytes32"
                        },
                        {
                          "components": [
                            {
                              "internalType": "address",
                              "name": "enforcer",
                              "type": "address"
                            },
                            {
                              "internalType": "bytes",
                              "name": "terms",
                              "type": "bytes"
                            }
                          ],
                          "internalType": "struct Caveat[]",
                          "name": "caveats",
                          "type": "tuple[]"
                        }
                      ],
                      "internalType": "struct Delegation",
                      "name": "delegation",
                      "type": "tuple"
                    },
                    {
                      "internalType": "bytes",
                      "name": "signature",
                      "type": "bytes"
                    }
                  ],
                  "internalType": "struct SignedDelegation[]",
                  "name": "authority",
                  "type": "tuple[]"
                }
              ],
              "internalType": "struct Invocation[]",
              "name": "batch",
              "type": "tuple[]"
            },
            {
              "components": [
                {
                  "internalType": "uint256",
                  "name": "nonce",
                  "type": "uint256"
                },
                {
                  "internalType": "uint256",
                  "name": "queue",
                  "type": "uint256"
                }
              ],
              "internalType": "struct ReplayProtection",
              "name": "replayProtection",
              "type": "tuple"
            }
          ],
          "internalType": "struct Invocations",
          "name": "_input",
          "type": "tuple"
        }
      ],
      "name": "GET_INVOCATIONS_PACKETHASH",
      "outputs": [
        {
          "internalType": "bytes32",
          "name": "",
          "type": "bytes32"
        }
      ],
      "stateMutability": "pure",
      "type": "function"
    },
    {
      "inputs": [
        {
          "components": [
            {
              "components": [
                {
                  "internalType": "address",
                  "name": "to",
                  "type": "address"
                },
                {
                  "internalType": "uint256",
                  "name": "gasLimit",
                  "type": "uint256"
                },
                {
                  "internalType": "bytes",
                  "name": "data",
                  "type": "bytes"
                }
              ],
              "internalType": "struct Transaction",
              "name": "transaction",
              "type": "tuple"
            },
            {
              "components": [
                {
                  "components": [
                    {
                      "internalType": "address",
                      "name": "delegate",
                      "type": "address"
                    },
                    {
                      "internalType": "bytes32",
                      "name": "authority",
                      "type": "bytes32"
                    },
                    {
                      "components": [
                        {
                          "internalType": "address",
                          "name": "enforcer",
                          "type": "address"
                        },
                        {
                          "internalType": "bytes",
                          "name": "terms",
                          "type": "bytes"
                        }
                      ],
                      "internalType": "struct Caveat[]",
                      "name": "caveats",
                      "type": "tuple[]"
                    }
                  ],
                  "internalType": "struct Delegation",
                  "name": "delegation",
                  "type": "tuple"
                },
                {
                  "internalType": "bytes",
                  "name": "signature",
                  "type": "bytes"
                }
              ],
              "internalType": "struct SignedDelegation[]",
              "name": "authority",
              "type": "tuple[]"
            }
          ],
          "internalType": "struct Invocation[]",
          "name": "_input",
          "type": "tuple[]"
        }
      ],
      "name": "GET_INVOCATION_ARRAY_PACKETHASH",
      "outputs": [
        {
          "internalType": "bytes32",
          "name": "",
          "type": "bytes32"
        }
      ],
      "stateMutability": "pure",
      "type": "function"
    },
    {
      "inputs": [
        {
          "components": [
            {
              "components": [
                {
                  "internalType": "address",
                  "name": "to",
                  "type": "address"
                },
                {
                  "internalType": "uint256",
                  "name": "gasLimit",
                  "type": "uint256"
                },
                {
                  "internalType": "bytes",
                  "name": "data",
                  "type": "bytes"
                }
              ],
              "internalType": "struct Transaction",
              "name": "transaction",
              "type": "tuple"
            },
            {
              "components": [
                {
                  "components": [
                    {
                      "internalType": "address",
                      "name": "delegate",
                      "type": "address"
                    },
                    {
                      "internalType": "bytes32",
                      "name": "authority",
                      "type": "bytes32"
                    },
                    {
                      "components": [
                        {
                          "internalType": "address",
                          "name": "enforcer",
                          "type": "address"
                        },
                        {
                          "internalType": "bytes",
                          "name": "terms",
                          "type": "bytes"
                        }
                      ],
                      "internalType": "struct Caveat[]",
                      "name": "caveats",
                      "type": "tuple[]"
                    }
                  ],
                  "internalType": "struct Delegation",
                  "name": "delegation",
                  "type": "tuple"
                },
                {
                  "internalType": "bytes",
                  "name": "signature",
                  "type": "bytes"
                }
              ],
              "internalType": "struct SignedDelegation[]",
              "name": "authority",
              "type": "tuple[]"
            }
          ],
          "internalType": "struct Invocation",
          "name": "_input",
          "type": "tuple"
        }
      ],
      "name": "GET_INVOCATION_PACKETHASH",
      "outputs": [
        {
          "internalType": "bytes32",
          "name": "",
          "type": "bytes32"
        }
      ],
      "stateMutability": "pure",
      "type": "function"
    },
    {
      "inputs": [
        {
          "components": [
            {
              "internalType": "uint256",
              "name": "nonce",
              "type": "uint256"
            },
            {
              "internalType": "uint256",
              "name": "queue",
              "type": "uint256"
            }
          ],
          "internalType": "struct ReplayProtection",
          "name": "_input",
          "type": "tuple"
        }
      ],
      "name": "GET_REPLAYPROTECTION_PACKETHASH",
      "outputs": [
        {
          "internalType": "bytes32",
          "name": "",
          "type": "bytes32"
        }
      ],
      "stateMutability": "pure",
      "type": "function"
    },
    {
      "inputs": [
        {
          "components": [
            {
              "components": [
                {
                  "internalType": "address",
                  "name": "delegate",
                  "type": "address"
                },
                {
                  "internalType": "bytes32",
                  "name": "authority",
                  "type": "bytes32"
                },
                {
                  "components": [
                    {
                      "internalType": "address",
                      "name": "enforcer",
                      "type": "address"
                    },
                    {
                      "internalType": "bytes",
                      "name": "terms",
                      "type": "bytes"
                    }
                  ],
                  "internalType": "struct Caveat[]",
                  "name": "caveats",
                  "type": "tuple[]"
                }
              ],
              "internalType": "struct Delegation",
              "name": "delegation",
              "type": "tuple"
            },
            {
              "internalType": "bytes",
              "name": "signature",
              "type": "bytes"
            }
          ],
          "internalType": "struct SignedDelegation[]",
          "name": "_input",
          "type": "tuple[]"
        }
      ],
      "name": "GET_SIGNEDDELEGATION_ARRAY_PACKETHASH",
      "outputs": [
        {
          "internalType": "bytes32",
          "name": "",
          "type": "bytes32"
        }
      ],
      "stateMutability": "pure",
      "type": "function"
    },
    {
      "inputs": [
        {
          "components": [
            {
              "components": [
                {
                  "internalType": "address",
                  "name": "delegate",
                  "type": "address"
                },
                {
                  "internalType": "bytes32",
                  "name": "authority",
                  "type": "bytes32"
                },
                {
                  "components": [
                    {
                      "internalType": "address",
                      "name": "enforcer",
                      "type": "address"
                    },
                    {
                      "internalType": "bytes",
                      "name": "terms",
                      "type": "bytes"
                    }
                  ],
                  "internalType": "struct Caveat[]",
                  "name": "caveats",
                  "type": "tuple[]"
                }
              ],
              "internalType": "struct Delegation",
              "name": "delegation",
              "type": "tuple"
            },
            {
              "internalType": "bytes",
              "name": "signature",
              "type": "bytes"
            }
          ],
          "internalType": "struct SignedDelegation",
          "name": "_input",
          "type": "tuple"
        }
      ],
      "name": "GET_SIGNEDDELEGATION_PACKETHASH",
      "outputs": [
        {
          "internalType": "bytes32",
          "name": "",
          "type": "bytes32"
        }
      ],
      "stateMutability": "pure",
      "type": "function"
    },
    {
      "inputs": [
        {
          "components": [
            {
              "components": [
                {
                  "components": [
                    {
                      "components": [
                        {
                          "internalType": "address",
                          "name": "to",
                          "type": "address"
                        },
                        {
                          "internalType": "uint256",
                          "name": "gasLimit",
                          "type": "uint256"
                        },
                        {
                          "internalType": "bytes",
                          "name": "data",
                          "type": "bytes"
                        }
                      ],
                      "internalType": "struct Transaction",
                      "name": "transaction",
                      "type": "tuple"
                    },
                    {
                      "components": [
                        {
                          "components": [
                            {
                              "internalType": "address",
                              "name": "delegate",
                              "type": "address"
                            },
                            {
                              "internalType": "bytes32",
                              "name": "authority",
                              "type": "bytes32"
                            },
                            {
                              "components": [
                                {
                                  "internalType": "address",
                                  "name": "enforcer",
                                  "type": "address"
                                },
                                {
                                  "internalType": "bytes",
                                  "name": "terms",
                                  "type": "bytes"
                                }
                              ],
                              "internalType": "struct Caveat[]",
                              "name": "caveats",
                              "type": "tuple[]"
                            }
                          ],
                          "internalType": "struct Delegation",
                          "name": "delegation",
                          "type": "tuple"
                        },
                        {
                          "internalType": "bytes",
                          "name": "signature",
                          "type": "bytes"
                        }
                      ],
                      "internalType": "struct SignedDelegation[]",
                      "name": "authority",
                      "type": "tuple[]"
                    }
                  ],
                  "internalType": "struct Invocation[]",
                  "name": "batch",
                  "type": "tuple[]"
                },
                {
                  "components": [
                    {
                      "internalType": "uint256",
                      "name": "nonce",
                      "type": "uint256"
                    },
                    {
                      "internalType": "uint256",
                      "name": "queue",
                      "type": "uint256"
                    }
                  ],
                  "internalType": "struct ReplayProtection",
                  "name": "replayProtection",
                  "type": "tuple"
                }
              ],
              "internalType": "struct Invocations",
              "name": "invocations",
              "type": "tuple"
            },
            {
              "internalType": "bytes",
              "name": "signature",
              "type": "bytes"
            }
          ],
          "internalType": "struct SignedInvocation",
          "name": "_input",
          "type": "tuple"
        }
      ],
      "name": "GET_SIGNEDINVOCATION_PACKETHASH",
      "outputs": [
        {
          "internalType": "bytes32",
          "name": "",
          "type": "bytes32"
        }
      ],
      "stateMutability": "pure",
      "type": "function"
    },
    {
      "inputs": [
        {
          "components": [
            {
              "internalType": "address",
              "name": "to",
              "type": "address"
            },
            {
              "internalType": "uint256",
              "name": "gasLimit",
              "type": "uint256"
            },
            {
              "internalType": "bytes",
              "name": "data",
              "type": "bytes"
            }
          ],
          "internalType": "struct Transaction",
          "name": "_input",
          "type": "tuple"
        }
      ],
      "name": "GET_TRANSACTION_PACKETHASH",
      "outputs": [
        {
          "internalType": "bytes32",
          "name": "",
          "type": "bytes32"
        }
      ],
      "stateMutability": "pure",
      "type": "function"
    },
    {
      "inputs": [
        {
          "internalType": "address",
          "name": "owner",
          "type": "address"
        },
        {
          "internalType": "address",
          "name": "spender",
          "type": "address"
        }
      ],
      "name": "allowance",
      "outputs": [
        {
          "internalType": "uint256",
          "name": "",
          "type": "uint256"
        }
      ],
      "stateMutability": "view",
      "type": "function"
    },
    {
      "inputs": [
        {
          "internalType": "address",
          "name": "spender",
          "type": "address"
        },
        {
          "internalType": "uint256",
          "name": "amount",
          "type": "uint256"
        }
      ],
      "name": "approve",
      "outputs": [
        {
          "internalType": "bool",
          "name": "",
          "type": "bool"
        }
      ],
      "stateMutability": "nonpayable",
      "type": "function"
    },
    {
      "inputs": [
        {
          "internalType": "address",
          "name": "account",
          "type": "address"
        }
      ],
      "name": "balanceOf",
      "outputs": [
        {
          "internalType": "uint256",
          "name": "",
          "type": "uint256"
        }
      ],
      "stateMutability": "view",
      "type": "function"
    },
    {
      "inputs": [
        {
          "components": [
            {
              "components": [
                {
                  "internalType": "address",
                  "name": "to",
                  "type": "address"
                },
                {
                  "internalType": "uint256",
                  "name": "gasLimit",
                  "type": "uint256"
                },
                {
                  "internalType": "bytes",
                  "name": "data",
                  "type": "bytes"
                }
              ],
              "internalType": "struct Transaction",
              "name": "transaction",
              "type": "tuple"
            },
            {
              "components": [
                {
                  "components": [
                    {
                      "internalType": "address",
                      "name": "delegate",
                      "type": "address"
                    },
                    {
                      "internalType": "bytes32",
                      "name": "authority",
                      "type": "bytes32"
                    },
                    {
                      "components": [
                        {
                          "internalType": "address",
                          "name": "enforcer",
                          "type": "address"
                        },
                        {
                          "internalType": "bytes",
                          "name": "terms",
                          "type": "bytes"
                        }
                      ],
                      "internalType": "struct Caveat[]",
                      "name": "caveats",
                      "type": "tuple[]"
                    }
                  ],
                  "internalType": "struct Delegation",
                  "name": "delegation",
                  "type": "tuple"
                },
                {
                  "internalType": "bytes",
                  "name": "signature",
                  "type": "bytes"
                }
              ],
              "internalType": "struct SignedDelegation[]",
              "name": "authority",
              "type": "tuple[]"
            }
          ],
          "internalType": "struct Invocation[]",
          "name": "batch",
          "type": "tuple[]"
        }
      ],
      "name": "contractInvoke",
      "outputs": [
        {
          "internalType": "bool",
          "name": "",
          "type": "bool"
        }
      ],
      "stateMutability": "nonpayable",
      "type": "function"
    },
    {
      "inputs": [],
      "name": "decimals",
      "outputs": [
        {
          "internalType": "uint8",
          "name": "",
          "type": "uint8"
        }
      ],
      "stateMutability": "view",
      "type": "function"
    },
    {
      "inputs": [
        {
          "internalType": "address",
          "name": "spender",
          "type": "address"
        },
        {
          "internalType": "uint256",
          "name": "subtractedValue",
          "type": "uint256"
        }
      ],
      "name": "decreaseAllowance",
      "outputs": [
        {
          "internalType": "bool",
          "name": "",
          "type": "bool"
        }
      ],
      "stateMutability": "nonpayable",
      "type": "function"
    },
    {
      "inputs": [],
      "name": "domainHash",
      "outputs": [
        {
          "internalType": "bytes32",
          "name": "",
          "type": "bytes32"
        }
      ],
      "stateMutability": "view",
      "type": "function"
    },
    {
      "inputs": [
        {
          "components": [
            {
              "internalType": "address",
              "name": "delegate",
              "type": "address"
            },
            {
              "internalType": "bytes32",
              "name": "authority",
              "type": "bytes32"
            },
            {
              "components": [
                {
                  "internalType": "address",
                  "name": "enforcer",
                  "type": "address"
                },
                {
                  "internalType": "bytes",
                  "name": "terms",
                  "type": "bytes"
                }
              ],
              "internalType": "struct Caveat[]",
              "name": "caveats",
              "type": "tuple[]"
            }
          ],
          "internalType": "struct Delegation",
          "name": "delegation",
          "type": "tuple"
        }
      ],
      "name": "getDelegationTypedDataHash",
      "outputs": [
        {
          "internalType": "bytes32",
          "name": "",
          "type": "bytes32"
        }
      ],
      "stateMutability": "view",
      "type": "function"
    },
    {
      "inputs": [
        {
          "internalType": "string",
          "name": "contractName",
          "type": "string"
        },
        {
          "internalType": "string",
          "name": "version",
          "type": "string"
        },
        {
          "internalType": "uint256",
          "name": "chainId",
          "type": "uint256"
        },
        {
          "internalType": "address",
          "name": "verifyingContract",
          "type": "address"
        }
      ],
      "name": "getEIP712DomainHash",
      "outputs": [
        {
          "internalType": "bytes32",
          "name": "",
          "type": "bytes32"
        }
      ],
      "stateMutability": "pure",
      "type": "function"
    },
    {
      "inputs": [
        {
          "components": [
            {
              "components": [
                {
                  "components": [
                    {
                      "internalType": "address",
                      "name": "to",
                      "type": "address"
                    },
                    {
                      "internalType": "uint256",
                      "name": "gasLimit",
                      "type": "uint256"
                    },
                    {
                      "internalType": "bytes",
                      "name": "data",
                      "type": "bytes"
                    }
                  ],
                  "internalType": "struct Transaction",
                  "name": "transaction",
                  "type": "tuple"
                },
                {
                  "components": [
                    {
                      "components": [
                        {
                          "internalType": "address",
                          "name": "delegate",
                          "type": "address"
                        },
                        {
                          "internalType": "bytes32",
                          "name": "authority",
                          "type": "bytes32"
                        },
                        {
                          "components": [
                            {
                              "internalType": "address",
                              "name": "enforcer",
                              "type": "address"
                            },
                            {
                              "internalType": "bytes",
                              "name": "terms",
                              "type": "bytes"
                            }
                          ],
                          "internalType": "struct Caveat[]",
                          "name": "caveats",
                          "type": "tuple[]"
                        }
                      ],
                      "internalType": "struct Delegation",
                      "name": "delegation",
                      "type": "tuple"
                    },
                    {
                      "internalType": "bytes",
                      "name": "signature",
                      "type": "bytes"
                    }
                  ],
                  "internalType": "struct SignedDelegation[]",
                  "name": "authority",
                  "type": "tuple[]"
                }
              ],
              "internalType": "struct Invocation[]",
              "name": "batch",
              "type": "tuple[]"
            },
            {
              "components": [
                {
                  "internalType": "uint256",
                  "name": "nonce",
                  "type": "uint256"
                },
                {
                  "internalType": "uint256",
                  "name": "queue",
                  "type": "uint256"
                }
              ],
              "internalType": "struct ReplayProtection",
              "name": "replayProtection",
              "type": "tuple"
            }
          ],
          "internalType": "struct Invocations",
          "name": "invocations",
          "type": "tuple"
        }
      ],
      "name": "getInvocationsTypedDataHash",
      "outputs": [
        {
          "internalType": "bytes32",
          "name": "",
          "type": "bytes32"
        }
      ],
      "stateMutability": "view",
      "type": "function"
    },
    {
      "inputs": [
        {
          "internalType": "address",
          "name": "spender",
          "type": "address"
        },
        {
          "internalType": "uint256",
          "name": "addedValue",
          "type": "uint256"
        }
      ],
      "name": "increaseAllowance",
      "outputs": [
        {
          "internalType": "bool",
          "name": "",
          "type": "bool"
        }
      ],
      "stateMutability": "nonpayable",
      "type": "function"
    },
    {
      "inputs": [
        {
          "components": [
            {
              "components": [
                {
                  "components": [
                    {
                      "components": [
                        {
                          "internalType": "address",
                          "name": "to",
                          "type": "address"
                        },
                        {
                          "internalType": "uint256",
                          "name": "gasLimit",
                          "type": "uint256"
                        },
                        {
                          "internalType": "bytes",
                          "name": "data",
                          "type": "bytes"
                        }
                      ],
                      "internalType": "struct Transaction",
                      "name": "transaction",
                      "type": "tuple"
                    },
                    {
                      "components": [
                        {
                          "components": [
                            {
                              "internalType": "address",
                              "name": "delegate",
                              "type": "address"
                            },
                            {
                              "internalType": "bytes32",
                              "name": "authority",
                              "type": "bytes32"
                            },
                            {
                              "components": [
                                {
                                  "internalType": "address",
                                  "name": "enforcer",
                                  "type": "address"
                                },
                                {
                                  "internalType": "bytes",
                                  "name": "terms",
                                  "type": "bytes"
                                }
                              ],
                              "internalType": "struct Caveat[]",
                              "name": "caveats",
                              "type": "tuple[]"
                            }
                          ],
                          "internalType": "struct Delegation",
                          "name": "delegation",
                          "type": "tuple"
                        },
                        {
                          "internalType": "bytes",
                          "name": "signature",
                          "type": "bytes"
                        }
                      ],
                      "internalType": "struct SignedDelegation[]",
                      "name": "authority",
                      "type": "tuple[]"
                    }
                  ],
                  "internalType": "struct Invocation[]",
                  "name": "batch",
                  "type": "tuple[]"
                },
                {
                  "components": [
                    {
                      "internalType": "uint256",
                      "name": "nonce",
                      "type": "uint256"
                    },
                    {
                      "internalType": "uint256",
                      "name": "queue",
                      "type": "uint256"
                    }
                  ],
                  "internalType": "struct ReplayProtection",
                  "name": "replayProtection",
                  "type": "tuple"
                }
              ],
              "internalType": "struct Invocations",
              "name": "invocations",
              "type": "tuple"
            },
            {
              "internalType": "bytes",
              "name": "signature",
              "type": "bytes"
            }
          ],
          "internalType": "struct SignedInvocation[]",
          "name": "signedInvocations",
          "type": "tuple[]"
        }
      ],
      "name": "invoke",
      "outputs": [
        {
          "internalType": "bool",
          "name": "success",
          "type": "bool"
        }
      ],
      "stateMutability": "nonpayable",
      "type": "function"
    },
    {
      "inputs": [
        {
          "internalType": "address",
          "name": "",
          "type": "address"
        },
        {
          "internalType": "uint256",
          "name": "",
          "type": "uint256"
        }
      ],
      "name": "multiNonce",
      "outputs": [
        {
          "internalType": "uint256",
          "name": "",
          "type": "uint256"
        }
      ],
      "stateMutability": "view",
      "type": "function"
    },
    {
      "inputs": [],
      "name": "name",
      "outputs": [
        {
          "internalType": "string",
          "name": "",
          "type": "string"
        }
      ],
      "stateMutability": "view",
      "type": "function"
    },
    {
      "inputs": [],
      "name": "owner",
      "outputs": [
        {
          "internalType": "address",
          "name": "",
          "type": "address"
        }
      ],
      "stateMutability": "view",
      "type": "function"
    },
    {
      "inputs": [],
      "name": "renounceOwnership",
      "outputs": [],
      "stateMutability": "nonpayable",
      "type": "function"
    },
    {
      "inputs": [],
      "name": "symbol",
      "outputs": [
        {
          "internalType": "string",
          "name": "",
          "type": "string"
        }
      ],
      "stateMutability": "view",
      "type": "function"
    },
    {
      "inputs": [],
      "name": "totalSupply",
      "outputs": [
        {
          "internalType": "uint256",
          "name": "",
          "type": "uint256"
        }
      ],
      "stateMutability": "view",
      "type": "function"
    },
    {
      "inputs": [
        {
          "internalType": "address",
          "name": "recipient",
          "type": "address"
        },
        {
          "internalType": "uint256",
          "name": "amount",
          "type": "uint256"
        }
      ],
      "name": "transfer",
      "outputs": [
        {
          "internalType": "bool",
          "name": "",
          "type": "bool"
        }
      ],
      "stateMutability": "nonpayable",
      "type": "function"
    },
    {
      "inputs": [
        {
          "internalType": "address",
          "name": "sender",
          "type": "address"
        },
        {
          "internalType": "address",
          "name": "recipient",
          "type": "address"
        },
        {
          "internalType": "uint256",
          "name": "amount",
          "type": "uint256"
        }
      ],
      "name": "transferFrom",
      "outputs": [
        {
          "internalType": "bool",
          "name": "",
          "type": "bool"
        }
      ],
      "stateMutability": "nonpayable",
      "type": "function"
    },
    {
      "inputs": [
        {
          "internalType": "address",
          "name": "newOwner",
          "type": "address"
        }
      ],
      "name": "transferOwnership",
      "outputs": [],
      "stateMutability": "nonpayable",
      "type": "function"
    },
    {
      "inputs": [
        {
          "components": [
            {
              "components": [
                {
                  "internalType": "address",
                  "name": "delegate",
                  "type": "address"
                },
                {
                  "internalType": "bytes32",
                  "name": "authority",
                  "type": "bytes32"
                },
                {
                  "components": [
                    {
                      "internalType": "address",
                      "name": "enforcer",
                      "type": "address"
                    },
                    {
                      "internalType": "bytes",
                      "name": "terms",
                      "type": "bytes"
                    }
                  ],
                  "internalType": "struct Caveat[]",
                  "name": "caveats",
                  "type": "tuple[]"
                }
              ],
              "internalType": "struct Delegation",
              "name": "delegation",
              "type": "tuple"
            },
            {
              "internalType": "bytes",
              "name": "signature",
              "type": "bytes"
            }
          ],
          "internalType": "struct SignedDelegation",
          "name": "signedDelegation",
          "type": "tuple"
        }
      ],
      "name": "verifyDelegationSignature",
      "outputs": [
        {
          "internalType": "address",
          "name": "",
          "type": "address"
        }
      ],
      "stateMutability": "view",
      "type": "function"
    },
    {
      "inputs": [
        {
          "components": [
            {
              "components": [
                {
                  "components": [
                    {
                      "components": [
                        {
                          "internalType": "address",
                          "name": "to",
                          "type": "address"
                        },
                        {
                          "internalType": "uint256",
                          "name": "gasLimit",
                          "type": "uint256"
                        },
                        {
                          "internalType": "bytes",
                          "name": "data",
                          "type": "bytes"
                        }
                      ],
                      "internalType": "struct Transaction",
                      "name": "transaction",
                      "type": "tuple"
                    },
                    {
                      "components": [
                        {
                          "components": [
                            {
                              "internalType": "address",
                              "name": "delegate",
                              "type": "address"
                            },
                            {
                              "internalType": "bytes32",
                              "name": "authority",
                              "type": "bytes32"
                            },
                            {
                              "components": [
                                {
                                  "internalType": "address",
                                  "name": "enforcer",
                                  "type": "address"
                                },
                                {
                                  "internalType": "bytes",
                                  "name": "terms",
                                  "type": "bytes"
                                }
                              ],
                              "internalType": "struct Caveat[]",
                              "name": "caveats",
                              "type": "tuple[]"
                            }
                          ],
                          "internalType": "struct Delegation",
                          "name": "delegation",
                          "type": "tuple"
                        },
                        {
                          "internalType": "bytes",
                          "name": "signature",
                          "type": "bytes"
                        }
                      ],
                      "internalType": "struct SignedDelegation[]",
                      "name": "authority",
                      "type": "tuple[]"
                    }
                  ],
                  "internalType": "struct Invocation[]",
                  "name": "batch",
                  "type": "tuple[]"
                },
                {
                  "components": [
                    {
                      "internalType": "uint256",
                      "name": "nonce",
                      "type": "uint256"
                    },
                    {
                      "internalType": "uint256",
                      "name": "queue",
                      "type": "uint256"
                    }
                  ],
                  "internalType": "struct ReplayProtection",
                  "name": "replayProtection",
                  "type": "tuple"
                }
              ],
              "internalType": "struct Invocations",
              "name": "invocations",
              "type": "tuple"
            },
            {
              "internalType": "bytes",
              "name": "signature",
              "type": "bytes"
            }
          ],
          "internalType": "struct SignedInvocation",
          "name": "signedInvocation",
          "type": "tuple"
        }
      ],
      "name": "verifyInvocationSignature",
      "outputs": [
        {
          "internalType": "address",
          "name": "",
          "type": "address"
        }
      ],
      "stateMutability": "view",
      "type": "function"
    }
  ],
  "bytecode": "0x60a06040523480156200001157600080fd5b5060405162002caa38038062002caa833981016040819052620000349162000431565b82604051806040016040528060018152602001603160f81b8152508484816003908051906020019062000069929190620002be565b5080516200007f906004906020840190620002be565b5050506200009c620000966200012660201b60201c565b62000184565b8151602080840191909120825182840120604080517f8b73c3c69bb8fe3d512ecc4cf759cc79239f7b179b0ffacaa9a75d522b39400f818601528082019390935260608301919091524660808301523060a0808401919091528151808403909101815260c090920190528051910120608052506200011d90503382620001d6565b50505062000507565b60003033036200017e57600080368080601f0160208091040260200160405190810160405280939291908181526020018383808284376000920191909152505050503601516001600160a01b03169150620001819050565b50335b90565b600580546001600160a01b038381166001600160a01b0319831681179093556040519116919082907f8be0079c531659141344cd1fd0a4f28419497f9722a3daafe3b4186f6b6457e090600090a35050565b6001600160a01b038216620002315760405162461bcd60e51b815260206004820152601f60248201527f45524332303a206d696e7420746f20746865207a65726f206164647265737300604482015260640160405180910390fd5b8060026000828254620002459190620004a4565b90915550506001600160a01b0382166000908152602081905260408120805483929062000274908490620004a4565b90915550506040518181526001600160a01b038316906000907fddf252ad1be2c89b69c2b068fc378daa952ba7f163c4a11628f55a4df523b3ef9060200160405180910390a35050565b828054620002cc90620004cb565b90600052602060002090601f016020900481019282620002f057600085556200033b565b82601f106200030b57805160ff19168380011785556200033b565b828001600101855582156200033b579182015b828111156200033b5782518255916020019190600101906200031e565b50620003499291506200034d565b5090565b5b808211156200034957600081556001016200034e565b634e487b7160e01b600052604160045260246000fd5b600082601f8301126200038c57600080fd5b81516001600160401b0380821115620003a957620003a962000364565b604051601f8301601f19908116603f01168101908282118183101715620003d457620003d462000364565b81604052838152602092508683858801011115620003f157600080fd5b600091505b83821015620004155785820183015181830184015290820190620003f6565b83821115620004275760008385830101525b9695505050505050565b6000806000606084860312156200044757600080fd5b83516001600160401b03808211156200045f57600080fd5b6200046d878388016200037a565b945060208601519150808211156200048457600080fd5b5062000493868287016200037a565b925050604084015190509250925092565b60008219821115620004c657634e487b7160e01b600052601160045260246000fd5b500190565b600181811c90821680620004e057607f821691505b6020821081036200050157634e487b7160e01b600052602260045260246000fd5b50919050565b608051612779620005316000396000818161057101528181610a1f0152610ce901526127796000f3fe608060405234801561001057600080fd5b50600436106102115760003560e01c8063715018a611610125578063a2e01f75116100ad578063caced6c51161007c578063caced6c514610496578063d327c1eb146104a9578063dd62ed3e14610533578063dfe86ac51461056c578063f2fde38b1461059357600080fd5b8063a2e01f751461044a578063a457c2d71461045d578063a9059cbb14610470578063bb5af5bd1461048357600080fd5b80638a04499e116100f45780638a04499e146103e05780638da5cb5b1461040b57806395d89b411461041c57806397182ed61461042457806398bc186a1461043757600080fd5b8063715018a61461039d5780637234eefe146103a7578063736f7ce7146103ba5780637b577b58146103cd57600080fd5b8063313ce567116101a85780635cf1b24a116101775780635cf1b24a1461032857806360b6d7681461033b5780636c2b12531461034e5780636f9658031461036157806370a082311461037457600080fd5b8063313ce567146102e057806339509351146102ef5780633a481821146103025780635c6d9f0c1461031557600080fd5b806318160ddd116101e457806318160ddd1461029f57806323b872dd146102a75780632f52a2fd146102ba5780632fad7efc146102cd57600080fd5b80630162f7221461021657806306fdde031461025457806308aaf6b014610269578063095ea7b31461027c575b600080fd5b6102416102243660046119dd565b600660209081526000928352604080842090915290825290205481565b6040519081526020015b60405180910390f35b61025c6105a6565b60405161024b9190611a5f565b610241610277366004611beb565b610638565b61028f61028a3660046119dd565b6106b8565b604051901515815260200161024b565b600254610241565b61028f6102b5366004611c1f565b6106d6565b6102416102c8366004611d6f565b6107ac565b61028f6102db366004611dee565b610817565b6040516012815260200161024b565b61028f6102fd3660046119dd565b6108de565b610241610310366004612047565b610932565b61028f610323366004611dee565b6109a9565b61024161033636600461207b565b6109bd565b610241610349366004612138565b610a1a565b61024161035c36600461216c565b610a6a565b61024161036f3660046121a0565b610ac7565b6102416103823660046121bc565b6001600160a01b031660009081526020819052604090205490565b6103a5610b18565b005b6102416103b5366004612138565b610b9d565b6102416103c83660046121d7565b610bdb565b6102416103db36600461220b565b610c43565b6103f36103ee36600461216c565b610cab565b6040516001600160a01b03909116815260200161024b565b6005546001600160a01b03166103f3565b61025c610cd5565b610241610432366004611d6f565b610ce4565b61024161044536600461223f565b610d11565b6102416104583660046122ea565b610d5d565b61028f61046b3660046119dd565b610dc9565b61028f61047e3660046119dd565b610e80565b61024161049136600461235d565b610e94565b6103f36104a436600461235d565b610ec5565b6102416104b7366004612391565b8351602094850120835193850193909320604080517f8b73c3c69bb8fe3d512ecc4cf759cc79239f7b179b0ffacaa9a75d522b39400f8188015280820195909552606085019190915260808401929092526001600160a01b031660a0808401919091528151808403909101815260c09092019052805191012090565b61024161054136600461240e565b6001600160a01b03918216600090815260016020908152604080832093909416825291909152205490565b6102417f000000000000000000000000000000000000000000000000000000000000000081565b6103a56105a13660046121bc565b610eef565b6060600380546105b590612441565b80601f01602080910402602001604051908101604052809291908181526020018280546105e190612441565b801561062e5780601f106106035761010080835404028352916020019161062e565b820191906000526020600020905b81548152906001019060200180831161061157829003601f168201915b5050505050905090565b6000807f80ad7e1b04ee6d994a125f4714ca0720908bd80ed16063ec8aee4b88e9253e2d8360000151846020015180519060200120604051602001610699939291909283526001600160a01b03919091166020830152604082015260600190565b60408051601f1981840301815291905280516020909101209392505050565b60006106cc6106c5610fd9565b8484611035565b5060015b92915050565b60006106e3848484611159565b6001600160a01b038416600090815260016020526040812081610704610fd9565b6001600160a01b03166001600160a01b031681526020019081526020016000205490508281101561078d5760405162461bcd60e51b815260206004820152602860248201527f45524332303a207472616e7366657220616d6f756e74206578636565647320616044820152676c6c6f77616e636560c01b60648201526084015b60405180910390fd5b6107a185610799610fd9565b858403611035565b506001949350505050565b6000807f409f5114779a253e700d775d7845e6efc1e83685ac59868d2df3d4de51c7d621836000015184602001516107e78660400151610c43565b6040805160208101959095526001600160a01b03909316928401929092526060830152608082015260a001610699565b6000805b828110156108d757368484838181106108365761083661247b565b90506020028101906108489190612491565b905060006108586104a4836124b1565b90506108a4818787868181106108705761087061247b565b90506020028101906108829190612491565b61088c90806124bd565b60200180360381019061089f91906121a0565b611329565b6108c16108b183806124bd565b6108bb90806124d3565b83611419565b50505080806108cf90612532565b91505061081b565b5092915050565b60006106cc6108eb610fd9565b8484600160006108f9610fd9565b6001600160a01b03908116825260208083019390935260409182016000908120918b168152925290205461092d919061254b565b611035565b6000606060005b835181101561099a57816109658583815181106109585761095861247b565b60200260200101516109bd565b604051602001610976929190612563565b6040516020818303038152906040529150808061099290612532565b915050610939565b50805160209091012092915050565b60006109b6838333611419565b9392505050565b6000807fd97dd99b404d177890f06a8f0fc8e5ed0333fb2ebb6684360709066e8984f5946109ee8460000151610d5d565b6109fb8560200151610bdb565b6040805160208101949094528301919091526060820152608001610699565b6000807f0000000000000000000000000000000000000000000000000000000000000000610a4784610b9d565b60405161190160f01b602082015260228101929092526042820152606201610699565b6000807f3c36a06e1d288b0f94f565588317a46ad11bc3c96992109f9a2365a2737259a7610a9b84600001516107ac565b602080860151805190820120604051610699949392019283526020830191909152604082015260600190565b6000807fe8d3d963b33868fb116316bc3fd55e8f49123f30e4418f71e140d54b7cd3b2b983600001518460200151604051602001610699939291909283526020830191909152604082015260600190565b610b20610fd9565b6001600160a01b0316610b3b6005546001600160a01b031690565b6001600160a01b031614610b915760405162461bcd60e51b815260206004820181905260248201527f4f776e61626c653a2063616c6c6572206973206e6f7420746865206f776e65726044820152606401610784565b610b9b60006117ef565b565b6000807f08c69a206c06f5334b35ceb1186181a713b21aff02cf66285f375084fbef2eb8610bce8460000151610932565b6109fb8560200151610ac7565b6000606060005b835181101561099a5781610c0e858381518110610c0157610c0161247b565b6020026020010151610a6a565b604051602001610c1f929190612563565b60405160208183030381529060405291508080610c3b90612532565b915050610be2565b6000606060005b835181101561099a5781610c76858381518110610c6957610c6961247b565b6020026020010151610638565b604051602001610c87929190612563565b60405160208183030381529060405291508080610ca390612532565b915050610c4a565b805160009081610cba82610ce4565b90506000610ccc828660200151611841565b95945050505050565b6060600480546105b590612441565b6000807f0000000000000000000000000000000000000000000000000000000000000000610a47846107ac565b6000807f8b73c3c69bb8fe3d512ecc4cf759cc79239f7b179b0ffacaa9a75d522b39400f8360000151846020015185604001518660600151604051602001610699959493929190612585565b6000807fb16dfdb3b8fa033fe30ac976cd4a50ad256b6811c80d90fcd0b323eec190047d8360000151846020015185604001518051906020012060405160200161069994939291909384526001600160a01b039290921660208401526040830152606082015260800190565b60008060016000610dd8610fd9565b6001600160a01b0390811682526020808301939093526040918201600090812091881681529252902054905082811015610e625760405162461bcd60e51b815260206004820152602560248201527f45524332303a2064656372656173656420616c6c6f77616e63652062656c6f77604482015264207a65726f60d81b6064820152608401610784565b610e76610e6d610fd9565b85858403611035565b5060019392505050565b60006106cc610e8d610fd9565b8484611159565b6000807fc32b6dfe0f988d1f2b13248cddd88e320ff0ae86e3ccfe38bab77a80f4477d44610a9b8460000151610b9d565b600080610ed58360000151610a1a565b90506000610ee7828560200151611841565b949350505050565b610ef7610fd9565b6001600160a01b0316610f126005546001600160a01b031690565b6001600160a01b031614610f685760405162461bcd60e51b815260206004820181905260248201527f4f776e61626c653a2063616c6c6572206973206e6f7420746865206f776e65726044820152606401610784565b6001600160a01b038116610fcd5760405162461bcd60e51b815260206004820152602660248201527f4f776e61626c653a206e6577206f776e657220697320746865207a65726f206160448201526564647265737360d01b6064820152608401610784565b610fd6816117ef565b50565b600030330361102f57600080368080601f0160208091040260200160405190810160405280939291908181526020018383808284376000920191909152505050503601516001600160a01b031691506110329050565b50335b90565b6001600160a01b0383166110975760405162461bcd60e51b8152602060048201526024808201527f45524332303a20617070726f76652066726f6d20746865207a65726f206164646044820152637265737360e01b6064820152608401610784565b6001600160a01b0382166110f85760405162461bcd60e51b815260206004820152602260248201527f45524332303a20617070726f766520746f20746865207a65726f206164647265604482015261737360f01b6064820152608401610784565b6001600160a01b0383811660008181526001602090815260408083209487168084529482529182902085905590518481527f8c5be1e5ebec7d5bd14f71427d1e84f3dd0314c0f7b2291e5b200ac8c7c3b925910160405180910390a3505050565b6001600160a01b0383166111bd5760405162461bcd60e51b815260206004820152602560248201527f45524332303a207472616e736665722066726f6d20746865207a65726f206164604482015264647265737360d81b6064820152608401610784565b6001600160a01b03821661121f5760405162461bcd60e51b815260206004820152602360248201527f45524332303a207472616e7366657220746f20746865207a65726f206164647260448201526265737360e81b6064820152608401610784565b6001600160a01b038316600090815260208190526040902054818110156112975760405162461bcd60e51b815260206004820152602660248201527f45524332303a207472616e7366657220616d6f756e7420657863656564732062604482015265616c616e636560d01b6064820152608401610784565b6001600160a01b038085166000908152602081905260408082208585039055918516815290812080548492906112ce90849061254b565b92505081905550826001600160a01b0316846001600160a01b03167fddf252ad1be2c89b69c2b068fc378daa952ba7f163c4a11628f55a4df523b3ef8460405161131a91815260200190565b60405180910390a35b50505050565b602080820151825160408051606081019091526031808252929391926113589261271390830139858484611918565b6001600160a01b038416600090815260066020908152604080832085845290915290205461138790600161254b565b81146113ef5760405162461bcd60e51b815260206004820152603160248201527f4f6e652d61742d612d74696d65206f7264657220656e666f726365642e204e6f6044820152701b98d94c881a5cc81d1bdbc81cdb585b1b607a1b6064820152608401610784565b6001600160a01b039093166000908152600660209081526040808320938352929052209190915550565b6000805b838110156117e75760008585838181106114395761143961247b565b905060200281019061144b9190612491565b611454906125d3565b905060008082602001515160000361146c5750849050805b6000805b84602001515181101561170c576000856020015182815181106114955761149561247b565b6020026020010151905060006114aa82610cab565b9050826000036114bb578095508594505b846001600160a01b0316816001600160a01b0316146115355760405162461bcd60e51b815260206004820152603060248201527f44656c65676174696f6e207369676e657220646f6573206e6f74206d6174636860448201526f103932b8bab4b932b21039b4b3b732b960811b6064820152608401610784565b8151602081015185146115b05760405162461bcd60e51b815260206004820152603760248201527f44656c65676174696f6e20617574686f7269747920646f6573206e6f74206d6160448201527f7463682070726576696f75732064656c65676174696f6e0000000000000000006064820152608401610784565b60006115bb84610a6a565b905060005b8260400151518161ffff1610156116ef57600083604001518261ffff16815181106115ed576115ed61247b565b60200260200101516000015190506000816001600160a01b0316635068de4c86604001518561ffff16815181106116265761162661247b565b6020026020010151602001518e60000151876040518463ffffffff1660e01b8152600401611656939291906125df565b6020604051808303816000875af1158015611675573d6000803e3d6000fd5b505050506040513d601f19601f82011682018060405250810190611699919061263b565b9050806116da5760405162461bcd60e51b815260206004820152600f60248201526e10d85d99585d081c995a9958dd1959608a1b6044820152606401610784565b505080806116e79061265d565b9150506115c0565b50905195509350829150611704905081612532565b915050611470565b50835180516001600160a01b031630146117685760405162461bcd60e51b815260206004820181905260248201527f496e766f636174696f6e2074617267657420646f6573206e6f74206d617463686044820152606401610784565b61178081600001518260400151836020015187611961565b9650866117cf5760405162461bcd60e51b815260206004820152601a60248201527f44656c656761746f7220657865637574696f6e206661696c65640000000000006044820152606401610784565b505050505080806117df90612532565b91505061141d565b509392505050565b600580546001600160a01b038381166001600160a01b0319831681179093556040519116919082907f8be0079c531659141344cd1fd0a4f28419497f9722a3daafe3b4186f6b6457e090600090a35050565b600080600080845160411461185c57600093505050506106d0565b50505060208201516040830151606084015160001a601b81101561188857611885601b8261267e565b90505b8060ff16601b141580156118a057508060ff16601c14155b156118b157600093505050506106d0565b60408051600081526020810180835288905260ff831691810191909152606081018490526080810183905260019060a0016020604051602081039080840390855afa158015611904573d6000803e3d6000fd5b5050506020604051035193505050506106d0565b6113238484848460405160240161193294939291906126a3565b60408051601f198184030181529190526020810180516001600160e01b031663daa394bd60e01b1790526119a0565b60008084836040516020016119779291906126db565b604051602081830303815290604052905060008082516020840160008a89f19695505050505050565b80516a636f6e736f6c652e6c6f67602083016000808483855afa5050505050565b80356001600160a01b03811681146119d857600080fd5b919050565b600080604083850312156119f057600080fd5b6119f9836119c1565b946020939093013593505050565b60005b83811015611a22578181015183820152602001611a0a565b838111156113235750506000910152565b60008151808452611a4b816020860160208601611a07565b601f01601f19169290920160200192915050565b6020815260006109b66020830184611a33565b634e487b7160e01b600052604160045260246000fd5b604080519081016001600160401b0381118282101715611aaa57611aaa611a72565b60405290565b604051606081016001600160401b0381118282101715611aaa57611aaa611a72565b604051608081016001600160401b0381118282101715611aaa57611aaa611a72565b604051601f8201601f191681016001600160401b0381118282101715611b1c57611b1c611a72565b604052919050565b600082601f830112611b3557600080fd5b81356001600160401b03811115611b4e57611b4e611a72565b611b61601f8201601f1916602001611af4565b818152846020838601011115611b7657600080fd5b816020850160208301376000918101602001919091529392505050565b600060408284031215611ba557600080fd5b611bad611a88565b9050611bb8826119c1565b815260208201356001600160401b03811115611bd357600080fd5b611bdf84828501611b24565b60208301525092915050565b600060208284031215611bfd57600080fd5b81356001600160401b03811115611c1357600080fd5b610ee784828501611b93565b600080600060608486031215611c3457600080fd5b611c3d846119c1565b9250611c4b602085016119c1565b9150604084013590509250925092565b60006001600160401b03821115611c7457611c74611a72565b5060051b60200190565b600082601f830112611c8f57600080fd5b81356020611ca4611c9f83611c5b565b611af4565b82815260059290921b84018101918181019086841115611cc357600080fd5b8286015b84811015611d025780356001600160401b03811115611ce65760008081fd5b611cf48986838b0101611b93565b845250918301918301611cc7565b509695505050505050565b600060608284031215611d1f57600080fd5b611d27611ab0565b9050611d32826119c1565b81526020820135602082015260408201356001600160401b03811115611d5757600080fd5b611d6384828501611c7e565b60408301525092915050565b600060208284031215611d8157600080fd5b81356001600160401b03811115611d9757600080fd5b610ee784828501611d0d565b60008083601f840112611db557600080fd5b5081356001600160401b03811115611dcc57600080fd5b6020830191508360208260051b8501011115611de757600080fd5b9250929050565b60008060208385031215611e0157600080fd5b82356001600160401b03811115611e1757600080fd5b611e2385828601611da3565b90969095509350505050565b600060608284031215611e4157600080fd5b611e49611ab0565b9050611e54826119c1565b81526020820135602082015260408201356001600160401b03811115611e7957600080fd5b611d6384828501611b24565b600060408284031215611e9757600080fd5b611e9f611a88565b905081356001600160401b0380821115611eb857600080fd5b611ec485838601611d0d565b83526020840135915080821115611eda57600080fd5b50611bdf84828501611b24565b600082601f830112611ef857600080fd5b81356020611f08611c9f83611c5b565b82815260059290921b84018101918181019086841115611f2757600080fd5b8286015b84811015611d025780356001600160401b03811115611f4a5760008081fd5b611f588986838b0101611e85565b845250918301918301611f2b565b600060408284031215611f7857600080fd5b611f80611a88565b905081356001600160401b0380821115611f9957600080fd5b611fa585838601611e2f565b83526020840135915080821115611fbb57600080fd5b50611bdf84828501611ee7565b600082601f830112611fd957600080fd5b81356020611fe9611c9f83611c5b565b82815260059290921b8401810191818101908684111561200857600080fd5b8286015b84811015611d025780356001600160401b0381111561202b5760008081fd5b6120398986838b0101611f66565b84525091830191830161200c565b60006020828403121561205957600080fd5b81356001600160401b0381111561206f57600080fd5b610ee784828501611fc8565b60006020828403121561208d57600080fd5b81356001600160401b038111156120a357600080fd5b610ee784828501611f66565b6000604082840312156120c157600080fd5b6120c9611a88565b9050813581526020820135602082015292915050565b6000606082840312156120f157600080fd5b6120f9611a88565b905081356001600160401b0381111561211157600080fd5b61211d84828501611fc8565b82525061212d83602084016120af565b602082015292915050565b60006020828403121561214a57600080fd5b81356001600160401b0381111561216057600080fd5b610ee7848285016120df565b60006020828403121561217e57600080fd5b81356001600160401b0381111561219457600080fd5b610ee784828501611e85565b6000604082840312156121b257600080fd5b6109b683836120af565b6000602082840312156121ce57600080fd5b6109b6826119c1565b6000602082840312156121e957600080fd5b81356001600160401b038111156121ff57600080fd5b610ee784828501611ee7565b60006020828403121561221d57600080fd5b81356001600160401b0381111561223357600080fd5b610ee784828501611c7e565b60006020828403121561225157600080fd5b81356001600160401b038082111561226857600080fd5b908301906080828603121561227c57600080fd5b612284611ad2565b82358281111561229357600080fd5b61229f87828601611b24565b8252506020830135828111156122b457600080fd5b6122c087828601611b24565b602083015250604083013560408201526122dc606084016119c1565b606082015295945050505050565b6000602082840312156122fc57600080fd5b81356001600160401b0381111561231257600080fd5b610ee784828501611e2f565b60006040828403121561233057600080fd5b612338611a88565b905081356001600160401b038082111561235157600080fd5b611ec4858386016120df565b60006020828403121561236f57600080fd5b81356001600160401b0381111561238557600080fd5b610ee78482850161231e565b600080600080608085870312156123a757600080fd5b84356001600160401b03808211156123be57600080fd5b6123ca88838901611b24565b955060208701359150808211156123e057600080fd5b506123ed87828801611b24565b93505060408501359150612403606086016119c1565b905092959194509250565b6000806040838503121561242157600080fd5b61242a836119c1565b9150612438602084016119c1565b90509250929050565b600181811c9082168061245557607f821691505b60208210810361247557634e487b7160e01b600052602260045260246000fd5b50919050565b634e487b7160e01b600052603260045260246000fd5b60008235603e198336030181126124a757600080fd5b9190910192915050565b60006106d0368361231e565b60008235605e198336030181126124a757600080fd5b6000808335601e198436030181126124ea57600080fd5b8301803591506001600160401b0382111561250457600080fd5b6020019150600581901b3603821315611de757600080fd5b634e487b7160e01b600052601160045260246000fd5b6000600182016125445761254461251c565b5060010190565b6000821982111561255e5761255e61251c565b500190565b60008351612575818460208801611a07565b9190910191825250602001919050565b85815260a06020820152600061259e60a0830187611a33565b82810360408401526125b08187611a33565b606084019590955250506001600160a01b03919091166080909101529392505050565b60006106d03683611f66565b6060815260006125f26060830186611a33565b828103602084015260018060a01b038551168152602085015160208201526040850151606060408301526126296060830182611a33565b92505050826040830152949350505050565b60006020828403121561264d57600080fd5b815180151581146109b657600080fd5b600061ffff8083168181036126745761267461251c565b6001019392505050565b600060ff821660ff84168060ff0382111561269b5761269b61251c565b019392505050565b6080815260006126b66080830187611a33565b6001600160a01b03959095166020830152506040810192909252606090910152919050565b600083516126ed818460208801611a07565b60609390931b6bffffffffffffffffffffffff1916919092019081526014019291505056fe53656e64657220257320697320747279696e6720746f207573652071756575652025732077697468206e6f6e6365202573a2646970667358221220203bcab05451263a60d7368658a9b452b5b0ed7ae0a321eb07640a4b3000c86764736f6c634300080d0033",
  "linkReferences": {},
  "deployedLinkReferences": {}
}