{
  "_format": "hh-sol-artifact-1",
  "contractName": "DelegatableToken",
  "sourceName": "contracts/Examples/DelegatableERC20.sol",
  "abi": [
    {
      "inputs": [
        {
          "internalType": "string",
          "name": "name",
          "type": "string"
        },
        {
          "internalType": "string",
          "name": "symbol",
          "type": "string"
        },
        {
          "internalType": "uint256",
          "name": "amount",
          "type": "uint256"
        }
      ],
      "stateMutability": "nonpayable",
      "type": "constructor"
    },
    {
      "anonymous": false,
      "inputs": [
        {
          "indexed": true,
          "internalType": "address",
          "name": "owner",
          "type": "address"
        },
        {
          "indexed": true,
          "internalType": "address",
          "name": "spender",
          "type": "address"
        },
        {
          "indexed": false,
          "internalType": "uint256",
          "name": "value",
          "type": "uint256"
        }
      ],
      "name": "Approval",
      "type": "event"
    },
    {
      "anonymous": false,
      "inputs": [
        {
          "indexed": false,
          "internalType": "address",
          "name": "principal",
          "type": "address"
        },
        {
          "indexed": true,
          "internalType": "address",
          "name": "agent",
          "type": "address"
        }
      ],
      "name": "DelegationTriggered",
      "type": "event"
    },
    {
      "anonymous": false,
      "inputs": [
        {
          "indexed": true,
          "internalType": "address",
          "name": "previousOwner",
          "type": "address"
        },
        {
          "indexed": true,
          "internalType": "address",
          "name": "newOwner",
          "type": "address"
        }
      ],
      "name": "OwnershipTransferred",
      "type": "event"
    },
    {
      "anonymous": false,
      "inputs": [
        {
          "indexed": true,
          "internalType": "address",
          "name": "from",
          "type": "address"
        },
        {
          "indexed": true,
          "internalType": "address",
          "name": "to",
          "type": "address"
        },
        {
          "indexed": false,
          "internalType": "uint256",
          "name": "value",
          "type": "uint256"
        }
      ],
      "name": "Transfer",
      "type": "event"
    },
    {
      "inputs": [
        {
          "components": [
            {
              "internalType": "address",
              "name": "enforcer",
              "type": "address"
            },
            {
              "internalType": "bytes",
              "name": "terms",
              "type": "bytes"
            }
          ],
          "internalType": "struct Caveat[]",
          "name": "_input",
          "type": "tuple[]"
        }
      ],
      "name": "GET_CAVEAT_ARRAY_PACKETHASH",
      "outputs": [
        {
          "internalType": "bytes32",
          "name": "",
          "type": "bytes32"
        }
      ],
      "stateMutability": "pure",
      "type": "function"
    },
    {
      "inputs": [
        {
          "components": [
            {
              "internalType": "address",
              "name": "enforcer",
              "type": "address"
            },
            {
              "internalType": "bytes",
              "name": "terms",
              "type": "bytes"
            }
          ],
          "internalType": "struct Caveat",
          "name": "_input",
          "type": "tuple"
        }
      ],
      "name": "GET_CAVEAT_PACKETHASH",
      "outputs": [
        {
          "internalType": "bytes32",
          "name": "",
          "type": "bytes32"
        }
      ],
      "stateMutability": "pure",
      "type": "function"
    },
    {
      "inputs": [
        {
          "components": [
            {
              "internalType": "address",
              "name": "delegate",
              "type": "address"
            },
            {
              "internalType": "bytes32",
              "name": "authority",
              "type": "bytes32"
            },
            {
              "components": [
                {
                  "internalType": "address",
                  "name": "enforcer",
                  "type": "address"
                },
                {
                  "internalType": "bytes",
                  "name": "terms",
                  "type": "bytes"
                }
              ],
              "internalType": "struct Caveat[]",
              "name": "caveats",
              "type": "tuple[]"
            }
          ],
          "internalType": "struct Delegation",
          "name": "_input",
          "type": "tuple"
        }
      ],
      "name": "GET_DELEGATION_PACKETHASH",
      "outputs": [
        {
          "internalType": "bytes32",
          "name": "",
          "type": "bytes32"
        }
      ],
      "stateMutability": "pure",
      "type": "function"
    },
    {
      "inputs": [
        {
          "components": [
            {
              "internalType": "string",
              "name": "name",
              "type": "string"
            },
            {
              "internalType": "string",
              "name": "version",
              "type": "string"
            },
            {
              "internalType": "uint256",
              "name": "chainId",
              "type": "uint256"
            },
            {
              "internalType": "address",
              "name": "verifyingContract",
              "type": "address"
            }
          ],
          "internalType": "struct EIP712Domain",
          "name": "_input",
          "type": "tuple"
        }
      ],
      "name": "GET_EIP712DOMAIN_PACKETHASH",
      "outputs": [
        {
          "internalType": "bytes32",
          "name": "",
          "type": "bytes32"
        }
      ],
      "stateMutability": "pure",
      "type": "function"
    },
    {
      "inputs": [
        {
          "components": [
            {
              "internalType": "bytes32",
              "name": "delegationHash",
              "type": "bytes32"
            }
          ],
          "internalType": "struct IntentionToRevoke",
          "name": "_input",
          "type": "tuple"
        }
      ],
      "name": "GET_INTENTIONTOREVOKE_PACKETHASH",
      "outputs": [
        {
          "internalType": "bytes32",
          "name": "",
          "type": "bytes32"
        }
      ],
      "stateMutability": "pure",
      "type": "function"
    },
    {
      "inputs": [
        {
          "components": [
            {
              "components": [
                {
                  "components": [
                    {
                      "internalType": "address",
                      "name": "to",
                      "type": "address"
                    },
                    {
                      "internalType": "uint256",
                      "name": "gasLimit",
                      "type": "uint256"
                    },
                    {
                      "internalType": "bytes",
                      "name": "data",
                      "type": "bytes"
                    }
                  ],
                  "internalType": "struct Transaction",
                  "name": "transaction",
                  "type": "tuple"
                },
                {
                  "components": [
                    {
                      "components": [
                        {
                          "internalType": "address",
                          "name": "delegate",
                          "type": "address"
                        },
                        {
                          "internalType": "bytes32",
                          "name": "authority",
                          "type": "bytes32"
                        },
                        {
                          "components": [
                            {
                              "internalType": "address",
                              "name": "enforcer",
                              "type": "address"
                            },
                            {
                              "internalType": "bytes",
                              "name": "terms",
                              "type": "bytes"
                            }
                          ],
                          "internalType": "struct Caveat[]",
                          "name": "caveats",
                          "type": "tuple[]"
                        }
                      ],
                      "internalType": "struct Delegation",
                      "name": "delegation",
                      "type": "tuple"
                    },
                    {
                      "internalType": "bytes",
                      "name": "signature",
                      "type": "bytes"
                    }
                  ],
                  "internalType": "struct SignedDelegation[]",
                  "name": "authority",
                  "type": "tuple[]"
                }
              ],
              "internalType": "struct Invocation[]",
              "name": "batch",
              "type": "tuple[]"
            },
            {
              "components": [
                {
                  "internalType": "uint256",
                  "name": "nonce",
                  "type": "uint256"
                },
                {
                  "internalType": "uint256",
                  "name": "queue",
                  "type": "uint256"
                }
              ],
              "internalType": "struct ReplayProtection",
              "name": "replayProtection",
              "type": "tuple"
            }
          ],
          "internalType": "struct Invocations",
          "name": "_input",
          "type": "tuple"
        }
      ],
      "name": "GET_INVOCATIONS_PACKETHASH",
      "outputs": [
        {
          "internalType": "bytes32",
          "name": "",
          "type": "bytes32"
        }
      ],
      "stateMutability": "pure",
      "type": "function"
    },
    {
      "inputs": [
        {
          "components": [
            {
              "components": [
                {
                  "internalType": "address",
                  "name": "to",
                  "type": "address"
                },
                {
                  "internalType": "uint256",
                  "name": "gasLimit",
                  "type": "uint256"
                },
                {
                  "internalType": "bytes",
                  "name": "data",
                  "type": "bytes"
                }
              ],
              "internalType": "struct Transaction",
              "name": "transaction",
              "type": "tuple"
            },
            {
              "components": [
                {
                  "components": [
                    {
                      "internalType": "address",
                      "name": "delegate",
                      "type": "address"
                    },
                    {
                      "internalType": "bytes32",
                      "name": "authority",
                      "type": "bytes32"
                    },
                    {
                      "components": [
                        {
                          "internalType": "address",
                          "name": "enforcer",
                          "type": "address"
                        },
                        {
                          "internalType": "bytes",
                          "name": "terms",
                          "type": "bytes"
                        }
                      ],
                      "internalType": "struct Caveat[]",
                      "name": "caveats",
                      "type": "tuple[]"
                    }
                  ],
                  "internalType": "struct Delegation",
                  "name": "delegation",
                  "type": "tuple"
                },
                {
                  "internalType": "bytes",
                  "name": "signature",
                  "type": "bytes"
                }
              ],
              "internalType": "struct SignedDelegation[]",
              "name": "authority",
              "type": "tuple[]"
            }
          ],
          "internalType": "struct Invocation[]",
          "name": "_input",
          "type": "tuple[]"
        }
      ],
      "name": "GET_INVOCATION_ARRAY_PACKETHASH",
      "outputs": [
        {
          "internalType": "bytes32",
          "name": "",
          "type": "bytes32"
        }
      ],
      "stateMutability": "pure",
      "type": "function"
    },
    {
      "inputs": [
        {
          "components": [
            {
              "components": [
                {
                  "internalType": "address",
                  "name": "to",
                  "type": "address"
                },
                {
                  "internalType": "uint256",
                  "name": "gasLimit",
                  "type": "uint256"
                },
                {
                  "internalType": "bytes",
                  "name": "data",
                  "type": "bytes"
                }
              ],
              "internalType": "struct Transaction",
              "name": "transaction",
              "type": "tuple"
            },
            {
              "components": [
                {
                  "components": [
                    {
                      "internalType": "address",
                      "name": "delegate",
                      "type": "address"
                    },
                    {
                      "internalType": "bytes32",
                      "name": "authority",
                      "type": "bytes32"
                    },
                    {
                      "components": [
                        {
                          "internalType": "address",
                          "name": "enforcer",
                          "type": "address"
                        },
                        {
                          "internalType": "bytes",
                          "name": "terms",
                          "type": "bytes"
                        }
                      ],
                      "internalType": "struct Caveat[]",
                      "name": "caveats",
                      "type": "tuple[]"
                    }
                  ],
                  "internalType": "struct Delegation",
                  "name": "delegation",
                  "type": "tuple"
                },
                {
                  "internalType": "bytes",
                  "name": "signature",
                  "type": "bytes"
                }
              ],
              "internalType": "struct SignedDelegation[]",
              "name": "authority",
              "type": "tuple[]"
            }
          ],
          "internalType": "struct Invocation",
          "name": "_input",
          "type": "tuple"
        }
      ],
      "name": "GET_INVOCATION_PACKETHASH",
      "outputs": [
        {
          "internalType": "bytes32",
          "name": "",
          "type": "bytes32"
        }
      ],
      "stateMutability": "pure",
      "type": "function"
    },
    {
      "inputs": [
        {
          "components": [
            {
              "internalType": "uint256",
              "name": "nonce",
              "type": "uint256"
            },
            {
              "internalType": "uint256",
              "name": "queue",
              "type": "uint256"
            }
          ],
          "internalType": "struct ReplayProtection",
          "name": "_input",
          "type": "tuple"
        }
      ],
      "name": "GET_REPLAYPROTECTION_PACKETHASH",
      "outputs": [
        {
          "internalType": "bytes32",
          "name": "",
          "type": "bytes32"
        }
      ],
      "stateMutability": "pure",
      "type": "function"
    },
    {
      "inputs": [
        {
          "components": [
            {
              "components": [
                {
                  "internalType": "address",
                  "name": "delegate",
                  "type": "address"
                },
                {
                  "internalType": "bytes32",
                  "name": "authority",
                  "type": "bytes32"
                },
                {
                  "components": [
                    {
                      "internalType": "address",
                      "name": "enforcer",
                      "type": "address"
                    },
                    {
                      "internalType": "bytes",
                      "name": "terms",
                      "type": "bytes"
                    }
                  ],
                  "internalType": "struct Caveat[]",
                  "name": "caveats",
                  "type": "tuple[]"
                }
              ],
              "internalType": "struct Delegation",
              "name": "delegation",
              "type": "tuple"
            },
            {
              "internalType": "bytes",
              "name": "signature",
              "type": "bytes"
            }
          ],
          "internalType": "struct SignedDelegation[]",
          "name": "_input",
          "type": "tuple[]"
        }
      ],
      "name": "GET_SIGNEDDELEGATION_ARRAY_PACKETHASH",
      "outputs": [
        {
          "internalType": "bytes32",
          "name": "",
          "type": "bytes32"
        }
      ],
      "stateMutability": "pure",
      "type": "function"
    },
    {
      "inputs": [
        {
          "components": [
            {
              "components": [
                {
                  "internalType": "address",
                  "name": "delegate",
                  "type": "address"
                },
                {
                  "internalType": "bytes32",
                  "name": "authority",
                  "type": "bytes32"
                },
                {
                  "components": [
                    {
                      "internalType": "address",
                      "name": "enforcer",
                      "type": "address"
                    },
                    {
                      "internalType": "bytes",
                      "name": "terms",
                      "type": "bytes"
                    }
                  ],
                  "internalType": "struct Caveat[]",
                  "name": "caveats",
                  "type": "tuple[]"
                }
              ],
              "internalType": "struct Delegation",
              "name": "delegation",
              "type": "tuple"
            },
            {
              "internalType": "bytes",
              "name": "signature",
              "type": "bytes"
            }
          ],
          "internalType": "struct SignedDelegation",
          "name": "_input",
          "type": "tuple"
        }
      ],
      "name": "GET_SIGNEDDELEGATION_PACKETHASH",
      "outputs": [
        {
          "internalType": "bytes32",
          "name": "",
          "type": "bytes32"
        }
      ],
      "stateMutability": "pure",
      "type": "function"
    },
    {
      "inputs": [
        {
          "components": [
            {
              "internalType": "bytes",
              "name": "signature",
              "type": "bytes"
            },
            {
              "components": [
                {
                  "internalType": "bytes32",
                  "name": "delegationHash",
                  "type": "bytes32"
                }
              ],
              "internalType": "struct IntentionToRevoke",
              "name": "intentionToRevoke",
              "type": "tuple"
            }
          ],
          "internalType": "struct SignedIntentionToRevoke",
          "name": "_input",
          "type": "tuple"
        }
      ],
      "name": "GET_SIGNEDINTENTIONTOREVOKE_PACKETHASH",
      "outputs": [
        {
          "internalType": "bytes32",
          "name": "",
          "type": "bytes32"
        }
      ],
      "stateMutability": "pure",
      "type": "function"
    },
    {
      "inputs": [
        {
          "components": [
            {
              "components": [
                {
                  "components": [
                    {
                      "components": [
                        {
                          "internalType": "address",
                          "name": "to",
                          "type": "address"
                        },
                        {
                          "internalType": "uint256",
                          "name": "gasLimit",
                          "type": "uint256"
                        },
                        {
                          "internalType": "bytes",
                          "name": "data",
                          "type": "bytes"
                        }
                      ],
                      "internalType": "struct Transaction",
                      "name": "transaction",
                      "type": "tuple"
                    },
                    {
                      "components": [
                        {
                          "components": [
                            {
                              "internalType": "address",
                              "name": "delegate",
                              "type": "address"
                            },
                            {
                              "internalType": "bytes32",
                              "name": "authority",
                              "type": "bytes32"
                            },
                            {
                              "components": [
                                {
                                  "internalType": "address",
                                  "name": "enforcer",
                                  "type": "address"
                                },
                                {
                                  "internalType": "bytes",
                                  "name": "terms",
                                  "type": "bytes"
                                }
                              ],
                              "internalType": "struct Caveat[]",
                              "name": "caveats",
                              "type": "tuple[]"
                            }
                          ],
                          "internalType": "struct Delegation",
                          "name": "delegation",
                          "type": "tuple"
                        },
                        {
                          "internalType": "bytes",
                          "name": "signature",
                          "type": "bytes"
                        }
                      ],
                      "internalType": "struct SignedDelegation[]",
                      "name": "authority",
                      "type": "tuple[]"
                    }
                  ],
                  "internalType": "struct Invocation[]",
                  "name": "batch",
                  "type": "tuple[]"
                },
                {
                  "components": [
                    {
                      "internalType": "uint256",
                      "name": "nonce",
                      "type": "uint256"
                    },
                    {
                      "internalType": "uint256",
                      "name": "queue",
                      "type": "uint256"
                    }
                  ],
                  "internalType": "struct ReplayProtection",
                  "name": "replayProtection",
                  "type": "tuple"
                }
              ],
              "internalType": "struct Invocations",
              "name": "invocations",
              "type": "tuple"
            },
            {
              "internalType": "bytes",
              "name": "signature",
              "type": "bytes"
            }
          ],
          "internalType": "struct SignedInvocation",
          "name": "_input",
          "type": "tuple"
        }
      ],
      "name": "GET_SIGNEDINVOCATION_PACKETHASH",
      "outputs": [
        {
          "internalType": "bytes32",
          "name": "",
          "type": "bytes32"
        }
      ],
      "stateMutability": "pure",
      "type": "function"
    },
    {
      "inputs": [
        {
          "components": [
            {
              "internalType": "address",
              "name": "to",
              "type": "address"
            },
            {
              "internalType": "uint256",
              "name": "gasLimit",
              "type": "uint256"
            },
            {
              "internalType": "bytes",
              "name": "data",
              "type": "bytes"
            }
          ],
          "internalType": "struct Transaction",
          "name": "_input",
          "type": "tuple"
        }
      ],
      "name": "GET_TRANSACTION_PACKETHASH",
      "outputs": [
        {
          "internalType": "bytes32",
          "name": "",
          "type": "bytes32"
        }
      ],
      "stateMutability": "pure",
      "type": "function"
    },
    {
      "inputs": [
        {
          "internalType": "address",
          "name": "owner",
          "type": "address"
        },
        {
          "internalType": "address",
          "name": "spender",
          "type": "address"
        }
      ],
      "name": "allowance",
      "outputs": [
        {
          "internalType": "uint256",
          "name": "",
          "type": "uint256"
        }
      ],
      "stateMutability": "view",
      "type": "function"
    },
    {
      "inputs": [
        {
          "internalType": "address",
          "name": "spender",
          "type": "address"
        },
        {
          "internalType": "uint256",
          "name": "amount",
          "type": "uint256"
        }
      ],
      "name": "approve",
      "outputs": [
        {
          "internalType": "bool",
          "name": "",
          "type": "bool"
        }
      ],
      "stateMutability": "nonpayable",
      "type": "function"
    },
    {
      "inputs": [
        {
          "internalType": "address",
          "name": "account",
          "type": "address"
        }
      ],
      "name": "balanceOf",
      "outputs": [
        {
          "internalType": "uint256",
          "name": "",
          "type": "uint256"
        }
      ],
      "stateMutability": "view",
      "type": "function"
    },
    {
      "inputs": [
        {
          "components": [
            {
              "components": [
                {
                  "internalType": "address",
                  "name": "to",
                  "type": "address"
                },
                {
                  "internalType": "uint256",
                  "name": "gasLimit",
                  "type": "uint256"
                },
                {
                  "internalType": "bytes",
                  "name": "data",
                  "type": "bytes"
                }
              ],
              "internalType": "struct Transaction",
              "name": "transaction",
              "type": "tuple"
            },
            {
              "components": [
                {
                  "components": [
                    {
                      "internalType": "address",
                      "name": "delegate",
                      "type": "address"
                    },
                    {
                      "internalType": "bytes32",
                      "name": "authority",
                      "type": "bytes32"
                    },
                    {
                      "components": [
                        {
                          "internalType": "address",
                          "name": "enforcer",
                          "type": "address"
                        },
                        {
                          "internalType": "bytes",
                          "name": "terms",
                          "type": "bytes"
                        }
                      ],
                      "internalType": "struct Caveat[]",
                      "name": "caveats",
                      "type": "tuple[]"
                    }
                  ],
                  "internalType": "struct Delegation",
                  "name": "delegation",
                  "type": "tuple"
                },
                {
                  "internalType": "bytes",
                  "name": "signature",
                  "type": "bytes"
                }
              ],
              "internalType": "struct SignedDelegation[]",
              "name": "authority",
              "type": "tuple[]"
            }
          ],
          "internalType": "struct Invocation[]",
          "name": "batch",
          "type": "tuple[]"
        }
      ],
      "name": "contractInvoke",
      "outputs": [
        {
          "internalType": "bool",
          "name": "",
          "type": "bool"
        }
      ],
      "stateMutability": "nonpayable",
      "type": "function"
    },
    {
      "inputs": [],
      "name": "decimals",
      "outputs": [
        {
          "internalType": "uint8",
          "name": "",
          "type": "uint8"
        }
      ],
      "stateMutability": "view",
      "type": "function"
    },
    {
      "inputs": [
        {
          "internalType": "address",
          "name": "spender",
          "type": "address"
        },
        {
          "internalType": "uint256",
          "name": "subtractedValue",
          "type": "uint256"
        }
      ],
      "name": "decreaseAllowance",
      "outputs": [
        {
          "internalType": "bool",
          "name": "",
          "type": "bool"
        }
      ],
      "stateMutability": "nonpayable",
      "type": "function"
    },
    {
      "inputs": [],
      "name": "domainHash",
      "outputs": [
        {
          "internalType": "bytes32",
          "name": "",
          "type": "bytes32"
        }
      ],
      "stateMutability": "view",
      "type": "function"
    },
    {
      "inputs": [
        {
          "components": [
            {
              "internalType": "address",
              "name": "delegate",
              "type": "address"
            },
            {
              "internalType": "bytes32",
              "name": "authority",
              "type": "bytes32"
            },
            {
              "components": [
                {
                  "internalType": "address",
                  "name": "enforcer",
                  "type": "address"
                },
                {
                  "internalType": "bytes",
                  "name": "terms",
                  "type": "bytes"
                }
              ],
              "internalType": "struct Caveat[]",
              "name": "caveats",
              "type": "tuple[]"
            }
          ],
          "internalType": "struct Delegation",
          "name": "delegation",
          "type": "tuple"
        }
      ],
      "name": "getDelegationTypedDataHash",
      "outputs": [
        {
          "internalType": "bytes32",
          "name": "",
          "type": "bytes32"
        }
      ],
      "stateMutability": "view",
      "type": "function"
    },
    {
      "inputs": [
        {
          "internalType": "string",
          "name": "contractName",
          "type": "string"
        },
        {
          "internalType": "string",
          "name": "version",
          "type": "string"
        },
        {
          "internalType": "uint256",
          "name": "chainId",
          "type": "uint256"
        },
        {
          "internalType": "address",
          "name": "verifyingContract",
          "type": "address"
        }
      ],
      "name": "getEIP712DomainHash",
      "outputs": [
        {
          "internalType": "bytes32",
          "name": "",
          "type": "bytes32"
        }
      ],
      "stateMutability": "pure",
      "type": "function"
    },
    {
      "inputs": [
        {
          "components": [
            {
              "components": [
                {
                  "components": [
                    {
                      "internalType": "address",
                      "name": "to",
                      "type": "address"
                    },
                    {
                      "internalType": "uint256",
                      "name": "gasLimit",
                      "type": "uint256"
                    },
                    {
                      "internalType": "bytes",
                      "name": "data",
                      "type": "bytes"
                    }
                  ],
                  "internalType": "struct Transaction",
                  "name": "transaction",
                  "type": "tuple"
                },
                {
                  "components": [
                    {
                      "components": [
                        {
                          "internalType": "address",
                          "name": "delegate",
                          "type": "address"
                        },
                        {
                          "internalType": "bytes32",
                          "name": "authority",
                          "type": "bytes32"
                        },
                        {
                          "components": [
                            {
                              "internalType": "address",
                              "name": "enforcer",
                              "type": "address"
                            },
                            {
                              "internalType": "bytes",
                              "name": "terms",
                              "type": "bytes"
                            }
                          ],
                          "internalType": "struct Caveat[]",
                          "name": "caveats",
                          "type": "tuple[]"
                        }
                      ],
                      "internalType": "struct Delegation",
                      "name": "delegation",
                      "type": "tuple"
                    },
                    {
                      "internalType": "bytes",
                      "name": "signature",
                      "type": "bytes"
                    }
                  ],
                  "internalType": "struct SignedDelegation[]",
                  "name": "authority",
                  "type": "tuple[]"
                }
              ],
              "internalType": "struct Invocation[]",
              "name": "batch",
              "type": "tuple[]"
            },
            {
              "components": [
                {
                  "internalType": "uint256",
                  "name": "nonce",
                  "type": "uint256"
                },
                {
                  "internalType": "uint256",
                  "name": "queue",
                  "type": "uint256"
                }
              ],
              "internalType": "struct ReplayProtection",
              "name": "replayProtection",
              "type": "tuple"
            }
          ],
          "internalType": "struct Invocations",
          "name": "invocations",
          "type": "tuple"
        }
      ],
      "name": "getInvocationsTypedDataHash",
      "outputs": [
        {
          "internalType": "bytes32",
          "name": "",
          "type": "bytes32"
        }
      ],
      "stateMutability": "view",
      "type": "function"
    },
    {
      "inputs": [
        {
          "internalType": "address",
          "name": "spender",
          "type": "address"
        },
        {
          "internalType": "uint256",
          "name": "addedValue",
          "type": "uint256"
        }
      ],
      "name": "increaseAllowance",
      "outputs": [
        {
          "internalType": "bool",
          "name": "",
          "type": "bool"
        }
      ],
      "stateMutability": "nonpayable",
      "type": "function"
    },
    {
      "inputs": [
        {
          "components": [
            {
              "components": [
                {
                  "components": [
                    {
                      "components": [
                        {
                          "internalType": "address",
                          "name": "to",
                          "type": "address"
                        },
                        {
                          "internalType": "uint256",
                          "name": "gasLimit",
                          "type": "uint256"
                        },
                        {
                          "internalType": "bytes",
                          "name": "data",
                          "type": "bytes"
                        }
                      ],
                      "internalType": "struct Transaction",
                      "name": "transaction",
                      "type": "tuple"
                    },
                    {
                      "components": [
                        {
                          "components": [
                            {
                              "internalType": "address",
                              "name": "delegate",
                              "type": "address"
                            },
                            {
                              "internalType": "bytes32",
                              "name": "authority",
                              "type": "bytes32"
                            },
                            {
                              "components": [
                                {
                                  "internalType": "address",
                                  "name": "enforcer",
                                  "type": "address"
                                },
                                {
                                  "internalType": "bytes",
                                  "name": "terms",
                                  "type": "bytes"
                                }
                              ],
                              "internalType": "struct Caveat[]",
                              "name": "caveats",
                              "type": "tuple[]"
                            }
                          ],
                          "internalType": "struct Delegation",
                          "name": "delegation",
                          "type": "tuple"
                        },
                        {
                          "internalType": "bytes",
                          "name": "signature",
                          "type": "bytes"
                        }
                      ],
                      "internalType": "struct SignedDelegation[]",
                      "name": "authority",
                      "type": "tuple[]"
                    }
                  ],
                  "internalType": "struct Invocation[]",
                  "name": "batch",
                  "type": "tuple[]"
                },
                {
                  "components": [
                    {
                      "internalType": "uint256",
                      "name": "nonce",
                      "type": "uint256"
                    },
                    {
                      "internalType": "uint256",
                      "name": "queue",
                      "type": "uint256"
                    }
                  ],
                  "internalType": "struct ReplayProtection",
                  "name": "replayProtection",
                  "type": "tuple"
                }
              ],
              "internalType": "struct Invocations",
              "name": "invocations",
              "type": "tuple"
            },
            {
              "internalType": "bytes",
              "name": "signature",
              "type": "bytes"
            }
          ],
          "internalType": "struct SignedInvocation[]",
          "name": "signedInvocations",
          "type": "tuple[]"
        }
      ],
      "name": "invoke",
      "outputs": [
        {
          "internalType": "bool",
          "name": "success",
          "type": "bool"
        }
      ],
      "stateMutability": "nonpayable",
      "type": "function"
    },
    {
      "inputs": [
        {
          "internalType": "address",
          "name": "",
          "type": "address"
        },
        {
          "internalType": "uint256",
          "name": "",
          "type": "uint256"
        }
      ],
      "name": "multiNonce",
      "outputs": [
        {
          "internalType": "uint256",
          "name": "",
          "type": "uint256"
        }
      ],
      "stateMutability": "view",
      "type": "function"
    },
    {
      "inputs": [],
      "name": "name",
      "outputs": [
        {
          "internalType": "string",
          "name": "",
          "type": "string"
        }
      ],
      "stateMutability": "view",
      "type": "function"
    },
    {
      "inputs": [],
      "name": "owner",
      "outputs": [
        {
          "internalType": "address",
          "name": "",
          "type": "address"
        }
      ],
      "stateMutability": "view",
      "type": "function"
    },
    {
      "inputs": [],
      "name": "renounceOwnership",
      "outputs": [],
      "stateMutability": "nonpayable",
      "type": "function"
    },
    {
      "inputs": [],
      "name": "symbol",
      "outputs": [
        {
          "internalType": "string",
          "name": "",
          "type": "string"
        }
      ],
      "stateMutability": "view",
      "type": "function"
    },
    {
      "inputs": [],
      "name": "totalSupply",
      "outputs": [
        {
          "internalType": "uint256",
          "name": "",
          "type": "uint256"
        }
      ],
      "stateMutability": "view",
      "type": "function"
    },
    {
      "inputs": [
        {
          "internalType": "address",
          "name": "recipient",
          "type": "address"
        },
        {
          "internalType": "uint256",
          "name": "amount",
          "type": "uint256"
        }
      ],
      "name": "transfer",
      "outputs": [
        {
          "internalType": "bool",
          "name": "",
          "type": "bool"
        }
      ],
      "stateMutability": "nonpayable",
      "type": "function"
    },
    {
      "inputs": [
        {
          "internalType": "address",
          "name": "sender",
          "type": "address"
        },
        {
          "internalType": "address",
          "name": "recipient",
          "type": "address"
        },
        {
          "internalType": "uint256",
          "name": "amount",
          "type": "uint256"
        }
      ],
      "name": "transferFrom",
      "outputs": [
        {
          "internalType": "bool",
          "name": "",
          "type": "bool"
        }
      ],
      "stateMutability": "nonpayable",
      "type": "function"
    },
    {
      "inputs": [
        {
          "internalType": "address",
          "name": "newOwner",
          "type": "address"
        }
      ],
      "name": "transferOwnership",
      "outputs": [],
      "stateMutability": "nonpayable",
      "type": "function"
    },
    {
      "inputs": [
        {
          "components": [
            {
              "components": [
                {
                  "internalType": "address",
                  "name": "delegate",
                  "type": "address"
                },
                {
                  "internalType": "bytes32",
                  "name": "authority",
                  "type": "bytes32"
                },
                {
                  "components": [
                    {
                      "internalType": "address",
                      "name": "enforcer",
                      "type": "address"
                    },
                    {
                      "internalType": "bytes",
                      "name": "terms",
                      "type": "bytes"
                    }
                  ],
                  "internalType": "struct Caveat[]",
                  "name": "caveats",
                  "type": "tuple[]"
                }
              ],
              "internalType": "struct Delegation",
              "name": "delegation",
              "type": "tuple"
            },
            {
              "internalType": "bytes",
              "name": "signature",
              "type": "bytes"
            }
          ],
          "internalType": "struct SignedDelegation",
          "name": "signedDelegation",
          "type": "tuple"
        }
      ],
      "name": "verifyDelegationSignature",
      "outputs": [
        {
          "internalType": "address",
          "name": "",
          "type": "address"
        }
      ],
      "stateMutability": "view",
      "type": "function"
    },
    {
      "inputs": [
        {
          "components": [
            {
              "components": [
                {
                  "components": [
                    {
                      "components": [
                        {
                          "internalType": "address",
                          "name": "to",
                          "type": "address"
                        },
                        {
                          "internalType": "uint256",
                          "name": "gasLimit",
                          "type": "uint256"
                        },
                        {
                          "internalType": "bytes",
                          "name": "data",
                          "type": "bytes"
                        }
                      ],
                      "internalType": "struct Transaction",
                      "name": "transaction",
                      "type": "tuple"
                    },
                    {
                      "components": [
                        {
                          "components": [
                            {
                              "internalType": "address",
                              "name": "delegate",
                              "type": "address"
                            },
                            {
                              "internalType": "bytes32",
                              "name": "authority",
                              "type": "bytes32"
                            },
                            {
                              "components": [
                                {
                                  "internalType": "address",
                                  "name": "enforcer",
                                  "type": "address"
                                },
                                {
                                  "internalType": "bytes",
                                  "name": "terms",
                                  "type": "bytes"
                                }
                              ],
                              "internalType": "struct Caveat[]",
                              "name": "caveats",
                              "type": "tuple[]"
                            }
                          ],
                          "internalType": "struct Delegation",
                          "name": "delegation",
                          "type": "tuple"
                        },
                        {
                          "internalType": "bytes",
                          "name": "signature",
                          "type": "bytes"
                        }
                      ],
                      "internalType": "struct SignedDelegation[]",
                      "name": "authority",
                      "type": "tuple[]"
                    }
                  ],
                  "internalType": "struct Invocation[]",
                  "name": "batch",
                  "type": "tuple[]"
                },
                {
                  "components": [
                    {
                      "internalType": "uint256",
                      "name": "nonce",
                      "type": "uint256"
                    },
                    {
                      "internalType": "uint256",
                      "name": "queue",
                      "type": "uint256"
                    }
                  ],
                  "internalType": "struct ReplayProtection",
                  "name": "replayProtection",
                  "type": "tuple"
                }
              ],
              "internalType": "struct Invocations",
              "name": "invocations",
              "type": "tuple"
            },
            {
              "internalType": "bytes",
              "name": "signature",
              "type": "bytes"
            }
          ],
          "internalType": "struct SignedInvocation",
          "name": "signedInvocation",
          "type": "tuple"
        }
      ],
      "name": "verifyInvocationSignature",
      "outputs": [
        {
          "internalType": "address",
          "name": "",
          "type": "address"
        }
      ],
      "stateMutability": "view",
      "type": "function"
    }
  ],
  "bytecode": "0x60a06040523480156200001157600080fd5b5060405162002d8738038062002d87833981016040819052620000349162000431565b82604051806040016040528060018152602001603160f81b8152508484816003908051906020019062000069929190620002be565b5080516200007f906004906020840190620002be565b5050506200009c620000966200012660201b60201c565b62000184565b8151602080840191909120825182840120604080517f8b73c3c69bb8fe3d512ecc4cf759cc79239f7b179b0ffacaa9a75d522b39400f818601528082019390935260608301919091524660808301523060a0808401919091528151808403909101815260c090920190528051910120608052506200011d90503382620001d6565b50505062000507565b60003033036200017e57600080368080601f0160208091040260200160405190810160405280939291908181526020018383808284376000920191909152505050503601516001600160a01b03169150620001819050565b50335b90565b600580546001600160a01b038381166001600160a01b0319831681179093556040519116919082907f8be0079c531659141344cd1fd0a4f28419497f9722a3daafe3b4186f6b6457e090600090a35050565b6001600160a01b038216620002315760405162461bcd60e51b815260206004820152601f60248201527f45524332303a206d696e7420746f20746865207a65726f206164647265737300604482015260640160405180910390fd5b8060026000828254620002459190620004a4565b90915550506001600160a01b0382166000908152602081905260408120805483929062000274908490620004a4565b90915550506040518181526001600160a01b038316906000907fddf252ad1be2c89b69c2b068fc378daa952ba7f163c4a11628f55a4df523b3ef9060200160405180910390a35050565b828054620002cc90620004cb565b90600052602060002090601f016020900481019282620002f057600085556200033b565b82601f106200030b57805160ff19168380011785556200033b565b828001600101855582156200033b579182015b828111156200033b5782518255916020019190600101906200031e565b50620003499291506200034d565b5090565b5b808211156200034957600081556001016200034e565b634e487b7160e01b600052604160045260246000fd5b600082601f8301126200038c57600080fd5b81516001600160401b0380821115620003a957620003a962000364565b604051601f8301601f19908116603f01168101908282118183101715620003d457620003d462000364565b81604052838152602092508683858801011115620003f157600080fd5b600091505b83821015620004155785820183015181830184015290820190620003f6565b83821115620004275760008385830101525b9695505050505050565b6000806000606084860312156200044757600080fd5b83516001600160401b03808211156200045f57600080fd5b6200046d878388016200037a565b945060208601519150808211156200048457600080fd5b5062000493868287016200037a565b925050604084015190509250925092565b60008219821115620004c657634e487b7160e01b600052601160045260246000fd5b500190565b600181811c90821680620004e057607f821691505b6020821081036200050157634e487b7160e01b600052602260045260246000fd5b50919050565b60805161285662000531600039600081816105ad01528181610a5b0152610d6201526128566000f3fe608060405234801561001057600080fd5b50600436106102275760003560e01c80637234eefe11610130578063a2e01f75116100b8578063d327c1eb1161007c578063d327c1eb146104d2578063d6d75cbf1461055c578063dd62ed3e1461056f578063dfe86ac5146105a8578063f2fde38b146105cf57600080fd5b8063a2e01f7514610473578063a457c2d714610486578063a9059cbb14610499578063bb5af5bd146104ac578063caced6c5146104bf57600080fd5b80638a04499e116100ff5780638a04499e146104095780638da5cb5b1461043457806395d89b411461044557806397182ed61461044d57806398bc186a1461046057600080fd5b80637234eefe146103bd578063732c36e8146103d0578063736f7ce7146103e35780637b577b58146103f657600080fd5b806339509351116101b357806360b6d7681161018257806360b6d768146103515780636c2b1253146103645780636f9658031461037757806370a082311461038a578063715018a6146103b357600080fd5b806339509351146103055780633a481821146103185780635c6d9f0c1461032b5780635cf1b24a1461033e57600080fd5b806318160ddd116101fa57806318160ddd146102b557806323b872dd146102bd5780632f52a2fd146102d05780632fad7efc146102e3578063313ce567146102f657600080fd5b80630162f7221461022c57806306fdde031461026a57806308aaf6b01461027f578063095ea7b314610292575b600080fd5b61025761023a366004611a48565b600660209081526000928352604080842090915290825290205481565b6040519081526020015b60405180910390f35b6102726105e2565b6040516102619190611aca565b61025761028d366004611c56565b610674565b6102a56102a0366004611a48565b6106f4565b6040519015158152602001610261565b600254610257565b6102a56102cb366004611c8a565b610712565b6102576102de366004611dda565b6107e8565b6102a56102f1366004611e59565b610853565b60405160128152602001610261565b6102a5610313366004611a48565b61091a565b6102576103263660046120b2565b61096e565b6102a5610339366004611e59565b6109e5565b61025761034c3660046120e6565b6109f9565b61025761035f3660046121a3565b610a56565b6102576103723660046121d7565b610aa6565b61025761038536600461220b565b610b03565b610257610398366004612227565b6001600160a01b031660009081526020819052604090205490565b6103bb610b54565b005b6102576103cb3660046121a3565b610bd9565b6102576103de366004612283565b610c17565b6102576103f1366004612301565b610c54565b610257610404366004612335565b610cbc565b61041c6104173660046121d7565b610d24565b6040516001600160a01b039091168152602001610261565b6005546001600160a01b031661041c565b610272610d4e565b61025761045b366004611dda565b610d5d565b61025761046e366004612369565b610d8a565b610257610481366004612414565b610dd6565b6102a5610494366004611a48565b610e42565b6102a56104a7366004611a48565b610ef9565b6102576104ba366004612487565b610f0d565b61041c6104cd366004612487565b610f3e565b6102576104e03660046124bb565b8351602094850120835193850193909320604080517f8b73c3c69bb8fe3d512ecc4cf759cc79239f7b179b0ffacaa9a75d522b39400f8188015280820195909552606085019190915260808401929092526001600160a01b031660a0808401919091528151808403909101815260c09092019052805191012090565b61025761056a366004612538565b610f68565b61025761057d366004612554565b6001600160a01b03918216600090815260016020908152604080832093909416825291909152205490565b6102577f000000000000000000000000000000000000000000000000000000000000000081565b6103bb6105dd366004612227565b610fa9565b6060600380546105f190612587565b80601f016020809104026020016040519081016040528092919081815260200182805461061d90612587565b801561066a5780601f1061063f5761010080835404028352916020019161066a565b820191906000526020600020905b81548152906001019060200180831161064d57829003601f168201915b5050505050905090565b6000807f80ad7e1b04ee6d994a125f4714ca0720908bd80ed16063ec8aee4b88e9253e2d83600001518460200151805190602001206040516020016106d5939291909283526001600160a01b03919091166020830152604082015260600190565b60408051601f1981840301815291905280516020909101209392505050565b6000610708610701611093565b84846110ef565b5060015b92915050565b600061071f848484611213565b6001600160a01b038416600090815260016020526040812081610740611093565b6001600160a01b03166001600160a01b03168152602001908152602001600020549050828110156107c95760405162461bcd60e51b815260206004820152602860248201527f45524332303a207472616e7366657220616d6f756e74206578636565647320616044820152676c6c6f77616e636560c01b60648201526084015b60405180910390fd5b6107dd856107d5611093565b8584036110ef565b506001949350505050565b6000807f409f5114779a253e700d775d7845e6efc1e83685ac59868d2df3d4de51c7d621836000015184602001516108238660400151610cbc565b6040805160208101959095526001600160a01b03909316928401929092526060830152608082015260a0016106d5565b6000805b828110156109135736848483818110610872576108726125c1565b905060200281019061088491906125d7565b905060006108946104cd836125f7565b90506108e0818787868181106108ac576108ac6125c1565b90506020028101906108be91906125d7565b6108c89080612603565b6020018036038101906108db919061220b565b6113e3565b6108fd6108ed8380612603565b6108f79080612619565b836114ae565b505050808061090b90612678565b915050610857565b5092915050565b6000610708610927611093565b848460016000610935611093565b6001600160a01b03908116825260208083019390935260409182016000908120918b16815292529020546109699190612691565b6110ef565b6000606060005b83518110156109d657816109a1858381518110610994576109946125c1565b60200260200101516109f9565b6040516020016109b29291906126a9565b604051602081830303815290604052915080806109ce90612678565b915050610975565b50805160209091012092915050565b60006109f28383336114ae565b9392505050565b6000807fd97dd99b404d177890f06a8f0fc8e5ed0333fb2ebb6684360709066e8984f594610a2a8460000151610dd6565b610a378560200151610c54565b60408051602081019490945283019190915260608201526080016106d5565b6000807f0000000000000000000000000000000000000000000000000000000000000000610a8384610bd9565b60405161190160f01b6020820152602281019290925260428201526062016106d5565b6000807f3c36a06e1d288b0f94f565588317a46ad11bc3c96992109f9a2365a2737259a7610ad784600001516107e8565b6020808601518051908201206040516106d5949392019283526020830191909152604082015260600190565b6000807fe8d3d963b33868fb116316bc3fd55e8f49123f30e4418f71e140d54b7cd3b2b9836000015184602001516040516020016106d5939291909283526020830191909152604082015260600190565b610b5c611093565b6001600160a01b0316610b776005546001600160a01b031690565b6001600160a01b031614610bcd5760405162461bcd60e51b815260206004820181905260248201527f4f776e61626c653a2063616c6c6572206973206e6f7420746865206f776e657260448201526064016107c0565b610bd760006118c4565b565b6000807f08c69a206c06f5334b35ceb1186181a713b21aff02cf66285f375084fbef2eb8610c0a846000015161096e565b610a378560200151610b03565b6000807f1b0091a1d050ac3fa97e15af326cf512d740529b43d5750169acacda23de2788836000015180519060200120610a378560200151610f68565b6000606060005b83518110156109d65781610c87858381518110610c7a57610c7a6125c1565b6020026020010151610aa6565b604051602001610c989291906126a9565b60405160208183030381529060405291508080610cb490612678565b915050610c5b565b6000606060005b83518110156109d65781610cef858381518110610ce257610ce26125c1565b6020026020010151610674565b604051602001610d009291906126a9565b60405160208183030381529060405291508080610d1c90612678565b915050610cc3565b805160009081610d3382610d5d565b90506000610d45828660200151611916565b95945050505050565b6060600480546105f190612587565b6000807f0000000000000000000000000000000000000000000000000000000000000000610a83846107e8565b6000807f8b73c3c69bb8fe3d512ecc4cf759cc79239f7b179b0ffacaa9a75d522b39400f83600001518460200151856040015186606001516040516020016106d59594939291906126cb565b6000807fb16dfdb3b8fa033fe30ac976cd4a50ad256b6811c80d90fcd0b323eec190047d836000015184602001518560400151805190602001206040516020016106d594939291909384526001600160a01b039290921660208401526040830152606082015260800190565b60008060016000610e51611093565b6001600160a01b0390811682526020808301939093526040918201600090812091881681529252902054905082811015610edb5760405162461bcd60e51b815260206004820152602560248201527f45524332303a2064656372656173656420616c6c6f77616e63652062656c6f77604482015264207a65726f60d81b60648201526084016107c0565b610eef610ee6611093565b858584036110ef565b5060019392505050565b6000610708610f06611093565b8484611213565b6000807fc32b6dfe0f988d1f2b13248cddd88e320ff0ae86e3ccfe38bab77a80f4477d44610ad78460000151610bd9565b600080610f4e8360000151610a56565b90506000610f60828560200151611916565b949350505050565b805160405160009182916106d5917f7148a5140265154d6c5200f68c3b86caca80512f179c3903dffd45aeaefc8ea891602001918252602082015260400190565b610fb1611093565b6001600160a01b0316610fcc6005546001600160a01b031690565b6001600160a01b0316146110225760405162461bcd60e51b815260206004820181905260248201527f4f776e61626c653a2063616c6c6572206973206e6f7420746865206f776e657260448201526064016107c0565b6001600160a01b0381166110875760405162461bcd60e51b815260206004820152602660248201527f4f776e61626c653a206e6577206f776e657220697320746865207a65726f206160448201526564647265737360d01b60648201526084016107c0565b611090816118c4565b50565b60003033036110e957600080368080601f0160208091040260200160405190810160405280939291908181526020018383808284376000920191909152505050503601516001600160a01b031691506110ec9050565b50335b90565b6001600160a01b0383166111515760405162461bcd60e51b8152602060048201526024808201527f45524332303a20617070726f76652066726f6d20746865207a65726f206164646044820152637265737360e01b60648201526084016107c0565b6001600160a01b0382166111b25760405162461bcd60e51b815260206004820152602260248201527f45524332303a20617070726f766520746f20746865207a65726f206164647265604482015261737360f01b60648201526084016107c0565b6001600160a01b0383811660008181526001602090815260408083209487168084529482529182902085905590518481527f8c5be1e5ebec7d5bd14f71427d1e84f3dd0314c0f7b2291e5b200ac8c7c3b925910160405180910390a3505050565b6001600160a01b0383166112775760405162461bcd60e51b815260206004820152602560248201527f45524332303a207472616e736665722066726f6d20746865207a65726f206164604482015264647265737360d81b60648201526084016107c0565b6001600160a01b0382166112d95760405162461bcd60e51b815260206004820152602360248201527f45524332303a207472616e7366657220746f20746865207a65726f206164647260448201526265737360e81b60648201526084016107c0565b6001600160a01b038316600090815260208190526040902054818110156113515760405162461bcd60e51b815260206004820152602660248201527f45524332303a207472616e7366657220616d6f756e7420657863656564732062604482015265616c616e636560d01b60648201526084016107c0565b6001600160a01b03808516600090815260208190526040808220858503905591851681529081208054849290611388908490612691565b92505081905550826001600160a01b0316846001600160a01b03167fddf252ad1be2c89b69c2b068fc378daa952ba7f163c4a11628f55a4df523b3ef846040516113d491815260200190565b60405180910390a35b50505050565b60208082015182516001600160a01b0385166000908152600684526040808220848352909452929092205490919061141c906001612691565b81146114845760405162461bcd60e51b815260206004820152603160248201527f4f6e652d61742d612d74696d65206f7264657220656e666f726365642e204e6f6044820152701b98d94c881a5cc81d1bdbc81cdb585b1b607a1b60648201526084016107c0565b6001600160a01b039093166000908152600660209081526040808320938352929052209190915550565b6000805b838110156118bc5760008585838181106114ce576114ce6125c1565b90506020028101906114e091906125d7565b6114e990612719565b90506000808260200151516000036115015750849050805b6000805b8460200151518110156117a15760008560200151828151811061152a5761152a6125c1565b60200260200101519050600061153f82610d24565b905082600003611550578095508594505b846001600160a01b0316816001600160a01b0316146115ca5760405162461bcd60e51b815260206004820152603060248201527f44656c65676174696f6e207369676e657220646f6573206e6f74206d6174636860448201526f103932b8bab4b932b21039b4b3b732b960811b60648201526084016107c0565b8151602081015185146116455760405162461bcd60e51b815260206004820152603760248201527f44656c65676174696f6e20617574686f7269747920646f6573206e6f74206d6160448201527f7463682070726576696f75732064656c65676174696f6e00000000000000000060648201526084016107c0565b600061165084610aa6565b905060005b8260400151518161ffff16101561178457600083604001518261ffff1681518110611682576116826125c1565b60200260200101516000015190506000816001600160a01b0316635068de4c86604001518561ffff16815181106116bb576116bb6125c1565b6020026020010151602001518e60000151876040518463ffffffff1660e01b81526004016116eb93929190612725565b6020604051808303816000875af115801561170a573d6000803e3d6000fd5b505050506040513d601f19601f8201168201806040525081019061172e9190612781565b90508061176f5760405162461bcd60e51b815260206004820152600f60248201526e10d85d99585d081c995a9958dd1959608a1b60448201526064016107c0565b5050808061177c906127a3565b915050611655565b50905195509350829150611799905081612678565b915050611505565b50835180516001600160a01b031630146117fd5760405162461bcd60e51b815260206004820181905260248201527f496e766f636174696f6e2074617267657420646f6573206e6f74206d6174636860448201526064016107c0565b6040516001600160a01b0385811682528916907f185d11175440fcb6458fbc1889b02953452539ed80ad1da781a5449500f6d9609060200160405180910390a2611855816000015182604001518360200151876119ed565b9650866118a45760405162461bcd60e51b815260206004820152601a60248201527f44656c656761746f7220657865637574696f6e206661696c656400000000000060448201526064016107c0565b505050505080806118b490612678565b9150506114b2565b509392505050565b600580546001600160a01b038381166001600160a01b0319831681179093556040519116919082907f8be0079c531659141344cd1fd0a4f28419497f9722a3daafe3b4186f6b6457e090600090a35050565b6000806000808451604114611931576000935050505061070c565b50505060208201516040830151606084015160001a601b81101561195d5761195a601b826127c4565b90505b8060ff16601b1415801561197557508060ff16601c14155b15611986576000935050505061070c565b60408051600081526020810180835288905260ff831691810191909152606081018490526080810183905260019060a0016020604051602081039080840390855afa1580156119d9573d6000803e3d6000fd5b50505060206040510351935050505061070c565b6000808483604051602001611a039291906127e9565b604051602081830303815290604052905060008082516020840160008a89f19695505050505050565b80356001600160a01b0381168114611a4357600080fd5b919050565b60008060408385031215611a5b57600080fd5b611a6483611a2c565b946020939093013593505050565b60005b83811015611a8d578181015183820152602001611a75565b838111156113dd5750506000910152565b60008151808452611ab6816020860160208601611a72565b601f01601f19169290920160200192915050565b6020815260006109f26020830184611a9e565b634e487b7160e01b600052604160045260246000fd5b604080519081016001600160401b0381118282101715611b1557611b15611add565b60405290565b604051606081016001600160401b0381118282101715611b1557611b15611add565b604051608081016001600160401b0381118282101715611b1557611b15611add565b604051601f8201601f191681016001600160401b0381118282101715611b8757611b87611add565b604052919050565b600082601f830112611ba057600080fd5b81356001600160401b03811115611bb957611bb9611add565b611bcc601f8201601f1916602001611b5f565b818152846020838601011115611be157600080fd5b816020850160208301376000918101602001919091529392505050565b600060408284031215611c1057600080fd5b611c18611af3565b9050611c2382611a2c565b815260208201356001600160401b03811115611c3e57600080fd5b611c4a84828501611b8f565b60208301525092915050565b600060208284031215611c6857600080fd5b81356001600160401b03811115611c7e57600080fd5b610f6084828501611bfe565b600080600060608486031215611c9f57600080fd5b611ca884611a2c565b9250611cb660208501611a2c565b9150604084013590509250925092565b60006001600160401b03821115611cdf57611cdf611add565b5060051b60200190565b600082601f830112611cfa57600080fd5b81356020611d0f611d0a83611cc6565b611b5f565b82815260059290921b84018101918181019086841115611d2e57600080fd5b8286015b84811015611d6d5780356001600160401b03811115611d515760008081fd5b611d5f8986838b0101611bfe565b845250918301918301611d32565b509695505050505050565b600060608284031215611d8a57600080fd5b611d92611b1b565b9050611d9d82611a2c565b81526020820135602082015260408201356001600160401b03811115611dc257600080fd5b611dce84828501611ce9565b60408301525092915050565b600060208284031215611dec57600080fd5b81356001600160401b03811115611e0257600080fd5b610f6084828501611d78565b60008083601f840112611e2057600080fd5b5081356001600160401b03811115611e3757600080fd5b6020830191508360208260051b8501011115611e5257600080fd5b9250929050565b60008060208385031215611e6c57600080fd5b82356001600160401b03811115611e8257600080fd5b611e8e85828601611e0e565b90969095509350505050565b600060608284031215611eac57600080fd5b611eb4611b1b565b9050611ebf82611a2c565b81526020820135602082015260408201356001600160401b03811115611ee457600080fd5b611dce84828501611b8f565b600060408284031215611f0257600080fd5b611f0a611af3565b905081356001600160401b0380821115611f2357600080fd5b611f2f85838601611d78565b83526020840135915080821115611f4557600080fd5b50611c4a84828501611b8f565b600082601f830112611f6357600080fd5b81356020611f73611d0a83611cc6565b82815260059290921b84018101918181019086841115611f9257600080fd5b8286015b84811015611d6d5780356001600160401b03811115611fb55760008081fd5b611fc38986838b0101611ef0565b845250918301918301611f96565b600060408284031215611fe357600080fd5b611feb611af3565b905081356001600160401b038082111561200457600080fd5b61201085838601611e9a565b8352602084013591508082111561202657600080fd5b50611c4a84828501611f52565b600082601f83011261204457600080fd5b81356020612054611d0a83611cc6565b82815260059290921b8401810191818101908684111561207357600080fd5b8286015b84811015611d6d5780356001600160401b038111156120965760008081fd5b6120a48986838b0101611fd1565b845250918301918301612077565b6000602082840312156120c457600080fd5b81356001600160401b038111156120da57600080fd5b610f6084828501612033565b6000602082840312156120f857600080fd5b81356001600160401b0381111561210e57600080fd5b610f6084828501611fd1565b60006040828403121561212c57600080fd5b612134611af3565b9050813581526020820135602082015292915050565b60006060828403121561215c57600080fd5b612164611af3565b905081356001600160401b0381111561217c57600080fd5b61218884828501612033565b825250612198836020840161211a565b602082015292915050565b6000602082840312156121b557600080fd5b81356001600160401b038111156121cb57600080fd5b610f608482850161214a565b6000602082840312156121e957600080fd5b81356001600160401b038111156121ff57600080fd5b610f6084828501611ef0565b60006040828403121561221d57600080fd5b6109f2838361211a565b60006020828403121561223957600080fd5b6109f282611a2c565b60006020828403121561225457600080fd5b604051602081018181106001600160401b038211171561227657612276611add565b6040529135825250919050565b60006020828403121561229557600080fd5b81356001600160401b03808211156122ac57600080fd5b90830190604082860312156122c057600080fd5b6122c8611af3565b8235828111156122d757600080fd5b6122e387828601611b8f565b8252506122f38660208501612242565b602082015295945050505050565b60006020828403121561231357600080fd5b81356001600160401b0381111561232957600080fd5b610f6084828501611f52565b60006020828403121561234757600080fd5b81356001600160401b0381111561235d57600080fd5b610f6084828501611ce9565b60006020828403121561237b57600080fd5b81356001600160401b038082111561239257600080fd5b90830190608082860312156123a657600080fd5b6123ae611b3d565b8235828111156123bd57600080fd5b6123c987828601611b8f565b8252506020830135828111156123de57600080fd5b6123ea87828601611b8f565b6020830152506040830135604082015261240660608401611a2c565b606082015295945050505050565b60006020828403121561242657600080fd5b81356001600160401b0381111561243c57600080fd5b610f6084828501611e9a565b60006040828403121561245a57600080fd5b612462611af3565b905081356001600160401b038082111561247b57600080fd5b611f2f8583860161214a565b60006020828403121561249957600080fd5b81356001600160401b038111156124af57600080fd5b610f6084828501612448565b600080600080608085870312156124d157600080fd5b84356001600160401b03808211156124e857600080fd5b6124f488838901611b8f565b9550602087013591508082111561250a57600080fd5b5061251787828801611b8f565b9350506040850135915061252d60608601611a2c565b905092959194509250565b60006020828403121561254a57600080fd5b6109f28383612242565b6000806040838503121561256757600080fd5b61257083611a2c565b915061257e60208401611a2c565b90509250929050565b600181811c9082168061259b57607f821691505b6020821081036125bb57634e487b7160e01b600052602260045260246000fd5b50919050565b634e487b7160e01b600052603260045260246000fd5b60008235603e198336030181126125ed57600080fd5b9190910192915050565b600061070c3683612448565b60008235605e198336030181126125ed57600080fd5b6000808335601e1984360301811261263057600080fd5b8301803591506001600160401b0382111561264a57600080fd5b6020019150600581901b3603821315611e5257600080fd5b634e487b7160e01b600052601160045260246000fd5b60006001820161268a5761268a612662565b5060010190565b600082198211156126a4576126a4612662565b500190565b600083516126bb818460208801611a72565b9190910191825250602001919050565b85815260a0602082015260006126e460a0830187611a9e565b82810360408401526126f68187611a9e565b606084019590955250506001600160a01b03919091166080909101529392505050565b600061070c3683611fd1565b6060815260006127386060830186611a9e565b828103602084015260018060a01b0385511681526020850151602082015260408501516060604083015261276f6060830182611a9e565b92505050826040830152949350505050565b60006020828403121561279357600080fd5b815180151581146109f257600080fd5b600061ffff8083168181036127ba576127ba612662565b6001019392505050565b600060ff821660ff84168060ff038211156127e1576127e1612662565b019392505050565b600083516127fb818460208801611a72565b60609390931b6bffffffffffffffffffffffff1916919092019081526014019291505056fea26469706673582212208b5a527bcb6ed8a2912dc0447dd1cc7b8bd262deea6746d1dbb6c9416b76901d64736f6c634300080d0033",
  "linkReferences": {},
  "deployedLinkReferences": {}
}