{
  "_format": "hh-sol-artifact-1",
  "contractName": "EIP712Decoder",
  "sourceName": "contracts/TypesAndDecoders.sol",
  "abi": [
    {
      "inputs": [
        {
          "components": [
            {
              "internalType": "address",
              "name": "enforcer",
              "type": "address"
            },
            {
              "internalType": "bytes",
              "name": "terms",
              "type": "bytes"
            }
          ],
          "internalType": "struct Caveat[]",
          "name": "_input",
          "type": "tuple[]"
        }
      ],
      "name": "GET_CAVEAT_ARRAY_PACKETHASH",
      "outputs": [
        {
          "internalType": "bytes32",
          "name": "",
          "type": "bytes32"
        }
      ],
      "stateMutability": "pure",
      "type": "function"
    },
    {
      "inputs": [
        {
          "components": [
            {
              "internalType": "address",
              "name": "enforcer",
              "type": "address"
            },
            {
              "internalType": "bytes",
              "name": "terms",
              "type": "bytes"
            }
          ],
          "internalType": "struct Caveat",
          "name": "_input",
          "type": "tuple"
        }
      ],
      "name": "GET_CAVEAT_PACKETHASH",
      "outputs": [
        {
          "internalType": "bytes32",
          "name": "",
          "type": "bytes32"
        }
      ],
      "stateMutability": "pure",
      "type": "function"
    },
    {
      "inputs": [
        {
          "components": [
            {
              "internalType": "address",
              "name": "delegate",
              "type": "address"
            },
            {
              "internalType": "bytes32",
              "name": "authority",
              "type": "bytes32"
            },
            {
              "components": [
                {
                  "internalType": "address",
                  "name": "enforcer",
                  "type": "address"
                },
                {
                  "internalType": "bytes",
                  "name": "terms",
                  "type": "bytes"
                }
              ],
              "internalType": "struct Caveat[]",
              "name": "caveats",
              "type": "tuple[]"
            }
          ],
          "internalType": "struct Delegation",
          "name": "_input",
          "type": "tuple"
        }
      ],
      "name": "GET_DELEGATION_PACKETHASH",
      "outputs": [
        {
          "internalType": "bytes32",
          "name": "",
          "type": "bytes32"
        }
      ],
      "stateMutability": "pure",
      "type": "function"
    },
    {
      "inputs": [
        {
          "components": [
            {
              "internalType": "string",
              "name": "name",
              "type": "string"
            },
            {
              "internalType": "string",
              "name": "version",
              "type": "string"
            },
            {
              "internalType": "uint256",
              "name": "chainId",
              "type": "uint256"
            },
            {
              "internalType": "address",
              "name": "verifyingContract",
              "type": "address"
            }
          ],
          "internalType": "struct EIP712Domain",
          "name": "_input",
          "type": "tuple"
        }
      ],
      "name": "GET_EIP712DOMAIN_PACKETHASH",
      "outputs": [
        {
          "internalType": "bytes32",
          "name": "",
          "type": "bytes32"
        }
      ],
      "stateMutability": "pure",
      "type": "function"
    },
    {
      "inputs": [
        {
          "components": [
            {
              "internalType": "bytes32",
              "name": "delegationHash",
              "type": "bytes32"
            }
          ],
          "internalType": "struct IntentionToRevoke",
          "name": "_input",
          "type": "tuple"
        }
      ],
      "name": "GET_INTENTIONTOREVOKE_PACKETHASH",
      "outputs": [
        {
          "internalType": "bytes32",
          "name": "",
          "type": "bytes32"
        }
      ],
      "stateMutability": "pure",
      "type": "function"
    },
    {
      "inputs": [
        {
          "components": [
            {
              "components": [
                {
                  "components": [
                    {
                      "internalType": "address",
                      "name": "to",
                      "type": "address"
                    },
                    {
                      "internalType": "uint256",
                      "name": "gasLimit",
                      "type": "uint256"
                    },
                    {
                      "internalType": "bytes",
                      "name": "data",
                      "type": "bytes"
                    }
                  ],
                  "internalType": "struct Transaction",
                  "name": "transaction",
                  "type": "tuple"
                },
                {
                  "components": [
                    {
                      "components": [
                        {
                          "internalType": "address",
                          "name": "delegate",
                          "type": "address"
                        },
                        {
                          "internalType": "bytes32",
                          "name": "authority",
                          "type": "bytes32"
                        },
                        {
                          "components": [
                            {
                              "internalType": "address",
                              "name": "enforcer",
                              "type": "address"
                            },
                            {
                              "internalType": "bytes",
                              "name": "terms",
                              "type": "bytes"
                            }
                          ],
                          "internalType": "struct Caveat[]",
                          "name": "caveats",
                          "type": "tuple[]"
                        }
                      ],
                      "internalType": "struct Delegation",
                      "name": "delegation",
                      "type": "tuple"
                    },
                    {
                      "internalType": "bytes",
                      "name": "signature",
                      "type": "bytes"
                    }
                  ],
                  "internalType": "struct SignedDelegation[]",
                  "name": "authority",
                  "type": "tuple[]"
                }
              ],
              "internalType": "struct Invocation[]",
              "name": "batch",
              "type": "tuple[]"
            },
            {
              "components": [
                {
                  "internalType": "uint256",
                  "name": "nonce",
                  "type": "uint256"
                },
                {
                  "internalType": "uint256",
                  "name": "queue",
                  "type": "uint256"
                }
              ],
              "internalType": "struct ReplayProtection",
              "name": "replayProtection",
              "type": "tuple"
            }
          ],
          "internalType": "struct Invocations",
          "name": "_input",
          "type": "tuple"
        }
      ],
      "name": "GET_INVOCATIONS_PACKETHASH",
      "outputs": [
        {
          "internalType": "bytes32",
          "name": "",
          "type": "bytes32"
        }
      ],
      "stateMutability": "pure",
      "type": "function"
    },
    {
      "inputs": [
        {
          "components": [
            {
              "components": [
                {
                  "internalType": "address",
                  "name": "to",
                  "type": "address"
                },
                {
                  "internalType": "uint256",
                  "name": "gasLimit",
                  "type": "uint256"
                },
                {
                  "internalType": "bytes",
                  "name": "data",
                  "type": "bytes"
                }
              ],
              "internalType": "struct Transaction",
              "name": "transaction",
              "type": "tuple"
            },
            {
              "components": [
                {
                  "components": [
                    {
                      "internalType": "address",
                      "name": "delegate",
                      "type": "address"
                    },
                    {
                      "internalType": "bytes32",
                      "name": "authority",
                      "type": "bytes32"
                    },
                    {
                      "components": [
                        {
                          "internalType": "address",
                          "name": "enforcer",
                          "type": "address"
                        },
                        {
                          "internalType": "bytes",
                          "name": "terms",
                          "type": "bytes"
                        }
                      ],
                      "internalType": "struct Caveat[]",
                      "name": "caveats",
                      "type": "tuple[]"
                    }
                  ],
                  "internalType": "struct Delegation",
                  "name": "delegation",
                  "type": "tuple"
                },
                {
                  "internalType": "bytes",
                  "name": "signature",
                  "type": "bytes"
                }
              ],
              "internalType": "struct SignedDelegation[]",
              "name": "authority",
              "type": "tuple[]"
            }
          ],
          "internalType": "struct Invocation[]",
          "name": "_input",
          "type": "tuple[]"
        }
      ],
      "name": "GET_INVOCATION_ARRAY_PACKETHASH",
      "outputs": [
        {
          "internalType": "bytes32",
          "name": "",
          "type": "bytes32"
        }
      ],
      "stateMutability": "pure",
      "type": "function"
    },
    {
      "inputs": [
        {
          "components": [
            {
              "components": [
                {
                  "internalType": "address",
                  "name": "to",
                  "type": "address"
                },
                {
                  "internalType": "uint256",
                  "name": "gasLimit",
                  "type": "uint256"
                },
                {
                  "internalType": "bytes",
                  "name": "data",
                  "type": "bytes"
                }
              ],
              "internalType": "struct Transaction",
              "name": "transaction",
              "type": "tuple"
            },
            {
              "components": [
                {
                  "components": [
                    {
                      "internalType": "address",
                      "name": "delegate",
                      "type": "address"
                    },
                    {
                      "internalType": "bytes32",
                      "name": "authority",
                      "type": "bytes32"
                    },
                    {
                      "components": [
                        {
                          "internalType": "address",
                          "name": "enforcer",
                          "type": "address"
                        },
                        {
                          "internalType": "bytes",
                          "name": "terms",
                          "type": "bytes"
                        }
                      ],
                      "internalType": "struct Caveat[]",
                      "name": "caveats",
                      "type": "tuple[]"
                    }
                  ],
                  "internalType": "struct Delegation",
                  "name": "delegation",
                  "type": "tuple"
                },
                {
                  "internalType": "bytes",
                  "name": "signature",
                  "type": "bytes"
                }
              ],
              "internalType": "struct SignedDelegation[]",
              "name": "authority",
              "type": "tuple[]"
            }
          ],
          "internalType": "struct Invocation",
          "name": "_input",
          "type": "tuple"
        }
      ],
      "name": "GET_INVOCATION_PACKETHASH",
      "outputs": [
        {
          "internalType": "bytes32",
          "name": "",
          "type": "bytes32"
        }
      ],
      "stateMutability": "pure",
      "type": "function"
    },
    {
      "inputs": [
        {
          "components": [
            {
              "internalType": "uint256",
              "name": "nonce",
              "type": "uint256"
            },
            {
              "internalType": "uint256",
              "name": "queue",
              "type": "uint256"
            }
          ],
          "internalType": "struct ReplayProtection",
          "name": "_input",
          "type": "tuple"
        }
      ],
      "name": "GET_REPLAYPROTECTION_PACKETHASH",
      "outputs": [
        {
          "internalType": "bytes32",
          "name": "",
          "type": "bytes32"
        }
      ],
      "stateMutability": "pure",
      "type": "function"
    },
    {
      "inputs": [
        {
          "components": [
            {
              "components": [
                {
                  "internalType": "address",
                  "name": "delegate",
                  "type": "address"
                },
                {
                  "internalType": "bytes32",
                  "name": "authority",
                  "type": "bytes32"
                },
                {
                  "components": [
                    {
                      "internalType": "address",
                      "name": "enforcer",
                      "type": "address"
                    },
                    {
                      "internalType": "bytes",
                      "name": "terms",
                      "type": "bytes"
                    }
                  ],
                  "internalType": "struct Caveat[]",
                  "name": "caveats",
                  "type": "tuple[]"
                }
              ],
              "internalType": "struct Delegation",
              "name": "delegation",
              "type": "tuple"
            },
            {
              "internalType": "bytes",
              "name": "signature",
              "type": "bytes"
            }
          ],
          "internalType": "struct SignedDelegation[]",
          "name": "_input",
          "type": "tuple[]"
        }
      ],
      "name": "GET_SIGNEDDELEGATION_ARRAY_PACKETHASH",
      "outputs": [
        {
          "internalType": "bytes32",
          "name": "",
          "type": "bytes32"
        }
      ],
      "stateMutability": "pure",
      "type": "function"
    },
    {
      "inputs": [
        {
          "components": [
            {
              "components": [
                {
                  "internalType": "address",
                  "name": "delegate",
                  "type": "address"
                },
                {
                  "internalType": "bytes32",
                  "name": "authority",
                  "type": "bytes32"
                },
                {
                  "components": [
                    {
                      "internalType": "address",
                      "name": "enforcer",
                      "type": "address"
                    },
                    {
                      "internalType": "bytes",
                      "name": "terms",
                      "type": "bytes"
                    }
                  ],
                  "internalType": "struct Caveat[]",
                  "name": "caveats",
                  "type": "tuple[]"
                }
              ],
              "internalType": "struct Delegation",
              "name": "delegation",
              "type": "tuple"
            },
            {
              "internalType": "bytes",
              "name": "signature",
              "type": "bytes"
            }
          ],
          "internalType": "struct SignedDelegation",
          "name": "_input",
          "type": "tuple"
        }
      ],
      "name": "GET_SIGNEDDELEGATION_PACKETHASH",
      "outputs": [
        {
          "internalType": "bytes32",
          "name": "",
          "type": "bytes32"
        }
      ],
      "stateMutability": "pure",
      "type": "function"
    },
    {
      "inputs": [
        {
          "components": [
            {
              "internalType": "bytes",
              "name": "signature",
              "type": "bytes"
            },
            {
              "components": [
                {
                  "internalType": "bytes32",
                  "name": "delegationHash",
                  "type": "bytes32"
                }
              ],
              "internalType": "struct IntentionToRevoke",
              "name": "intentionToRevoke",
              "type": "tuple"
            }
          ],
          "internalType": "struct SignedIntentionToRevoke",
          "name": "_input",
          "type": "tuple"
        }
      ],
      "name": "GET_SIGNEDINTENTIONTOREVOKE_PACKETHASH",
      "outputs": [
        {
          "internalType": "bytes32",
          "name": "",
          "type": "bytes32"
        }
      ],
      "stateMutability": "pure",
      "type": "function"
    },
    {
      "inputs": [
        {
          "components": [
            {
              "components": [
                {
                  "components": [
                    {
                      "components": [
                        {
                          "internalType": "address",
                          "name": "to",
                          "type": "address"
                        },
                        {
                          "internalType": "uint256",
                          "name": "gasLimit",
                          "type": "uint256"
                        },
                        {
                          "internalType": "bytes",
                          "name": "data",
                          "type": "bytes"
                        }
                      ],
                      "internalType": "struct Transaction",
                      "name": "transaction",
                      "type": "tuple"
                    },
                    {
                      "components": [
                        {
                          "components": [
                            {
                              "internalType": "address",
                              "name": "delegate",
                              "type": "address"
                            },
                            {
                              "internalType": "bytes32",
                              "name": "authority",
                              "type": "bytes32"
                            },
                            {
                              "components": [
                                {
                                  "internalType": "address",
                                  "name": "enforcer",
                                  "type": "address"
                                },
                                {
                                  "internalType": "bytes",
                                  "name": "terms",
                                  "type": "bytes"
                                }
                              ],
                              "internalType": "struct Caveat[]",
                              "name": "caveats",
                              "type": "tuple[]"
                            }
                          ],
                          "internalType": "struct Delegation",
                          "name": "delegation",
                          "type": "tuple"
                        },
                        {
                          "internalType": "bytes",
                          "name": "signature",
                          "type": "bytes"
                        }
                      ],
                      "internalType": "struct SignedDelegation[]",
                      "name": "authority",
                      "type": "tuple[]"
                    }
                  ],
                  "internalType": "struct Invocation[]",
                  "name": "batch",
                  "type": "tuple[]"
                },
                {
                  "components": [
                    {
                      "internalType": "uint256",
                      "name": "nonce",
                      "type": "uint256"
                    },
                    {
                      "internalType": "uint256",
                      "name": "queue",
                      "type": "uint256"
                    }
                  ],
                  "internalType": "struct ReplayProtection",
                  "name": "replayProtection",
                  "type": "tuple"
                }
              ],
              "internalType": "struct Invocations",
              "name": "invocations",
              "type": "tuple"
            },
            {
              "internalType": "bytes",
              "name": "signature",
              "type": "bytes"
            }
          ],
          "internalType": "struct SignedInvocation",
          "name": "_input",
          "type": "tuple"
        }
      ],
      "name": "GET_SIGNEDINVOCATION_PACKETHASH",
      "outputs": [
        {
          "internalType": "bytes32",
          "name": "",
          "type": "bytes32"
        }
      ],
      "stateMutability": "pure",
      "type": "function"
    },
    {
      "inputs": [
        {
          "components": [
            {
              "internalType": "address",
              "name": "to",
              "type": "address"
            },
            {
              "internalType": "uint256",
              "name": "gasLimit",
              "type": "uint256"
            },
            {
              "internalType": "bytes",
              "name": "data",
              "type": "bytes"
            }
          ],
          "internalType": "struct Transaction",
          "name": "_input",
          "type": "tuple"
        }
      ],
      "name": "GET_TRANSACTION_PACKETHASH",
      "outputs": [
        {
          "internalType": "bytes32",
          "name": "",
          "type": "bytes32"
        }
      ],
      "stateMutability": "pure",
      "type": "function"
    }
  ],
  "bytecode": "0x608060405234801561001057600080fd5b5061118b806100206000396000f3fe608060405234801561001057600080fd5b50600436106100ea5760003560e01c8063732c36e81161008c57806398bc186a1161006657806398bc186a146101bf578063a2e01f75146101d2578063bb5af5bd146101e5578063d6d75cbf146101f857600080fd5b8063732c36e814610186578063736f7ce7146101995780637b577b58146101ac57600080fd5b80635cf1b24a116100c85780635cf1b24a1461013a5780636c2b12531461014d5780636f965803146101605780637234eefe1461017357600080fd5b806308aaf6b0146100ef5780632f52a2fd146101145780633a48182114610127575b600080fd5b6101026100fd366004610882565b61020b565b60405190815260200160405180910390f35b6101026101223660046109d2565b61028b565b610102610135366004610c1e565b6102f6565b610102610148366004610c52565b61036d565b61010261015b366004610c86565b6103ca565b61010261016e366004610cea565b610427565b610102610181366004610d66565b610478565b610102610194366004610ddb565b6104b6565b6101026101a7366004610e59565b6104f3565b6101026101ba366004610e8d565b61055b565b6101026101cd366004610ec1565b6105c3565b6101026101e0366004610f6c565b61060f565b6101026101f3366004610fa0565b61067b565b610102610206366004611030565b6106ac565b6000807f80ad7e1b04ee6d994a125f4714ca0720908bd80ed16063ec8aee4b88e9253e2d836000015184602001518051906020012060405160200161026c939291909283526001600160a01b03919091166020830152604082015260600190565b60408051601f1981840301815291905280516020909101209392505050565b6000807f409f5114779a253e700d775d7845e6efc1e83685ac59868d2df3d4de51c7d621836000015184602001516102c6866040015161055b565b6040805160208101959095526001600160a01b03909316928401929092526060830152608082015260a00161026c565b6000606060005b835181101561035e578161032985838151811061031c5761031c61104c565b602002602001015161036d565b60405160200161033a929190611092565b60405160208183030381529060405291508080610356906110b4565b9150506102fd565b50805160209091012092915050565b6000807fd97dd99b404d177890f06a8f0fc8e5ed0333fb2ebb6684360709066e8984f59461039e846000015161060f565b6103ab85602001516104f3565b604080516020810194909452830191909152606082015260800161026c565b6000807f3c36a06e1d288b0f94f565588317a46ad11bc3c96992109f9a2365a2737259a76103fb846000015161028b565b60208086015180519082012060405161026c949392019283526020830191909152604082015260600190565b6000807fe8d3d963b33868fb116316bc3fd55e8f49123f30e4418f71e140d54b7cd3b2b98360000151846020015160405160200161026c939291909283526020830191909152604082015260600190565b6000807f08c69a206c06f5334b35ceb1186181a713b21aff02cf66285f375084fbef2eb86104a984600001516102f6565b6103ab8560200151610427565b6000807f1b0091a1d050ac3fa97e15af326cf512d740529b43d5750169acacda23de27888360000151805190602001206103ab85602001516106ac565b6000606060005b835181101561035e57816105268583815181106105195761051961104c565b60200260200101516103ca565b604051602001610537929190611092565b60405160208183030381529060405291508080610553906110b4565b9150506104fa565b6000606060005b835181101561035e578161058e8583815181106105815761058161104c565b602002602001015161020b565b60405160200161059f929190611092565b604051602081830303815290604052915080806105bb906110b4565b915050610562565b6000807f8b73c3c69bb8fe3d512ecc4cf759cc79239f7b179b0ffacaa9a75d522b39400f836000015184602001518560400151866060015160405160200161026c959493929190611107565b6000807fb16dfdb3b8fa033fe30ac976cd4a50ad256b6811c80d90fcd0b323eec190047d8360000151846020015185604001518051906020012060405160200161026c94939291909384526001600160a01b039290921660208401526040830152606082015260800190565b6000807fc32b6dfe0f988d1f2b13248cddd88e320ff0ae86e3ccfe38bab77a80f4477d446103fb8460000151610478565b8051604051600091829161026c917f7148a5140265154d6c5200f68c3b86caca80512f179c3903dffd45aeaefc8ea891602001918252602082015260400190565b634e487b7160e01b600052604160045260246000fd5b604080519081016001600160401b0381118282101715610725576107256106ed565b60405290565b604051606081016001600160401b0381118282101715610725576107256106ed565b604051608081016001600160401b0381118282101715610725576107256106ed565b604051601f8201601f191681016001600160401b0381118282101715610797576107976106ed565b604052919050565b80356001600160a01b03811681146107b657600080fd5b919050565b600082601f8301126107cc57600080fd5b81356001600160401b038111156107e5576107e56106ed565b6107f8601f8201601f191660200161076f565b81815284602083860101111561080d57600080fd5b816020850160208301376000918101602001919091529392505050565b60006040828403121561083c57600080fd5b610844610703565b905061084f8261079f565b815260208201356001600160401b0381111561086a57600080fd5b610876848285016107bb565b60208301525092915050565b60006020828403121561089457600080fd5b81356001600160401b038111156108aa57600080fd5b6108b68482850161082a565b949350505050565b60006001600160401b038211156108d7576108d76106ed565b5060051b60200190565b600082601f8301126108f257600080fd5b81356020610907610902836108be565b61076f565b82815260059290921b8401810191818101908684111561092657600080fd5b8286015b848110156109655780356001600160401b038111156109495760008081fd5b6109578986838b010161082a565b84525091830191830161092a565b509695505050505050565b60006060828403121561098257600080fd5b61098a61072b565b90506109958261079f565b81526020820135602082015260408201356001600160401b038111156109ba57600080fd5b6109c6848285016108e1565b60408301525092915050565b6000602082840312156109e457600080fd5b81356001600160401b038111156109fa57600080fd5b6108b684828501610970565b600060608284031215610a1857600080fd5b610a2061072b565b9050610a2b8261079f565b81526020820135602082015260408201356001600160401b03811115610a5057600080fd5b6109c6848285016107bb565b600060408284031215610a6e57600080fd5b610a76610703565b905081356001600160401b0380821115610a8f57600080fd5b610a9b85838601610970565b83526020840135915080821115610ab157600080fd5b50610876848285016107bb565b600082601f830112610acf57600080fd5b81356020610adf610902836108be565b82815260059290921b84018101918181019086841115610afe57600080fd5b8286015b848110156109655780356001600160401b03811115610b215760008081fd5b610b2f8986838b0101610a5c565b845250918301918301610b02565b600060408284031215610b4f57600080fd5b610b57610703565b905081356001600160401b0380821115610b7057600080fd5b610b7c85838601610a06565b83526020840135915080821115610b9257600080fd5b5061087684828501610abe565b600082601f830112610bb057600080fd5b81356020610bc0610902836108be565b82815260059290921b84018101918181019086841115610bdf57600080fd5b8286015b848110156109655780356001600160401b03811115610c025760008081fd5b610c108986838b0101610b3d565b845250918301918301610be3565b600060208284031215610c3057600080fd5b81356001600160401b03811115610c4657600080fd5b6108b684828501610b9f565b600060208284031215610c6457600080fd5b81356001600160401b03811115610c7a57600080fd5b6108b684828501610b3d565b600060208284031215610c9857600080fd5b81356001600160401b03811115610cae57600080fd5b6108b684828501610a5c565b600060408284031215610ccc57600080fd5b610cd4610703565b9050813581526020820135602082015292915050565b600060408284031215610cfc57600080fd5b610d068383610cba565b9392505050565b600060608284031215610d1f57600080fd5b610d27610703565b905081356001600160401b03811115610d3f57600080fd5b610d4b84828501610b9f565b825250610d5b8360208401610cba565b602082015292915050565b600060208284031215610d7857600080fd5b81356001600160401b03811115610d8e57600080fd5b6108b684828501610d0d565b600060208284031215610dac57600080fd5b604051602081018181106001600160401b0382111715610dce57610dce6106ed565b6040529135825250919050565b600060208284031215610ded57600080fd5b81356001600160401b0380821115610e0457600080fd5b9083019060408286031215610e1857600080fd5b610e20610703565b823582811115610e2f57600080fd5b610e3b878286016107bb565b825250610e4b8660208501610d9a565b602082015295945050505050565b600060208284031215610e6b57600080fd5b81356001600160401b03811115610e8157600080fd5b6108b684828501610abe565b600060208284031215610e9f57600080fd5b81356001600160401b03811115610eb557600080fd5b6108b6848285016108e1565b600060208284031215610ed357600080fd5b81356001600160401b0380821115610eea57600080fd5b9083019060808286031215610efe57600080fd5b610f0661074d565b823582811115610f1557600080fd5b610f21878286016107bb565b825250602083013582811115610f3657600080fd5b610f42878286016107bb565b60208301525060408301356040820152610f5e6060840161079f565b606082015295945050505050565b600060208284031215610f7e57600080fd5b81356001600160401b03811115610f9457600080fd5b6108b684828501610a06565b600060208284031215610fb257600080fd5b81356001600160401b0380821115610fc957600080fd5b9083019060408286031215610fdd57600080fd5b610fe5610703565b823582811115610ff457600080fd5b61100087828601610d0d565b82525060208301358281111561101557600080fd5b611021878286016107bb565b60208301525095945050505050565b60006020828403121561104257600080fd5b610d068383610d9a565b634e487b7160e01b600052603260045260246000fd5b60005b8381101561107d578181015183820152602001611065565b8381111561108c576000848401525b50505050565b600083516110a4818460208801611062565b9190910191825250602001919050565b6000600182016110d457634e487b7160e01b600052601160045260246000fd5b5060010190565b600081518084526110f3816020860160208601611062565b601f01601f19169290920160200192915050565b85815260a06020820152600061112060a08301876110db565b828103604084015261113281876110db565b606084019590955250506001600160a01b0391909116608090910152939250505056fea26469706673582212205066f5c45ea3a2bb0e681d3cdb2f520d9e8f9d2308dd7ae7d200626ad3247aee64736f6c634300080d0033",
  "linkReferences": {},
  "deployedLinkReferences": {}
}