{
  "_format": "hh-sol-artifact-1",
  "contractName": "EIP712Decoder",
  "sourceName": "contracts/TypesAndDecoders.sol",
  "abi": [
    {
      "inputs": [
        {
          "components": [
            {
              "internalType": "address",
              "name": "enforcer",
              "type": "address"
            },
            {
              "internalType": "bytes",
              "name": "terms",
              "type": "bytes"
            }
          ],
          "internalType": "struct Caveat[]",
          "name": "_input",
          "type": "tuple[]"
        }
      ],
      "name": "GET_CAVEAT_ARRAY_PACKETHASH",
      "outputs": [
        {
          "internalType": "bytes32",
          "name": "",
          "type": "bytes32"
        }
      ],
      "stateMutability": "pure",
      "type": "function"
    },
    {
      "inputs": [
        {
          "components": [
            {
              "internalType": "address",
              "name": "enforcer",
              "type": "address"
            },
            {
              "internalType": "bytes",
              "name": "terms",
              "type": "bytes"
            }
          ],
          "internalType": "struct Caveat",
          "name": "_input",
          "type": "tuple"
        }
      ],
      "name": "GET_CAVEAT_PACKETHASH",
      "outputs": [
        {
          "internalType": "bytes32",
          "name": "",
          "type": "bytes32"
        }
      ],
      "stateMutability": "pure",
      "type": "function"
    },
    {
      "inputs": [
        {
          "components": [
            {
              "internalType": "address",
              "name": "delegate",
              "type": "address"
            },
            {
              "internalType": "bytes32",
              "name": "authority",
              "type": "bytes32"
            },
            {
              "components": [
                {
                  "internalType": "address",
                  "name": "enforcer",
                  "type": "address"
                },
                {
                  "internalType": "bytes",
                  "name": "terms",
                  "type": "bytes"
                }
              ],
              "internalType": "struct Caveat[]",
              "name": "caveats",
              "type": "tuple[]"
            }
          ],
          "internalType": "struct Delegation",
          "name": "_input",
          "type": "tuple"
        }
      ],
      "name": "GET_DELEGATION_PACKETHASH",
      "outputs": [
        {
          "internalType": "bytes32",
          "name": "",
          "type": "bytes32"
        }
      ],
      "stateMutability": "pure",
      "type": "function"
    },
    {
      "inputs": [
        {
          "components": [
            {
              "internalType": "string",
              "name": "name",
              "type": "string"
            },
            {
              "internalType": "string",
              "name": "version",
              "type": "string"
            },
            {
              "internalType": "uint256",
              "name": "chainId",
              "type": "uint256"
            },
            {
              "internalType": "address",
              "name": "verifyingContract",
              "type": "address"
            }
          ],
          "internalType": "struct EIP712Domain",
          "name": "_input",
          "type": "tuple"
        }
      ],
      "name": "GET_EIP712DOMAIN_PACKETHASH",
      "outputs": [
        {
          "internalType": "bytes32",
          "name": "",
          "type": "bytes32"
        }
      ],
      "stateMutability": "pure",
      "type": "function"
    },
    {
      "inputs": [
        {
          "components": [
            {
              "components": [
                {
                  "components": [
                    {
                      "internalType": "address",
                      "name": "to",
                      "type": "address"
                    },
                    {
                      "internalType": "uint256",
                      "name": "gasLimit",
                      "type": "uint256"
                    },
                    {
                      "internalType": "bytes",
                      "name": "data",
                      "type": "bytes"
                    }
                  ],
                  "internalType": "struct Transaction",
                  "name": "transaction",
                  "type": "tuple"
                },
                {
                  "components": [
                    {
                      "components": [
                        {
                          "internalType": "address",
                          "name": "delegate",
                          "type": "address"
                        },
                        {
                          "internalType": "bytes32",
                          "name": "authority",
                          "type": "bytes32"
                        },
                        {
                          "components": [
                            {
                              "internalType": "address",
                              "name": "enforcer",
                              "type": "address"
                            },
                            {
                              "internalType": "bytes",
                              "name": "terms",
                              "type": "bytes"
                            }
                          ],
                          "internalType": "struct Caveat[]",
                          "name": "caveats",
                          "type": "tuple[]"
                        }
                      ],
                      "internalType": "struct Delegation",
                      "name": "delegation",
                      "type": "tuple"
                    },
                    {
                      "internalType": "bytes",
                      "name": "signature",
                      "type": "bytes"
                    }
                  ],
                  "internalType": "struct SignedDelegation[]",
                  "name": "authority",
                  "type": "tuple[]"
                }
              ],
              "internalType": "struct Invocation[]",
              "name": "batch",
              "type": "tuple[]"
            },
            {
              "components": [
                {
                  "internalType": "uint256",
                  "name": "nonce",
                  "type": "uint256"
                },
                {
                  "internalType": "uint256",
                  "name": "queue",
                  "type": "uint256"
                }
              ],
              "internalType": "struct ReplayProtection",
              "name": "replayProtection",
              "type": "tuple"
            }
          ],
          "internalType": "struct Invocations",
          "name": "_input",
          "type": "tuple"
        }
      ],
      "name": "GET_INVOCATIONS_PACKETHASH",
      "outputs": [
        {
          "internalType": "bytes32",
          "name": "",
          "type": "bytes32"
        }
      ],
      "stateMutability": "pure",
      "type": "function"
    },
    {
      "inputs": [
        {
          "components": [
            {
              "components": [
                {
                  "internalType": "address",
                  "name": "to",
                  "type": "address"
                },
                {
                  "internalType": "uint256",
                  "name": "gasLimit",
                  "type": "uint256"
                },
                {
                  "internalType": "bytes",
                  "name": "data",
                  "type": "bytes"
                }
              ],
              "internalType": "struct Transaction",
              "name": "transaction",
              "type": "tuple"
            },
            {
              "components": [
                {
                  "components": [
                    {
                      "internalType": "address",
                      "name": "delegate",
                      "type": "address"
                    },
                    {
                      "internalType": "bytes32",
                      "name": "authority",
                      "type": "bytes32"
                    },
                    {
                      "components": [
                        {
                          "internalType": "address",
                          "name": "enforcer",
                          "type": "address"
                        },
                        {
                          "internalType": "bytes",
                          "name": "terms",
                          "type": "bytes"
                        }
                      ],
                      "internalType": "struct Caveat[]",
                      "name": "caveats",
                      "type": "tuple[]"
                    }
                  ],
                  "internalType": "struct Delegation",
                  "name": "delegation",
                  "type": "tuple"
                },
                {
                  "internalType": "bytes",
                  "name": "signature",
                  "type": "bytes"
                }
              ],
              "internalType": "struct SignedDelegation[]",
              "name": "authority",
              "type": "tuple[]"
            }
          ],
          "internalType": "struct Invocation[]",
          "name": "_input",
          "type": "tuple[]"
        }
      ],
      "name": "GET_INVOCATION_ARRAY_PACKETHASH",
      "outputs": [
        {
          "internalType": "bytes32",
          "name": "",
          "type": "bytes32"
        }
      ],
      "stateMutability": "pure",
      "type": "function"
    },
    {
      "inputs": [
        {
          "components": [
            {
              "components": [
                {
                  "internalType": "address",
                  "name": "to",
                  "type": "address"
                },
                {
                  "internalType": "uint256",
                  "name": "gasLimit",
                  "type": "uint256"
                },
                {
                  "internalType": "bytes",
                  "name": "data",
                  "type": "bytes"
                }
              ],
              "internalType": "struct Transaction",
              "name": "transaction",
              "type": "tuple"
            },
            {
              "components": [
                {
                  "components": [
                    {
                      "internalType": "address",
                      "name": "delegate",
                      "type": "address"
                    },
                    {
                      "internalType": "bytes32",
                      "name": "authority",
                      "type": "bytes32"
                    },
                    {
                      "components": [
                        {
                          "internalType": "address",
                          "name": "enforcer",
                          "type": "address"
                        },
                        {
                          "internalType": "bytes",
                          "name": "terms",
                          "type": "bytes"
                        }
                      ],
                      "internalType": "struct Caveat[]",
                      "name": "caveats",
                      "type": "tuple[]"
                    }
                  ],
                  "internalType": "struct Delegation",
                  "name": "delegation",
                  "type": "tuple"
                },
                {
                  "internalType": "bytes",
                  "name": "signature",
                  "type": "bytes"
                }
              ],
              "internalType": "struct SignedDelegation[]",
              "name": "authority",
              "type": "tuple[]"
            }
          ],
          "internalType": "struct Invocation",
          "name": "_input",
          "type": "tuple"
        }
      ],
      "name": "GET_INVOCATION_PACKETHASH",
      "outputs": [
        {
          "internalType": "bytes32",
          "name": "",
          "type": "bytes32"
        }
      ],
      "stateMutability": "pure",
      "type": "function"
    },
    {
      "inputs": [
        {
          "components": [
            {
              "internalType": "uint256",
              "name": "nonce",
              "type": "uint256"
            },
            {
              "internalType": "uint256",
              "name": "queue",
              "type": "uint256"
            }
          ],
          "internalType": "struct ReplayProtection",
          "name": "_input",
          "type": "tuple"
        }
      ],
      "name": "GET_REPLAYPROTECTION_PACKETHASH",
      "outputs": [
        {
          "internalType": "bytes32",
          "name": "",
          "type": "bytes32"
        }
      ],
      "stateMutability": "pure",
      "type": "function"
    },
    {
      "inputs": [
        {
          "components": [
            {
              "components": [
                {
                  "internalType": "address",
                  "name": "delegate",
                  "type": "address"
                },
                {
                  "internalType": "bytes32",
                  "name": "authority",
                  "type": "bytes32"
                },
                {
                  "components": [
                    {
                      "internalType": "address",
                      "name": "enforcer",
                      "type": "address"
                    },
                    {
                      "internalType": "bytes",
                      "name": "terms",
                      "type": "bytes"
                    }
                  ],
                  "internalType": "struct Caveat[]",
                  "name": "caveats",
                  "type": "tuple[]"
                }
              ],
              "internalType": "struct Delegation",
              "name": "delegation",
              "type": "tuple"
            },
            {
              "internalType": "bytes",
              "name": "signature",
              "type": "bytes"
            }
          ],
          "internalType": "struct SignedDelegation[]",
          "name": "_input",
          "type": "tuple[]"
        }
      ],
      "name": "GET_SIGNEDDELEGATION_ARRAY_PACKETHASH",
      "outputs": [
        {
          "internalType": "bytes32",
          "name": "",
          "type": "bytes32"
        }
      ],
      "stateMutability": "pure",
      "type": "function"
    },
    {
      "inputs": [
        {
          "components": [
            {
              "components": [
                {
                  "internalType": "address",
                  "name": "delegate",
                  "type": "address"
                },
                {
                  "internalType": "bytes32",
                  "name": "authority",
                  "type": "bytes32"
                },
                {
                  "components": [
                    {
                      "internalType": "address",
                      "name": "enforcer",
                      "type": "address"
                    },
                    {
                      "internalType": "bytes",
                      "name": "terms",
                      "type": "bytes"
                    }
                  ],
                  "internalType": "struct Caveat[]",
                  "name": "caveats",
                  "type": "tuple[]"
                }
              ],
              "internalType": "struct Delegation",
              "name": "delegation",
              "type": "tuple"
            },
            {
              "internalType": "bytes",
              "name": "signature",
              "type": "bytes"
            }
          ],
          "internalType": "struct SignedDelegation",
          "name": "_input",
          "type": "tuple"
        }
      ],
      "name": "GET_SIGNEDDELEGATION_PACKETHASH",
      "outputs": [
        {
          "internalType": "bytes32",
          "name": "",
          "type": "bytes32"
        }
      ],
      "stateMutability": "pure",
      "type": "function"
    },
    {
      "inputs": [
        {
          "components": [
            {
              "components": [
                {
                  "components": [
                    {
                      "components": [
                        {
                          "internalType": "address",
                          "name": "to",
                          "type": "address"
                        },
                        {
                          "internalType": "uint256",
                          "name": "gasLimit",
                          "type": "uint256"
                        },
                        {
                          "internalType": "bytes",
                          "name": "data",
                          "type": "bytes"
                        }
                      ],
                      "internalType": "struct Transaction",
                      "name": "transaction",
                      "type": "tuple"
                    },
                    {
                      "components": [
                        {
                          "components": [
                            {
                              "internalType": "address",
                              "name": "delegate",
                              "type": "address"
                            },
                            {
                              "internalType": "bytes32",
                              "name": "authority",
                              "type": "bytes32"
                            },
                            {
                              "components": [
                                {
                                  "internalType": "address",
                                  "name": "enforcer",
                                  "type": "address"
                                },
                                {
                                  "internalType": "bytes",
                                  "name": "terms",
                                  "type": "bytes"
                                }
                              ],
                              "internalType": "struct Caveat[]",
                              "name": "caveats",
                              "type": "tuple[]"
                            }
                          ],
                          "internalType": "struct Delegation",
                          "name": "delegation",
                          "type": "tuple"
                        },
                        {
                          "internalType": "bytes",
                          "name": "signature",
                          "type": "bytes"
                        }
                      ],
                      "internalType": "struct SignedDelegation[]",
                      "name": "authority",
                      "type": "tuple[]"
                    }
                  ],
                  "internalType": "struct Invocation[]",
                  "name": "batch",
                  "type": "tuple[]"
                },
                {
                  "components": [
                    {
                      "internalType": "uint256",
                      "name": "nonce",
                      "type": "uint256"
                    },
                    {
                      "internalType": "uint256",
                      "name": "queue",
                      "type": "uint256"
                    }
                  ],
                  "internalType": "struct ReplayProtection",
                  "name": "replayProtection",
                  "type": "tuple"
                }
              ],
              "internalType": "struct Invocations",
              "name": "invocations",
              "type": "tuple"
            },
            {
              "internalType": "bytes",
              "name": "signature",
              "type": "bytes"
            }
          ],
          "internalType": "struct SignedInvocation",
          "name": "_input",
          "type": "tuple"
        }
      ],
      "name": "GET_SIGNEDINVOCATION_PACKETHASH",
      "outputs": [
        {
          "internalType": "bytes32",
          "name": "",
          "type": "bytes32"
        }
      ],
      "stateMutability": "pure",
      "type": "function"
    },
    {
      "inputs": [
        {
          "components": [
            {
              "internalType": "address",
              "name": "to",
              "type": "address"
            },
            {
              "internalType": "uint256",
              "name": "gasLimit",
              "type": "uint256"
            },
            {
              "internalType": "bytes",
              "name": "data",
              "type": "bytes"
            }
          ],
          "internalType": "struct Transaction",
          "name": "_input",
          "type": "tuple"
        }
      ],
      "name": "GET_TRANSACTION_PACKETHASH",
      "outputs": [
        {
          "internalType": "bytes32",
          "name": "",
          "type": "bytes32"
        }
      ],
      "stateMutability": "pure",
      "type": "function"
    }
  ],
  "bytecode": "0x608060405234801561001057600080fd5b50610fd6806100206000396000f3fe608060405234801561001057600080fd5b50600436106100b45760003560e01c80637234eefe116100715780637234eefe1461013d578063736f7ce7146101505780637b577b581461016357806398bc186a14610176578063a2e01f7514610189578063bb5af5bd1461019c57600080fd5b806308aaf6b0146100b95780632f52a2fd146100de5780633a481821146100f15780635cf1b24a146101045780636c2b1253146101175780636f9658031461012a575b600080fd5b6100cc6100c73660046107a8565b6101af565b60405190815260200160405180910390f35b6100cc6100ec3660046108f8565b61022f565b6100cc6100ff366004610b44565b61029a565b6100cc610112366004610b78565b610311565b6100cc610125366004610bac565b61036e565b6100cc610138366004610c10565b6103cb565b6100cc61014b366004610c8c565b61041c565b6100cc61015e366004610cc0565b61045a565b6100cc610171366004610cf4565b6104c2565b6100cc610184366004610d28565b61052a565b6100cc610197366004610dd3565b610576565b6100cc6101aa366004610e07565b6105e2565b6000807f80ad7e1b04ee6d994a125f4714ca0720908bd80ed16063ec8aee4b88e9253e2d8360000151846020015180519060200120604051602001610210939291909283526001600160a01b03919091166020830152604082015260600190565b60408051601f1981840301815291905280516020909101209392505050565b6000807f409f5114779a253e700d775d7845e6efc1e83685ac59868d2df3d4de51c7d6218360000151846020015161026a86604001516104c2565b6040805160208101959095526001600160a01b03909316928401929092526060830152608082015260a001610210565b6000606060005b835181101561030257816102cd8583815181106102c0576102c0610e97565b6020026020010151610311565b6040516020016102de929190610edd565b604051602081830303815290604052915080806102fa90610eff565b9150506102a1565b50805160209091012092915050565b6000807fd97dd99b404d177890f06a8f0fc8e5ed0333fb2ebb6684360709066e8984f5946103428460000151610576565b61034f856020015161045a565b6040805160208101949094528301919091526060820152608001610210565b6000807f3c36a06e1d288b0f94f565588317a46ad11bc3c96992109f9a2365a2737259a761039f846000015161022f565b602080860151805190820120604051610210949392019283526020830191909152604082015260600190565b6000807fe8d3d963b33868fb116316bc3fd55e8f49123f30e4418f71e140d54b7cd3b2b983600001518460200151604051602001610210939291909283526020830191909152604082015260600190565b6000807f08c69a206c06f5334b35ceb1186181a713b21aff02cf66285f375084fbef2eb861044d846000015161029a565b61034f85602001516103cb565b6000606060005b8351811015610302578161048d85838151811061048057610480610e97565b602002602001015161036e565b60405160200161049e929190610edd565b604051602081830303815290604052915080806104ba90610eff565b915050610461565b6000606060005b835181101561030257816104f58583815181106104e8576104e8610e97565b60200260200101516101af565b604051602001610506929190610edd565b6040516020818303038152906040529150808061052290610eff565b9150506104c9565b6000807f8b73c3c69bb8fe3d512ecc4cf759cc79239f7b179b0ffacaa9a75d522b39400f8360000151846020015185604001518660600151604051602001610210959493929190610f52565b6000807fb16dfdb3b8fa033fe30ac976cd4a50ad256b6811c80d90fcd0b323eec190047d8360000151846020015185604001518051906020012060405160200161021094939291909384526001600160a01b039290921660208401526040830152606082015260800190565b6000807fc32b6dfe0f988d1f2b13248cddd88e320ff0ae86e3ccfe38bab77a80f4477d4461039f846000015161041c565b634e487b7160e01b600052604160045260246000fd5b604080519081016001600160401b038111828210171561064b5761064b610613565b60405290565b604051606081016001600160401b038111828210171561064b5761064b610613565b604051608081016001600160401b038111828210171561064b5761064b610613565b604051601f8201601f191681016001600160401b03811182821017156106bd576106bd610613565b604052919050565b80356001600160a01b03811681146106dc57600080fd5b919050565b600082601f8301126106f257600080fd5b81356001600160401b0381111561070b5761070b610613565b61071e601f8201601f1916602001610695565b81815284602083860101111561073357600080fd5b816020850160208301376000918101602001919091529392505050565b60006040828403121561076257600080fd5b61076a610629565b9050610775826106c5565b815260208201356001600160401b0381111561079057600080fd5b61079c848285016106e1565b60208301525092915050565b6000602082840312156107ba57600080fd5b81356001600160401b038111156107d057600080fd5b6107dc84828501610750565b949350505050565b60006001600160401b038211156107fd576107fd610613565b5060051b60200190565b600082601f83011261081857600080fd5b8135602061082d610828836107e4565b610695565b82815260059290921b8401810191818101908684111561084c57600080fd5b8286015b8481101561088b5780356001600160401b0381111561086f5760008081fd5b61087d8986838b0101610750565b845250918301918301610850565b509695505050505050565b6000606082840312156108a857600080fd5b6108b0610651565b90506108bb826106c5565b81526020820135602082015260408201356001600160401b038111156108e057600080fd5b6108ec84828501610807565b60408301525092915050565b60006020828403121561090a57600080fd5b81356001600160401b0381111561092057600080fd5b6107dc84828501610896565b60006060828403121561093e57600080fd5b610946610651565b9050610951826106c5565b81526020820135602082015260408201356001600160401b0381111561097657600080fd5b6108ec848285016106e1565b60006040828403121561099457600080fd5b61099c610629565b905081356001600160401b03808211156109b557600080fd5b6109c185838601610896565b835260208401359150808211156109d757600080fd5b5061079c848285016106e1565b600082601f8301126109f557600080fd5b81356020610a05610828836107e4565b82815260059290921b84018101918181019086841115610a2457600080fd5b8286015b8481101561088b5780356001600160401b03811115610a475760008081fd5b610a558986838b0101610982565b845250918301918301610a28565b600060408284031215610a7557600080fd5b610a7d610629565b905081356001600160401b0380821115610a9657600080fd5b610aa28583860161092c565b83526020840135915080821115610ab857600080fd5b5061079c848285016109e4565b600082601f830112610ad657600080fd5b81356020610ae6610828836107e4565b82815260059290921b84018101918181019086841115610b0557600080fd5b8286015b8481101561088b5780356001600160401b03811115610b285760008081fd5b610b368986838b0101610a63565b845250918301918301610b09565b600060208284031215610b5657600080fd5b81356001600160401b03811115610b6c57600080fd5b6107dc84828501610ac5565b600060208284031215610b8a57600080fd5b81356001600160401b03811115610ba057600080fd5b6107dc84828501610a63565b600060208284031215610bbe57600080fd5b81356001600160401b03811115610bd457600080fd5b6107dc84828501610982565b600060408284031215610bf257600080fd5b610bfa610629565b9050813581526020820135602082015292915050565b600060408284031215610c2257600080fd5b610c2c8383610be0565b9392505050565b600060608284031215610c4557600080fd5b610c4d610629565b905081356001600160401b03811115610c6557600080fd5b610c7184828501610ac5565b825250610c818360208401610be0565b602082015292915050565b600060208284031215610c9e57600080fd5b81356001600160401b03811115610cb457600080fd5b6107dc84828501610c33565b600060208284031215610cd257600080fd5b81356001600160401b03811115610ce857600080fd5b6107dc848285016109e4565b600060208284031215610d0657600080fd5b81356001600160401b03811115610d1c57600080fd5b6107dc84828501610807565b600060208284031215610d3a57600080fd5b81356001600160401b0380821115610d5157600080fd5b9083019060808286031215610d6557600080fd5b610d6d610673565b823582811115610d7c57600080fd5b610d88878286016106e1565b825250602083013582811115610d9d57600080fd5b610da9878286016106e1565b60208301525060408301356040820152610dc5606084016106c5565b606082015295945050505050565b600060208284031215610de557600080fd5b81356001600160401b03811115610dfb57600080fd5b6107dc8482850161092c565b600060208284031215610e1957600080fd5b81356001600160401b0380821115610e3057600080fd5b9083019060408286031215610e4457600080fd5b610e4c610629565b823582811115610e5b57600080fd5b610e6787828601610c33565b825250602083013582811115610e7c57600080fd5b610e88878286016106e1565b60208301525095945050505050565b634e487b7160e01b600052603260045260246000fd5b60005b83811015610ec8578181015183820152602001610eb0565b83811115610ed7576000848401525b50505050565b60008351610eef818460208801610ead565b9190910191825250602001919050565b600060018201610f1f57634e487b7160e01b600052601160045260246000fd5b5060010190565b60008151808452610f3e816020860160208601610ead565b601f01601f19169290920160200192915050565b85815260a060208201526000610f6b60a0830187610f26565b8281036040840152610f7d8187610f26565b606084019590955250506001600160a01b0391909116608090910152939250505056fea2646970667358221220a04687d6a8024d7d566982a8aafc13e01761268830292c82487cf27011fb2e4964736f6c634300080d0033",
  "linkReferences": {},
  "deployedLinkReferences": {}
}